:100000000C94A2070C94BF070C94BF070C94BF0775
:100010000C94BF070C94BF070C94BF070C94BF0748
:100020000C94BF070C94BF070C94BF070C94BF0738
:100030000C94BF070C94BF070C94BF070C94BF0728
:100040000C94BF070C94BF070C94BF070C94BF0718
:100050000C94BF07000000000000000030787830EA
:10006000300030006C6C6C00000000006C6CFE6CAA
:10007000FE6C6C00183E603C067C18000063660C49
:10008000183363001C361C3B6E663B00303060004A
:10009000000000000C18303030180C0030180C0C28
:1000A0000C18300000663CFF3C660000003030FC5D
:1000B0003030000000000000001818300000007E02
:1000C00000000000000000000018180003060C18D3
:1000D000306040003E63636B63633E00183858181D
:1000E00018187E003C66061C30667E003C66061CC6
:1000F00006663C000E1E36667F060F007E607C069C
:1001000006663C001C30607C66663C007E66060C21
:10011000181818003C66663C66663C003C66663E05
:10012000060C3800001818000018180000181800F5
:10013000001818300C18306030180C0000007E00D9
:10014000007E000030180C060C1830003C66060CCF
:10015000180018003E636F696F603E00183C6666C9
:100160007E6666007E33333E33337E001E3360602E
:1001700060331E007C36333333367C007F31343CB1
:1001800034317F007F31343C343078001E3360607E
:1001900067331F006666667E666666003C18181840
:1001A00018183C000F06060666663C007333363CA2
:1001B000363373007830303031337F0063777F7FA0
:1001C0006B63630063737B6F676363003E636363AA
:1001D00063633E007E33333E303078003C666666B3
:1001E0006E3C0E007E33333E363373003C6630186F
:1001F0000C663C007E5A181818183C006666666645
:1002000066667E0066666666663C18006363636BBE
:100210007F7763006363361C1C3663006666663C4A
:1002200018183C007F63460C19337F003C30303097
:1002300030303C006030180C060301003C0C0C0C04
:100240000C0C3C00081C366300000000000000009D
:10025000000000FF18180C000000000000003C0621
:100260003E663B0070303E3333336E0000003C6628
:1002700060663C000E063E6666663B0000003C661B
:100280007E603C001C3630783030780000003B66E1
:10029000663E067C7030363B3333730018003818E6
:1002A00018183C00060006060666663C70303336B9
:1002B0003C3673003818181818183C000000667F88
:1002C0007F6B630000007C666666660000003C662B
:1002D00066663C0000006E33333E307800003B66BB
:1002E000663E060F00006E3B3330780000003E6033
:1002F0003C067C0008183E18181A0C0000006666C0
:1003000066663B0000006666663C18000000636B92
:100310007F7F3600000063361C366300000066668F
:10032000663E067C00007E4C18327E000E18187067
:1003300018180E000C0C0C000C0C0C007018180E89
:10034000181870003B6E0000000000001C36361CC0
:1003500000000000609090600000000022777F7F26
:100360003E1C08000000000000000000000000002B
:10037000000000000000000000000000000000007D
:10038000000000000000000007000F800F800F80B9
:100390000F800F8007000700000000000700070023
:1003A0000700000000000E380E380E380E380630F8
:1003B000000000000000000000000000000000003D
:1003C0000000000000000C300C300C307FFE7FFE7F
:1003D0000C300C300C300C307FFE7FFE0C300C30BB
:1003E0000C3000000000024002400FF81FF81A40D5
:1003F0001A401FF00FF8025802581FF81FF0024071
:10040000024000000000000000000E100E300E70D0
:1004100000E001C0038007000E700C70087000003F
:1004200000000000000000000F00198019801980F2
:100430000F000F080F9819F818F018E019F00F982E
:1004400000000000000000000700070007000E0089
:10045000000000000000000000000000000000009C
:10046000000000000000000000F001C00380070051
:100470000E000E000E000E000700038001C000F009
:1004800000000000000000000F00038001C000E039
:10049000007000700070007000E001C003800F0069
:1004A000000000000000000001801188099007E0B2
:1004B00007E03FFC3FFC07E007E00990118801805E
:1004C000000000000000000000000000018001802A
:1004D00001800FF00FF0018001800180000000001A
:1004E000000000000000000000000000000000000C
:1004F00000000000000000000000070007000700E7
:100500000E000000000000000000000000000000DD
:1005100000001FF81FF800000000000000000000AD
:1005200000000000000000000000000000000000CB
:1005300000000000000000000000070007000700A6
:10054000000000000000000000020006000E001C79
:100550000038007000E001C0038007000E001C009E
:1005600000000000000000000FF01C381C781CF890
:100570001CF81DB81DB81F381F381E381C380FF066
:1005800000000000000000000180018003801F8047
:100590001F800380038003800380038003801FF09B
:1005A00000000000000000000FE01C701C38003844
:1005B000007000E001C0038007000E381C381FF8EF
:1005C00000000000000000000FE01C701C38003824
:1005D000007003C003C0007000381C381C700FE0AE
:1005E000000000000000000000E001E003E006E081
:1005F0000CE018E01FF81FF800E000E000E003F84E
:1006000000000000000000001FF81C001C001C007F
:100610001C001FE01FF0007800381C381C700FE031
:10062000000000000000000003E007000E001C00B6
:100630001C001FF01FF81C381C381C381C380FF029
:1006400000000000000000001FFC1C1C1C1C1C1CE7
:10065000001C0038007000E001C0038003800380AC
:1006600000000000000000000FF01C381C381C388F
:100670001F3807E007E01CF81C381C381C380FF046
:1006800000000000000000000FF01C381C381C386F
:100690001C381FF80FF800380038007000E007C061
:1006A0000000000000000000000000000380038044
:1006B000038000000000038003800380000000002E
:1006C0000000000000000000000000000380038024
:1006D0000380000000000380038003800700000007
:1006E000000000000000007000E001C0038007006F
:1006F0000E001C001C000E000700038001C000E07B
:1007000000700000000000000000000000003FFC3E
:100710003FFC000000003FFC3FFC00000000000028
:100720000000000000001C000E000700038001C054
:1007300000E00070007000E001C0038007000E00C0
:100740001C000000000003C00FF01E7818380038AD
:10075000007000E001C001C00000000001C001C045
:1007600001C0000000000FF81C1C1C1C1C1C1C1CE1
:100770001CFC1CFC1CFC1CFC1C001C001C001FF0B6
:1007800007F800000000000003C007E00E701C38EE
:100790001C381C381C381FF81C381C381C381C38F6
:1007A00000000000000000001FF00E380E380E3868
:1007B0000E380FF00FF00E380E380E380E381FF0CE
:1007C000000000000000000007F00E381C381C007C
:1007D0001C001C001C001C001C001C380E3807F0FC
:1007E00000000000000000001FE00E700E380E3800
:1007F0000E380E380E380E380E380E380E701FE0D8
:1008000000000000000000001FF80E180E080E0087
:100810000E300FF00FF00E300E000E080E181FF8FD
:1008200000000000000000001FF80E180E080E0067
:100830000E300FF00FF00E300E000E000E001F00F5
:10084000000000000000000007F00E381C381C38C3
:100850001C001C001C001CF81C381C380E3807F843
:1008600000000000000000001C701C701C701C7058
:100870001C701FF01FF01C701C701C701C701C7012
:1008800000000000000000000FE0038003800380F0
:1008900003800380038003800380038003800FE0D4
:1008A000000000000000000001FC007000700070FB
:1008B00000700070007038703870387038700FE059
:1008C00000000000000000001E380E380E700EE020
:1008D0000FC00F800F800FC00EE00E700E381E3854
:1008E00000000000000000001F000E000E000E00BF
:1008F0000E000E000E000E000E080E180E381FF827
:1009000000000000000000001C1C1E3C1F7C1FFC9F
:100910001FFC1DDC1C9C1C1C1C1C1C1C1C1C1C1CF3
:1009200000000000000000001C1C1C1C1E1C1F1CE2
:100930001F9C1DDC1CFC1C7C1C3C1C1C1C1C1C1C53
:10094000000000000000000003E007F00E381C1C4F
:100950001C1C1C1C1C1C1C1C1C1C0E3807F003E05F
:1009600000000000000000001FF00E380E380E38A6
:100970000E380FF00FF00E000E000E000E001F00DC
:10098000000000000000000003E00F780E381C1C7F
:100990001C1C1C1C1C1C1C7C1CFC0FF80FF80038B9
:1009A00000FC0000000000001FF00E380E380E386A
:1009B0000E380FF00FF00E700E380E380E381E384D
:1009C00000000000000000000FF01C381C381C382C
:1009D0001C000FE007F000381C381C381C380FF0E2
:1009E00000000000000000001FFC19CC11C401C071
:1009F00001C001C001C001C001C001C001C007F0B9
:100A000000000000000000001C701C701C701C70B6
:100A10001C701C701C701C701C701C701C700FE013
:100A200000000000000000001C701C701C701C7096
:100A30001C701C701C701C701C700EE007C00380C2
:100A400000000000000000001C1C1C1C1C1C1C1CC6
:100A50001C1C1C9C1C9C1C9C0FF80FF8077007703A
:100A600000000000000000001C701C701C700EE0F4
:100A700007C00380038007C00EE01C701C701C7050
:100A800000000000000000001C701C701C701C7036
:100A90001C700EE007C003800380038003800FE01A
:100AA00000000000000000001FF81C38183810700B
:100AB00000E001C0038007000E081C181C381FF856
:100AC000000000000000000007F00700070007001A
:100AD000070007000700070007000700070007F0EE
:100AE0000000000000000000100018001C000E00B4
:100AF0000700038001C000E000700038001C000700
:100B0000000000000000000007F00070007000709E
:100B1000007000700070007000700070007007F0CE
:100B2000000000000000018003C007E00E701C38C8
:100B300000000000000000000000000000000000B5
:100B400000000000000000000000000000000000A5
:100B50000000000000000000000000000000000095
:100B60007FFF7FFF000000001C001C000700070043
:100B70000000000000000000000000000000000075
:100B80000000000000000000000000000000000065
:100B90000FE0007000700FF01C701C701C700FD8FC
:100BA00000000000000000001E000E000E000E00FD
:100BB0000FF00E380E380E380E380E380E381BF087
:100BC0000000000000000000000000000000000025
:100BD0000FE01C701C701C001C001C701C700FE0CF
:100BE000000000000000000000F8007000700070BD
:100BF0000FF01C701C701C701C701C701C700FD8C7
:100C000000000000000000000000000000000000E4
:100C10000FE01C701C701FF01C001C701C700FE09B
:100C2000000000000000000003E0077007700700EC
:100C300007001FE01FE007000700070007001FC0B4
:100C400000000000000000000000000000000000A4
:100C50000FD81C701C701C701C700FF007F0007017
:100C60001C700FE0000000001E000E000E000E00C1
:100C70000EF00F380F380E380E380E380E381E387A
:100C8000000000000000000001C001C001C0000021
:100C90000FC001C001C001C001C001C001C00FF8F8
:100CA00000000000000000000070007000700000F4
:100CB00003F00070007000700070007000701C7015
:100CC0000CF007E0000000001E000E000E000E00F9
:100CD0000E380E700EE00FC00EE00E700E381E388B
:100CE00000000000000000000FC001C001C001C0F2
:100CF00001C001C001C001C001C001C001C00FF8A6
:100D000000000000000000000000000000000000E3
:100D10001FF81C9C1C9C1C9C1C9C1C9C1C9C1C9CB4
:100D200000000000000000000000000000000000C3
:100D30001FE01C701C701C701C701C701C701C70E0
:100D400000000000000000000000000000000000A3
:100D50000FE01C701C701C701C701C701C700FE06D
:100D60000000000000000000000000000000000083
:100D70001BF00E380E380E380E380E380FF00E00FD
:100D80000E001F0000000000000000000000000036
:100D90001FB038E038E038E038E038E01FE000E02D
:100DA00000E001F000000000000000000000000072
:100DB0001EF00FF80F380E000E000E000E001F0080
:100DC0000000000000000000000000000000000023
:100DD0000FE01C301C300F8003E0187018700FE01B
:100DE00000000000000000000000010003000700F8
:100DF0001FF007000700070007000770077003E0F7
:100E000000000000000000000000000000000000E2
:100E10001C701C701C701C701C701C701C700FD817
:100E200000000000000000000000000000000000C2
:100E30001C701C701C701C701C700EE007C00380BE
:100E400000000000000000000000000000000000A2
:100E50001C1C1C1C1C1C1C9C1C9C0FF80770077085
:100E60000000000000000000000000000000000082
:100E70001CE01CE00FC0078007800FC01CE01CE0D6
:100E80000000000000000000000000000000000062
:100E90000E380E380E380E380E3807F003E000E03A
:100EA00001C01F80000000000000000000000000E2
:100EB0001FE018E011C0038007000E201C601FE037
:100EC000000000000000000001F8038003800380A0
:100ED00007001C001C00070003800380038001F84A
:100EE00000000000000001C001C001C001C001C03D
:100EF00001C001C001C001C001C001C001C001C0EA
:100F000001C00000000000001F8001C001C001C03E
:100F100000E00038003800E001C001C001C01F80BF
:100F200000000000000000001F1C3B9C39DC38F86A
:100F300000000000000000000000000000000000B1
:100F40000000000011241FBECFE5D8E0DEBFCDBFFA
:100F500010E0A0E6B0E0EEEEF0E202C005900D92E7
:100F6000A636B107D9F710E0A6E6B0E001C01D92A1
:100F7000A037B107E1F70E94D50A0C9475100C94C4
:100F8000000094989BBB85BB9598959A0895949A78
:100F90009BBB85BB9598959A08950F931F938B01E2
:100FA0000E94C107C8010E94C7071F910F910895B1
:100FB0000F931F938B010E94C107C8010E94C707AE
:100FC0001F910F910895CF92DF92EF92FF920F93AE
:100FD0001F938C016B017901742F60E0680F791FFA
:100FE00084E490E00E94CD0785E490E0B6010E9481
:100FF000CD0786E490E0B7010E94CD078EE490E033
:10100000B8010E94CD078FE490E0B6010E94CD07A1
:1010100082E290E00E94C1071F910F91FF90EF9034
:10102000DF90CF9008950F931F938C01979880E0E5
:1010300090E060E070E04FEE50E02FE331E00E947E
:10104000E307C8010E94C70780E090E09598959A51
:101050009598959A019626E981309207B9F7979A63
:101060001F910F910895AF92BF92CF92DF92EF92AE
:10107000FF920F931F93CF93DF935B01690122E0EF
:10108000E22EF12CE701C81BD90BC40FD51F97988E
:1010900096010E94E307C8010E94C70797012A1919
:1010A0003B092C0D3D1D04C09598959A0197E1F7D9
:1010B0002150304011F0CE01F9CF979ADF91CF91B6
:1010C0001F910F91FF90EF90DF90CF90BF90AF9066
:1010D00008952F923F924F925F926F927F928F92DC
:1010E0009F92AF92BF92CF92DF92EF92FF920F93B7
:1010F0001F933C012A01190168010894C108D10815
:101100004601860E971E940187010E943308510103
:10111000AC18BD08A601460D571DC301B4019501C9
:101120000E943308C2018C199D09B401A2019501E6
:101130000E943308C301B501A20191010E94330846
:101140001F910F91FF90EF90DF90CF90BF90AF90E5
:101150009F908F907F906F905F904F903F902F90D7
:1011600008950F931F93FC019B018A019798AF018B
:101170000E94E307C8010E94C707979A1F910F9129
:1011800008950F931F938FEF84BB8ABB85BB8BBBE6
:1011900081BB82BB88EE93E020E931E0F901319711
:1011A000F1F70197D9F79798939880E49CE9FC01AF
:1011B0003197F1F7939A0197F1F780E090E061E0C1
:1011C00070E00E94D80700E21EE4C8010197F1F721
:1011D00083E090E064EA78EA0E94D807C8010197AA
:1011E000F1F78CE090E060E070E00E94D807C80161
:1011F0000197F1F78DE090E06CE078E00E94D8076D
:10120000C8010197F1F78EE090E060E07BE20E9478
:10121000D807C8010197F1F78EE190E060EB70E02C
:101220000E94D807C8010197F1F781E090E06FE3D1
:101230007BE20E94D807C8010197F1F782E090E0B5
:1012400060E076E00E94D807C8010197F1F780E1DD
:1012500090E060E070E00E94D8078CE291E020E925
:1012600031E0F9013197F1F70197D9F781E190E089
:1012700060E778E60E94D80700E21EE4C801019703
:10128000F1F787E090E063E379E10E94D807C801B5
:101290000197F1F785E090E060E070E00E94D807E8
:1012A000C8010197F1F786E090E060E070E00E94ED
:1012B000D807C8010197F1F786E190E06CE17FEE75
:1012C0000E94D807C8010197F1F787E190E063E039
:1012D00070E00E94D807C8010197F1F78BE090E019
:1012E00060E070E00E94D807C8010197F1F78FE035
:1012F00090E060E070E00E94D807C8010197F1F724
:1013000081E490E060E070E00E94D807C801019796
:10131000F1F782E490E060E070E00E94D807C80135
:101320000197F1F788E490E060E070E00E94D80750
:10133000C8010197F1F789E490E06FE371E00E9442
:10134000D807C8010197F1F78BE490E060E070E006
:101350000E94D807C8010197F1F784E490E060E0AB
:101360007FEE0E94D807C8010197F1F785E490E06D
:1013700060E070E00E94D807C8010197F1F786E4A9
:1013800090E06FE371E00E94D807C8010197F1F780
:1013900080E390E067E077E00E94D807C8010197FA
:1013A000F1F781E390E064E072E00E94D807C801A1
:1013B0000197F1F782E390E064E072E00E94D807C1
:1013C000C8010197F1F783E390E062E075E00E94C5
:1013D000D807C8010197F1F784E390E067E075E072
:1013E0000E94D807C8010197F1F785E390E064E017
:1013F00072E00E94D807C8010197F1F786E390E0F8
:1014000064E072E00E94D807C8010197F1F787E312
:1014100090E062E075E00E94D807C8010197F1F7FB
:101420008AE390E062E073E00E94D807C801019768
:10143000F1F78BE390E062E073E00E94D807C80107
:101440000197F1F783E290E060E070E00E94D80736
:10145000C8010197F1F784E290E060E070E00E943B
:10146000D807C8010197F1F785E290E060E070E8E5
:101470000E94D807C8010197F1F78FE490E060E07F
:1014800070E00E94D8078EE490E060E070E00E9477
:10149000D80782E290E00E94C107979A1F910F91AE
:1014A00008952F923F924F925F926F927F928F9208
:1014B0009F92AF92BF92CF92DF92EF92FF920F93E3
:1014C0001F93CF93DF93FA01D90118012701460139
:1014D000960153E0369527955A95E1F7A901A49E08
:1014E0009001A59E300DB49E300D112470E0605225
:1014F0007040269F7001279FF00C369FF00C11243E
:10150000E80EF91E9798AF01415050404C0D5D1DFB
:101510009D01215030402A0D3B1DCF01BD010E948D
:10152000E307CC24DD24662440E8742E21C0CE01DC
:1015300087709070892B41F4F70184910894E11C25
:10154000F11C682E30E8732E872D862111F0C10121
:1015500001C0C2010E94C707769421960150104035
:101560000115110521F7C80CD91C0894A108B10870
:10157000A114B10419F08401E601F2CF979ADF912A
:10158000CF911F910F91FF90EF90DF90CF90BF9080
:10159000AF909F908F907F906F905F904F903F9013
:1015A0002F90089581E090E008956F927F928F923E
:1015B0009F92AF92BF92CF92DF92EF92FF920F93E2
:1015C0001F93DF93CF9300D000D0CDB7DEB70E943A
:1015D000C1080E94560D8FEF9FEF0E94130884E60A
:1015E00093E064E445E050E025E030E000E010E006
:1015F000EE24EA94FE2CB0E1CB2ED12CA0E1AA2E51
:10160000B12C0E94510A84E693E06AE746E150E07B
:1016100025E030E00E94510A84E693E069E647E263
:1016200050E025E030E00E94510A84E693E061E654
:1016300048E350E025E030E00E94510A84E693E060
:101640006CE649E450E025E030E00E94510A84E66F
:1016500093E061E64AE550E025E030E00E94510A5F
:1016600084E693E060E24BE650E025E030E00E9443
:10167000510A84E693E06CE44CE750E025E030E06A
:101680000E94510A84E693E063E44DE850E025E0CF
:1016900030E00E94510A84E693E064E44EE950E0B1
:1016A00025E030E00E94510A84E693E06BE34FEAC4
:1016B00050E025E030E00E94510A84E693E06FE6B6
:1016C00040EC50E025E030E00E94510A84E693E0CF
:1016D0006FE445E050E02EE130E00E94510A84E6DC
:1016E00093E063E746E150E02EE130E00E94510ACA
:1016F00084E693E06BE647E250E02EE130E00E94A2
:10170000510A84E693E065E748E350E02EE130E0DB
:101710000E94510A84E693E062E749E450E02EE13A
:1017200030E00E94510A84E693E067E74AE550E022
:101730002EE130E00E94510A84E693E065E64BE634
:1017400050E02EE130E00E94510A84E693E063E726
:101750004CE750E02EE130E00E94510A84E693E02D
:1017600069E74DE850E02EE130E00E94510A84E63E
:1017700093E06EE64EE950E02EE130E00E94510A1F
:1017800084E693E06AE34FEA50E02EE130E00E9405
:10179000510A84E693E064E440EC50E02EE130E04E
:1017A0000E94510AF3E06F2E712C6C0E7D1E4E01CB
:1017B0000894811C911C0E94820E8823E1F3C401CD
:1017C000B3010E948A0D49815A818FEF4F3F58071C
:1017D00091F32B813C81EFEF2F3F3E0761F34115E1
:1017E000510519F480E090E008C0CA0101974F3E0E
:1017F000510518F04FEE50E002C04F5F5F4F2115CA
:10180000310519F460E070E00AC0B9016150704020
:10181000E1E02F333E0718F02FE331E002C02F5FE5
:101820003F4F0DE310E00E94330889819A810397AE
:101830008935910508F0BFCF8B819C81833091055C
:1018400008F4B9CF489708F0B6CF8FEF9FEF0E940A
:10185000130882E090E062E070E04CE550E028E19F
:1018600030E002E010E0EE24FF240E94690884E6E4
:1018700093E063E445E050E025E030E000E010E074
:10188000EE24EA94FE2CE0E1CE2ED12C70E1A72EBE
:10189000B12C0E94510A84E693E06CE646E150E0E8
:1018A00025E030E00E94510A84E693E065E647E2D5
:1018B00050E025E030E00E94510A84E693E061E6C2
:1018C00048E350E025E030E00E94510A84E693E0CE
:1018D00062E749E450E025E030E00E94510A6BCF16
:1018E000CF93DF93979880E090E060E070E04FEE58
:1018F00050E02FE331E00E94E307C0E0D0E08FEF3B
:1019000090E00E94C70780E09FEF0E94C7072196E2
:1019100086E9C130D80799F7979A949ADF91CF91C9
:101920000895CF93DF93979880E090E060E070E0B7
:101930004FEE50E02FE331E00E94E307C0E0D0E03B
:1019400080E09FEF0E94C7078FEF90E00E94C707DB
:10195000219686E9C130D80799F7979A949ADF9132
:10196000CF91089597FD51C05A985C9A5C9896FD66
:1019700051C05A985C9A5C9895FD51C05A985C9AEF
:101980005C9894FD51C05A985C9A5C9893FD51C044
:101990005A985C9A5C9892FD51C05A985C9A5C98EF
:1019A00091FD51C05A985C9A5C9890FD51C05A982C
:1019B0005C9A5C9887FD51C05A985C9A5C9886FD49
:1019C00051C05A985C9A5C9885FD51C05A985C9AAF
:1019D0005C9884FD51C05A985C9A5C9883FD51C014
:1019E0005A985C9A5C9882FD51C05A985C9A5C98AF
:1019F00081FD51C05A985C9A5C9880FF51C05A9AF8
:101A00005C9A5C985B9A5B9808955A9A5C9A5C9889
:101A100096FFAFCF5A9A5C9A5C9895FFAFCF5A9ACF
:101A20005C9A5C9894FFAFCF5A9A5C9A5C9893FF4B
:101A3000AFCF5A9A5C9A5C9892FFAFCF5A9A5C9A51
:101A40005C9891FFAFCF5A9A5C9A5C9890FFAFCFA9
:101A50005A9A5C9A5C9887FFAFCF5A9A5C9A5C98C6
:101A600086FFAFCF5A9A5C9A5C9885FFAFCF5A9A9F
:101A70005C9A5C9884FFAFCF5A9A5C9A5C9883FF1B
:101A8000AFCF5A9A5C9A5C9882FFAFCF5A9A5C9A11
:101A90005C9881FFAFCF5A9A5C9A5C9880FDAFCF7B
:101AA0005A985C9A5C985B9A5B98089588B38360B7
:101AB00088BB87B3836087BB0895482FC09890E8A0
:101AC00020E030E0892F842311F0C19A01C0C19831
:101AD000C098000000000000C09A00000000000054
:101AE00096952F5F3F4F2830310561F7089520E02C
:101AF00030E08CE0C09A000000000000C0980000B8
:101B000000000000B3992160220F331F815091F72C
:101B1000C90108952F923F924F925F926F927F92E8
:101B20008F929F92AF92BF92CF92DF92EF92FF92ED
:101B30000F931F93CF93DF93EC011B01882499240B
:101B4000540144245524320110E00AE080E90E9447
:101B50005D0DC09A00000000C098000000000E94C7
:101B6000770D6C0180ED0E945D0DC09A00000000B1
:101B7000C098000000000E94770DC114D104F9F054
:101B80009C010097E1F080E1C8168FE1D806BCF413
:101B90009EE1263E39079CF4C601AA2797FDA09531
:101BA000BA2F480E591E6A1E7B1EC901AA2797FD2F
:101BB000A095BA2F880E991EAA1EBB1E1F5F01504A
:101BC00009F0C4CF112309F483C0E12EFF24E7FC00
:101BD000F0940F2D1F2DC501B401A80197010E949B
:101BE000C40E59016A01C301B201A80197010E9404
:101BF000C40E79018A0180E69EEFAFEFBFEFA80E19
:101C0000B91ECA1EDB1E8DE59DEFAFEFBFEFE80EDC
:101C1000F91E0A1F1B1FC601B50120EF30E040E08E
:101C200050E00E94A50E20E73DE140E050E00E9418
:101C3000C40ED22EC32EB42EA52EC801B70120E4A7
:101C400031E040E050E00E94A50E23E43CE140E09A
:101C500050E00E94C40EB901FA012D2D3C2D4B2DF0
:101C60005A2DC901DA015C016D0190EFA916B1048A
:101C7000C104D1042CF02FEEA22EB12CC12CD12CFA
:101C8000CB01DF019C01AD012034A1E03A07A0E0C7
:101C90004A07A0E05A0724F02FE331E040E050E08B
:101CA000D601C501D7FE04C080E090E0A0E0B0E01E
:101CB0009983888357FF04C020E030E040E050E083
:101CC00080E491E0821B930BF1019183808307C034
:101CD0008FEF9FEFD1018D939C9399838883DF9140
:101CE000CF911F910F91FF90EF90DF90CF90BF9019
:101CF000AF909F908F907F906F905F904F903F90AC
:101D00002F90089586B382958F7080958170089585
:101D10001F93182F8A3019F48DE00E94880E812FAE
:101D200090E01F91089580E090E0089588E89EE09B
:101D300063E97EE00E94010F909367008093660044
:101D400090936900809368000895629FD001739F0B
:101D5000F001829FE00DF11D649FE00DF11D929F47
:101D6000F00D839FF00D749FF00D659FF00D992786
:101D7000729FB00DE11DF91F639FB00DE11DF91FAA
:101D8000BD01CF011124089597FB092E05260ED021
:101D900057FD04D014D00AD0001C38F4509540955B
:101DA000309521953F4F4F4F5F4F0895F6F790952F
:101DB0008095709561957F4F8F4F9F4F0895A1E259
:101DC0001A2EAA1BBB1BFD010DC0AA1FBB1FEE1FB5
:101DD000FF1FA217B307E407F50720F0A21BB30B00
:101DE000E40BF50B661F771F881F991F1A9469F77C
:101DF00060957095809590959B01AC01BD01CF01D8
:101E000008950F931F93CF93DF938C01EB010097FD
:101E100031F46115710519F420E030E038C081E03B
:101E200090E06EE070E00E944D0FFC019C01009775
:101E300071F180E88383209771F0D387C28781E8AE
:101E400083838091660090916700892B21F4F09341
:101E50006700E093660001151105C9F0118700873E
:101E60008381826083838091680090916900892BCF
:101E700071F4F0936900E093680080916A0090919A
:101E80006B00892B21F4F0936B00E0936A00C90189
:101E9000DF91CF911F910F9108950F931F93CF93CF
:101EA000DF93689F8001699F100D789F100D1124AA
:101EB000C8010E94690FEC01009729F060E070E012
:101EC000A8010E946E10CE01DF91CF911F910F915A
:101ED0000895CF93DF93BC018230910510F462E046
:101EE00070E0A0916E00B0916F00ED01E0E0F0E0D5
:101EF00040E050E021C0888199818617970769F4F6
:101F00008A819B81309719F09383828304C09093D8
:101F10006F0080936E00FE0134C06817790738F4B3
:101F20004115510519F08417950708F4AC01FE011D
:101F30008A819B819C01E9012097E9F641155105B1
:101F4000A9F1CA01861B970B049708F4BA01E0E0D7
:101F5000F0E02AC08D919C91119784179507F9F4B0
:101F60006417750781F412968D919C9113973097A1
:101F700019F09383828304C090936F0080936E0066
:101F8000FD0132964FC0CA01861B970BFD01E80F79
:101F9000F91F6193719302978D939C9343C0FD0148
:101FA000828193819C01D9011097A1F680916C00E8
:101FB00090916D00892B41F48091620090916300B3
:101FC00090936D0080936C00409164005091650087
:101FD0004115510541F44DB75EB780916000909175
:101FE0006100481B590B20916C0030916D00241743
:101FF0003507B0F4CA01821B930B8617970780F050
:10200000AB014E5F5F4F8417950750F0420F531F8F
:1020100050936D0040936C00F9016193719302C07D
:10202000E0E0F0E0CF01DF91CF910895CF93DF930F
:10203000009709F450C0EC0122971B821A82A091EC
:102040006E00B0916F00109709F140E050E0AC17BE
:10205000BD0708F1BB83AA83FE0121913191E20FF4
:10206000F31FAE17BF0779F48D919C911197280F3C
:10207000391F2E5F3F4F3983288312968D919C9193
:1020800013979B838A834115510571F4D0936F0098
:10209000C0936E0020C012968D919C911397AD0154
:1020A000009711F0DC01D3CFFA01D383C2832191D1
:1020B0003191E20FF31FCE17DF0769F48881998110
:1020C000280F391F2E5F3F4FFA01318320838A8109
:1020D0009B8193838283DF91CF910895DC0101C0BE
:0E20E0006D9341505040E0F70895F894FFCF03
:0620EE002000700000005C
:00000001FF
