:100000000C94D3050C94F2050C94F2050C94F205B3
:100010000C94F2050C94F2050C94F2050C94F20584
:100020000C94F2050C94F2050C94F2050C94F20574
:100030000C94F2050C94F2050C94F2050C94F20564
:100040000C94F2050C94F2050C94F2050C94F20554
:100050000C94F2050C94F2050C94F2050C94F20544
:100060000C94F2050C94F2050C94F2050C94F20534
:100070000C94F2050C94F2050C94F2050C94F20524
:100080000C94F2050C94F2050C94F2050B1A0B1467
:100090000120FA05010307050A070103030505020C
:1000A000030103050505050505050505050102060E
:1000B0000506050A080607070606080701050705DD
:1000C00009070806080806070707090807070203C3
:1000D00002060702050504050503050501020501E1
:1000E00009050505050304030505090605050301C2
:1000F00003060700000000000000000000000000F0
:1001000000000000000000000000000000000000EF
:10011000000000000707070606090506070808098A
:1001200009070707090A0A06060607060807070659
:100130000608080806060607050705070807070951
:100140000606050505050507070707020400000068
:100150000000060306070707060605020608030552
:10016000030009070709080808060908070800002E
:100170000000000000000000000000F80B800300F9
:100180000000800300000100D200E0038013002083
:100190000D003E0038010067008808C0FF01880894
:1001A000007100700080080088080047000003000C
:1001B0000800600700890088080070000007008BB5
:1001C00000C808809400300600700000088003001A
:1001D000C00700830108208000023018007C001056
:1001E0000000050038000005001000000800800035
:1001F000003E008000000800002000800100010097
:1002000010000001008000000C003E001800007F7C
:100210000008088080000808007F0020000001001E
:10022000F80F000000000000C300080A809000885A
:10023000080087001006808000880880880070070A
:100240000018006001001100F80F001000E00680A7
:10025000850048088084008807007F008808808423
:10026000004808007900080080E000880180040050
:10027000380000770088088088008808007700F040
:10028000048090000809808800F0070082000020A8
:1002900000820180000014004001002200200200C2
:1002A0004100200100120020010012002001004145
:1002B0000020020022004001001400800000030022
:1002C000080080B0008800000700C007008201908D
:1002D00017008502282880C202E82B008102302402
:1002E000003C010008006000C0010013000801008C
:1002F0001700800300C000F80F80880088088088FD
:10030000008808007700E0030041000808808000B2
:100310000808004100200280FF00080880800008D3
:10032000088080001004003E00F80F8088008808D4
:100330008088008808808000F80F8008008800808E
:1003400008008800800000E0030041000808808069
:100350000088088088009008007A00F80F000800E4
:1003600080000008008000000800F80F80FF0000F7
:10037000060080000008008000F80780FF00800071
:10038000000C0020010021000804008000F80F008C
:1003900080000008008000000880FF001800000EA8
:1003A0000000070080000007000E00180080FF001A
:1003B000F80F00010060000008000003004000F892
:1003C0000F003E00100480800008088080000808AC
:1003D000004100E00380FF00880080080088008062
:1003E00008007000003E001004808000080880A013
:1003F00000080400C100E01380FF008800800800AE
:100400008800801800880200470000080067008804
:100410000880880088088088003007800000080075
:10042000800000F80F8000000800800000F8030042
:10043000400000080080000008004000F803800130
:1004400000E0000070000008007000E00080010083
:100450001800003E00000C0038006000003800006A
:100460000C003E0018008080001004002200C00133
:100470000014002002004100080880000010000065
:100480000600800F0006001000800000000C80A015
:100490000008098088004808808200180880FF034F
:1004A0000820800100E00300C000082080FF0380D6
:1004B0000000060018008001006000000800002015
:1004C0000000020020000002002000000200208046
:1004D00000001800004400200A009200200500FCE3
:1004E00000F80F0044002008008200C007007C00D4
:1004F00020080082004006007C00200800820040A6
:100500000480FF00C0070092002009009200C0058F
:10051000000200F00F800200C017008202202800B5
:100520004402E01F80FF004000000200200000FCA9
:1005300000E80F000002E81F80FF00000100380003
:100540004004008200F80F00FE004000000200207E
:100550000000FC002000000200200000FC00E00F72
:100560000004002000000200C00F007C00200800F2
:1005700082002008007C00E03F0044002008008248
:1005800000C007007C002008008200400400FE0339
:10059000E00F0002002000004C0020090092004003
:1005A00006000200F807008200E007008000000853
:1005B000004000E00F000600800700800080070078
:1005C00006006000003800000C003C002000003CE9
:1005D00000000C0038006000008200400400280089
:1005E00080030044002008000602802300C0018030
:1005F00003000600200C00A2002009008A00600809
:10060000001000F01E800002F83F800002F01E0083
:100610001000000100080080000010000001000828
:1006200000FF1F1000010110100001011010000157
:10063000FF1F000200B00F000500100000010010B5
:100640000000FE006000000B00500800F900600888
:10065000008000F00F000E005001000A001008009A
:10066000FD00200800FF00E00100F9005001000932
:1006700000100000FE00E00300F1009002001200F4
:10068000100000FE00E000001500900400A200D061
:100690000F0042000004008000F00F001000000274
:1006A0000042005008007E0020000011009002006F
:1006B00071001008007E002001002900900F004109
:1006C00000E00F00A0000004000600B0000085005C
:1006D000900F008600200800FD000800000E00506A
:1006E00001008A00D00F008300200800FD000800F0
:1006F000000200B00F00A500100400E100E00F00B0
:100700004000000800FF002000007B00500A00416C
:1007100000104800FE0A00C8008008F06F00400486
:1007200020AA007B0A5060000105108000FE07002F
:100730004400A20AF0E700050710C0000106E0FF30
:100740000002003041002B0A50C700850890E700E6
:100750000104E000001500A000000100D00F0032ED
:1007600000E000000100F00F003E00900C0035009A
:10077000A001004300100A00FE000004008000F009
:100780000F000200B00700A5001004000100E00FF8
:10079000004000F00F00A0000004003E00900C009C
:1007A00035009000000100E00F003E00900C003585
:1007B00000A000000100E00F007A00500A00410094
:1007C0001000000100E00F000200500000FE008059
:1007D00001000600100000FF002000008300F00F61
:1007E000008300D00F0001002000000500E00F0092
:1007F0004000000200FF00000A00400020000085C9
:1008000000E00F0080000008008000F00F000200F0
:10081000500800FE0000080080000008E0FF00E033
:100820000F0065002001001000000600FF00E00F2F
:1008300000650020010010000006E0FF002000001D
:100840000500E00F0078007000000C00000700FFBA
:10085000002000000500E00F0078007000000C0090
:100860000007E0FF00000400A200E0070005001000
:1008700000000100100000FE00200400A500E00FB1
:10088000004000000800FF00E00E00950020090075
:100890008000000800FF006000000500500400A573
:1008A0000090070001002000007A00500A0041007B
:1008B0001000000100E07F007D00500A0049001098
:1008C0000300FE00000400A200E007000500100085
:1008D000000100E07F0002001000004100100A004B
:1008E0007E00E00100F9005001000D00300000FF23
:1008F000001000000200500800FE00800800940074
:10090000800900FF008000007D00500A004500D0F3
:1009100000003500E00F0001002000000500E00F9E
:100920000060002001000D00A00F00020050000038
:10093000FE000007000800B000007300F00F000187
:1009400000A00F0095009008008100100800FE0034
:10095000200E00D500500A008500E00F0001006065
:1009600000000D00A000008400F007004200500AC3
:1009700000C600400800630002005000000600406E
:10098000000003000002001000000100100000FE43
:100990000022005001001200000100E00F60000082
:1009A0000500500000050050000006004000000651
:1009B0000050000005005000000600400000070045
:1009C0006000000500500000070060000005007096
:1009D0000000060050000005006000000700400015
:1009E00000070000000200E000000200E000000834
:1009F00000E080FF008808C0FF0188088088007040
:100A000007007F00000A004000F00700A00000047B
:100A1000007F00000A004000020030008002002831
:100A20000080FE0708A04000043000800600580047
:100A3000800200F07F00000A004080070080000074
:100A40000700080080FF0700A0000004000200105B
:100A5000000001001000000100E07F000E005001C6
:100A6000000A001040000104E03F780040020064EA
:100A70000040050066000000000300A000000D001B
:100A8000A00000080040000003006000000B0050C0
:100A9000000002009000000E004000000300200053
:100AA0000007002000002000000500280080000052
:100AB00004002000000500200000000000C003002A
:100AC0004200900900BD00D00B0099002004003CBA
:100AD0000000000070008008008800800800880086
:100AE00000070000000007008800800E00E800807A
:100AF0001600F000100000FF00800900AC00400963
:100B00000088004008008400C00F007000800A00C8
:100B10004800800000F0008000000800800F00788E
:100B200000400800A400400D00E4004008008200DE
:100B30001800007800400800A600500D00E60040B4
:100B4000080082001800000100E00400A800800CEA
:100B50000088000007007800400A00440080000080
:100B60008400C00F004000E0030001008007004443
:100B700000400E002400400600D400400E00030098
:100B8000800700A400400B006C00C001006800F06A
:100B900008000600D000000A008000008400F00772
:100BA000008000F0070011241FBECFEFD0E1DEBFB0
:100BB000CDBF11E0A0E0B1E0ECEBF2E200E00BBF52
:100BC00002C007900D92A830B107D9F711E0A8E054
:100BD000B1E001C01D92A531B107E1F70E94F40513
:100BE0000C945C110C9400008091640088608093E8
:100BF0006400809165008860809365000E94D30E38
:100C0000FFCF2F923F924F925F926F927F928F927F
:100C10009F92AF92BF92CF92DF92EF92FF920F938B
:100C20001F93DF93CF93CDB7DEB728970FB6F89415
:100C3000DEBF0FBECDBFE0910501F09106010115A9
:100C4000110511F48F01C7C02801480E591E1A0161
:100C5000201A310AC801860F971F9C838B83D90104
:100C6000A01BB10BBA83A98318870F8341E0842EA0
:100C7000912C801A910ABC01601B710B9D01200F01
:100C8000311FC201A1018F010E942710AA24BB2499
:100C9000E1E0F0E0FE83ED8330C02F81388526153A
:100CA000370509F1EB80FC80EA18FB08A201421B22
:100CB000530BC980DA80CA0CDB1C0091050110912E
:100CC0000601CA01B70196010E9427104F8158857D
:100CD000420D531D0091050110910601CA01B70193
:100CE00096010E9427100894A11CB11C8D819E8141
:100CF00001969E838D8378866F82AF81B885AA1610
:100D0000BB0601F1EB80FC80EA1AFB0AC980DA809D
:100D1000CA0EDB1E0091050110910601C2018A195D
:100D20009B09B701A20196010E942710A501420D5F
:100D3000531D0091050110910601C101B7019601F3
:100D40000E94271097FE0CC0E3E0F0E08E0E9F1E7D
:100D5000C501880F991F880E991E6F80788411C075
:100D600025E030E0820E931EC501AF81B8858A1B55
:100D70009B0B880F991F880E991E3D0108946108EE
:100D80007108ED81FE816E167F060CF086CF2F81F3
:100D900038852615370509F1EB80FC80EA18FB0839
:100DA000A201421B530BC980DA80CA0CDB1C0091E4
:100DB000050110910601CA01B70196010E94271092
:100DC0004F815885420D531D009105011091060178
:100DD000CA01B70196010E94271028960FB6F89411
:100DE000DEBF0FBECDBFCF91DF911F910F91FF905E
:100DF000EF90DF90CF90BF90AF909F908F907F90BB
:100E00006F905F904F903F902F9008952F923F9258
:100E10004F925F926F927F928F929F92AF92BF920A
:100E2000CF92DF92EF92FF920F931F93DF93CF93B6
:100E3000CDB7DEB72F970FB6F894DEBF0FBECDBF8C
:100E40009A8789877C876B872D876A01E1E0EE2E80
:100E5000F12CE41AF50A29853A853A8329833C83E3
:100E60002B831B012B0118861F8281E090E09E835B
:100E70008D83EB85FC85EC0DFD1DFF87EE87AB8434
:100E8000BC84AC18BD0869847A846C187D08898498
:100E90009A848C0C9D1CFD85FF2371F10091050146
:100EA0001091060189819A816E857F854B815C81D5
:100EB0009B010E9427100091050110910601898174
:100EC0009A81B5014B815C8195010E9427100091A8
:100ED000050110910601C301B101A40191010E9415
:100EE00027100091050110910601C301B201A40170
:100EF00092010E94271026C08B819C816E857F8580
:100F00000E941E10C401B1010E941E1089819A81A5
:100F10006E857F850E941E10C301B1010E941E10C4
:100F2000C401B2010E941E108B819C81B5010E94F8
:100F30001E1089819A81B5010E941E10C301B20161
:100F40000E941E10F7FE0DC023E030E0E20EF31EFB
:100F50008F819885880F991FE80EF91E8D819E81DB
:100F600011C085E090E0E80EF91E8F8198858C19FC
:100F70009D09880F991FE80EF91E8D819E810894A6
:100F8000C108D108EF81F8853196F887EF832D816C
:100F90003E812F5F3F4F3E832D83E981FA81319758
:100FA000FA83E9832B813C812F5F3F4F3C832B8366
:100FB0000894211C311C089441085108C816D90610
:100FC0000CF057CF2F960FB6F894DEBF0FBECDBFF3
:100FD000CF91DF911F910F91FF90EF90DF90CF9015
:100FE000BF90AF909F908F907F906F905F904F9049
:100FF0003F902F9008952F923F924F925F926F9261
:101000007F928F929F92AF92BF92CF92DF92EF9298
:10101000FF920F931F93DF93CF9300D000D000D0A7
:10102000CDB7DEB71A0129015801800F911F9C83AB
:101030008B83201A310A9B01200F311F3A832983A9
:10104000401A510A201B310B009105011091060135
:10105000B901A1010E94271092012A0D3B1D0091A8
:101060000501109106018B819C81B901A1010E94AB
:1010700027104B815C814A195B0900910501109191
:101080000601CA0169817A8192010E942710A1019B
:101090004A0D5B1D0091050110910601CA0169818D
:1010A0007A8192010E942710A114B10409F475C03D
:1010B00081E090E08A199B099E838D8366247724C2
:1010C000B1E08B2E912C2AC08114910409F18A146D
:1010D0009B04F1F00B811C810A191B09C980DA807D
:1010E000C818D908C801B6010E941E107401E40C8A
:1010F000F51CC801B7010E941E108501020D131DC9
:10110000C801B6010E941E10C801B7010E941E103E
:101110000894611C711C0894811C911CCB80DC809C
:10112000C618D70809811A810A191B09C601B80116
:101130000E941E107301E20CF31CC701B8010E944B
:101140001E108501040D151DC601B8010E941E1058
:10115000C701B8010E941E10ED81FE81F7FF09C092
:101160003396C301880F991FE80FF91FFE83ED83A3
:1011700010C02D813E812B5F3F4FC3018A199B090F
:10118000880F991F280F391F3E832D830894A108CB
:10119000B108A814B9040CF097CF26960FB6F894AE
:1011A000DEBF0FBECDBFCF91DF911F910F91FF909A
:1011B000EF90DF90CF90BF90AF909F908F907F90F7
:1011C0006F905F904F903F902F9008952F923F9295
:1011D0004F925F926F927F928F929F92AF92BF9247
:1011E000CF92DF92EF92FF920F931F93DF93CF93F3
:1011F000CDB7DEB72C970FB6F894DEBF0FBECDBFCC
:101200004C015B016A01C81AD90AD7FE04C0D09408
:10121000C194D108D394B9016A197B097C876B8783
:1012200077FF05C0709561957F4F7C876B879E82A5
:101230008D8215014815590528F081E090E09C83C6
:101240008B8304C0AFEFBFEFBC83AB832A153B0594
:1012500028F0E1E0F0E0FA83E98304C02FEF3FEFEC
:101260003A8329836B857C859B01442737FD409514
:10127000542FC601AA2797FDA095BA2FC616D706E8
:101280000CF443C079018A01EE0CFF1C001F111FF2
:10129000E81AF90A0A0B1B0BCB01880F991F9C0156
:1012A000442737FD4095542F2F83388749875A8725
:1012B0006C197D09660F771F2B01662457FC60941B
:1012C000762CAA24BB24C401B1010E941E1017FF72
:1012D00009C04F81588569857A85E40EF51E061F81
:1012E000171F08C0E40CF51C061D171D69817A81C3
:1012F000260E371E0894A11CB11C8B819C81880E80
:10130000991ECA14DB04FCF643C07C018D01EE0C6F
:10131000FF1C001F111FE21AF30A040B150BC60174
:10132000880F991F1C01442437FC4094542CAB8532
:10133000BC85CA1ADB0ACC0CDD1C3601882477FC7C
:101340008094982CCC24DD248D819E81B5010E944F
:101350001E1017FF05C0E20CF31C041D151D0CC068
:10136000E60CF71C081D191DED81FE812B813C81C7
:10137000E20FF31FFE83ED830894C11CD11C498149
:101380005A81A40EB51E6B857C856C157D05E4F62F
:101390002C960FB6F894DEBF0FBECDBFCF91DF9174
:1013A0001F910F91FF90EF90DF90CF90BF90AF9083
:1013B0009F908F907F906F905F904F903F902F9075
:1013C0000895FC0190931401809313013296849147
:1013D000809311013196E491E093120108958F9268
:1013E0009F92AF92BF92CF92DF92EF92FF920F93B4
:1013F0001F93CF93DF93DC014091130150911401AF
:101400004B5F5F4FFA01A4904F5F5F4FFA018490EA
:101410004650504090900B01B09011018091020114
:10142000C82FD0E08B2D90E0C89F6001C99FD00CE1
:10143000D89FD00C112480910401E82EFF2460E095
:1014400070E00A2D10E02CC0992021F09B012C0D9A
:101450003D1D22C0EA1598F08E1688F08E2F845D0F
:10146000873078F08351863060F0E13D51F0F0E054
:101470003796E01BF10BE40FF51F849103C08B2D11
:1014800001C080E090E08C9F90018D9F300D9C9F6B
:10149000300D1124260F371FB9016E0D7F1D1196D7
:1014A000EC91EE2389F6CB01DF91CF911F910F9143
:1014B000FF90EF90DF90CF90BF90AF909F908F9074
:1014C00008952091030180911201289F9001112419
:1014D000C90108952F923F924F925F926F927F922F
:1014E0008F929F92AF92BF92CF92DF92EF92FF9234
:1014F0000F931F93DF93CF93CDB7DEB727970FB628
:10150000F894DEBF0FBECDBF482F609113017091DC
:101510001401FB01259134916B5F7F4FFB01849196
:101520006F5F7F4FFB01F49066507040042F10E016
:10153000A82FB0E0F8013796EA1BFB0BE60FF71F68
:101540005491E0910501F0910601FD83EC834A304E
:10155000B1F48091030120911201829FC0011124F6
:1015600020910F0130911001280F391F3093100185
:1015700020930F0110920E0110920D0130C14817F7
:1015800008F42DC1F41608F42AC1232B09F427C14D
:10159000552309F424C180910B01882319F0409050
:1015A000110119C0842F845D873028F08351863063
:1015B00010F0413D79F420910201529F90011124D5
:1015C00080910D0190910E01821B930B90930E015F
:1015D00080930D01452E40534A3028F4FB01EA1B4D
:1015E000FB0BF7964490242D30E03B832A838091B7
:1015F000020190E0AC01249FC001259F900D349F13
:10160000900D112420910D0130910E01820F931F36
:10161000803F9105A8F08091030120911201829FE3
:10162000C001112420910F0130911001280F391FA2
:101630003093100120930F0110920E0110920D01B2
:1016400040E050E090E098012A1B3B0B07C0379622
:10165000E60FF71F8491480F511D9F5FE92FF0E0BF
:10166000E217F307A4F38091120190E0489F9001E4
:10167000499F300D589F300D11248F2D90E0079613
:101680008A1B9B0B53E0880F991F5A95E1F7280F8F
:10169000391F47E0742E722288249924552493E040
:1016A000369527959A95E1F7C90101969F838E8318
:1016B00072C097E0971520F40894811C911C772440
:1016C0008E819F81880D991DE0911301F091140185
:1016D000E80FF91FE491E98380910201589E6001AF
:1016E000112480910D0190910E01C80ED91E809198
:1016F0000301689E8001112480910F0190911001D7
:10170000080F191F81E0282E312C072C02C0220C53
:10171000331C0A94E2F7AA242DC0898190E082212B
:101720009321892B29F08091090190910A0108C029
:1017300080910C018823C1F08091000190910101FA
:101740009093060180930501809108016B2D70E054
:10175000882329F0CB01800F911FB70103C0600FD0
:10176000711FC7010E941E10B39480910301B81627
:10177000A0F2A39480910201A81628F4BB2476015C
:10178000EA0CF11CF2CF73946394809112016816F5
:1017900008F48FCF5394541410F46624F6CFEC81E0
:1017A000FD81F0930601E09305018091020190E034
:1017B0004A815B81489F9001499F300D589F300DB1
:1017C000112480910401280F311D80910D01909109
:1017D0000E01820F931F90930E0180930D012796A7
:1017E0000FB6F894DEBF0FBECDBFCF91DF911F9132
:1017F0000F91FF90EF90DF90CF90BF90AF909F90B0
:101800008F907F906F905F904F903F902F900895B2
:101810007F928F929F92AF92BF92CF92DF92EF9280
:10182000FF920F931F93DF93CF93CDB7DEB72B9724
:101830000FB6F894DEBF0FBECDBF962EA72EB82EE2
:10184000C92E722E802EE42EFF24FE01EE0DFF1D08
:101850001182D42E1FC08E010D0D111D692D7A2D00
:101860008B2D9C2D2AE030E040E050E00E942011BA
:10187000605DF8016083692D7A2D8B2D9C2D2AE007
:1018800030E040E050E00E942011922EA32EB42EB2
:10189000C52EDA94DD20F9F6282D30E0C9018370D9
:1018A0009070892B71F431C0A114B10419F080E259
:1018B0000E946A0AD3948D2D90E0801791079CF0C6
:1018C00024C04E010894811C911C61E0A62EB12C0D
:1018D000A222B3220894E108F1088701071911092F
:1018E0000894E11CF11CF401ED0DF11D80818033A1
:1018F000D9F20BC08E159F0519F48EE20E946A0A78
:10190000802F0E946A0AD39406C05E010894A11C2D
:10191000B11CE718F1088D2D90E0F501E80FF91FD3
:101920000081002339F72B960FB6F894DEBF0FBE67
:10193000CDBFCF91DF911F910F91FF90EF90DF907E
:10194000CF90BF90AF909F908F907F9008950F930E
:10195000362F542F022F90E0A0E0B0E0BC01CD0163
:10196000432F252F0E94080C0F9108950F93362FB7
:10197000542F022FA0E0B0E0BC01CD01432F252F52
:101980000E94080C0F910895CF93DF93EC0102C0E1
:101990000E946A0AFE01219684918823C9F7DF918B
:1019A000CF910895CF93DF93EC0102C00E946A0AA1
:1019B00089918823D9F7DF91CF9108958F929F92D3
:1019C000AF92BF92CF92DF92EF920F931F93CF937C
:1019D000DF935C014B01EA016901C8010E94EF0934
:1019E000409112012E2D30E02370307021303105EE
:1019F00021F02230310581F409C0CA19DB09C81B66
:101A0000D90BD695C795AC0EBD1E06C08C179D0789
:101A100018F45E01A81AB90AB0920E01A0920D0145
:101A2000C818D908C41AD108D694C794C80CD91CB0
:101A3000D0921001C0920F01C8010E94D20CDF9118
:101A4000CF911F910F91EF90DF90CF90BF90AF900B
:101A50009F908F9008952F923F925F926F927F9206
:101A60008F929F92AF92BF92CF92DF92EF92FF92AE
:101A70000F931F93CF93DF934C01EB016A01590140
:101A800018015E2C60900501709006012E2D30E04B
:101A9000E2FE4FC08E2D82958F70E82EFF24C90183
:101AA00088709070E114F10401F1892BC1F08091EC
:101AB00000019091010190930601809305016F5FF1
:101AC0007F4F41505040950121503040C401019654
:101AD00087010E9401067092060160920501C4010F
:101AE000BE01A6019501870121C0892BC9F0809113
:101AF00000019091010190930601809305016F5FB1
:101B00007F4F41505040950121503040C401019613
:101B100000E010E00E94010670920601609205014B
:101B2000C401BE01A601950100E010E00E94FB0780
:101B300014C0E3FE1EC080910001909101019093BA
:101B4000060180930501C401950100E010E00E94A8
:101B50000106709206016092050121960894C10861
:101B6000D1080894A108B10883E05822C401019665
:101B700003C083E05822C401BE01A6019501810182
:101B8000E52C0E94DE0CDF91CF911F910F91FF9009
:101B9000EF90DF90CF90BF90AF909F908F907F900D
:101BA0006F905F903F902F9008954F925F926F9249
:101BB0007F928F929F92AF92BF92CF92DF92EF92DD
:101BC0000F931F93DF93CF93CDB7DEB7C556D040A9
:101BD0000FB6F894DEBF0FBECDBF5C014B013A01DA
:101BE00029016801C80164E670E00E945111AC014E
:101BF0008E010F5F1F4FC801B6010E944211FE0106
:101C0000EB59FF4F1082C501B401A30192010E945C
:101C10002B0DCB59DF4F0FB6F894DEBF0FBECDBFF3
:101C2000CF91DF911F910F91EF90DF90CF90BF90F8
:101C3000AF909F908F907F906F905F904F9008959E
:101C40004F925F926F927F928F929F92AF92BF92CC
:101C5000CF92DF92EF920F931F93DF93CF93CDB785
:101C6000DEB7C556D0400FB6F894DEBF0FBECDBF6D
:101C70005C014B013A0129016801C80164E670E08A
:101C80000E945111AC018E010F5F1F4FC801B601B8
:101C90000E944211FE01EB59FF4F1082C501B401B1
:101CA000A30192010E94DE0CCB59DF4F0FB6F894CE
:101CB000DEBF0FBECDBFCF91DF911F910F91EF908F
:101CC000DF90CF90BF90AF909F908F907F906F905C
:101CD0005F904F9008950AC020E030E000002F5F31
:101CE0003F4F46E026363407C9F701970097A1F722
:101CF0000895C498C59815BA8BBBC698C69AC49A5D
:101D0000C59A0895C49895BB8BBBC698C69AC49AC9
:101D100008950F931F938B010E94790EC8010E94B2
:101D2000820E1F910F910895C498C59815BA8BBB68
:101D3000C698C69A1ABA14BAC798000023B3922F4D
:101D400080E029B3C79AC49A4FEF4ABB44BB30E046
:101D5000282B392BC90108950F931F93C49AC59A54
:101D6000C69AC79A05E610E0F80180818F7E8083CD
:101D7000BC9ABD9ABE9ABF9AE4E6F0E08081806189
:101D800080838FEF8ABB84BB8AE090E00E946B0E59
:101D9000F80180818061808382E390E00E946B0E75
:101DA0001F910F9108950E94AC0E80E00E94790E61
:101DB00081E090E00E94820E8FE090E00E946B0E26
:101DC00083E00E94790E8CEA9AEA0E94820E8CE0EF
:101DD0000E94790E82E090E00E94820E8DE00E94C7
:101DE000790E8AE090E00E94820E8EE00E94790EC9
:101DF00080E09CE20E94820E8EE10E94790E88EBC8
:101E000090E00E94820E8FE090E00E946B0E81E0D5
:101E10000E94790E8FE39BE20E94820E82E00E9474
:101E2000790E80E096E00E94820E80E10E94790E99
:101E300080E090E00E94820E81E10E94790E80E3B2
:101E400090E60E94820E8EE190E00E946B0E85E08B
:101E50000E94790E80E090E00E94820E86E00E944F
:101E6000790E80E090E00E94820E86E10E94790E59
:101E70008CE19FEE0E94820E87E10E94790E83E042
:101E800090E00E94820E87E00E94790E83E392E048
:101E90000E94820E8BE00E94790E82E193E50E94FF
:101EA000820E8FE00E94790E80E090E00E94820E08
:101EB00084E190E00E946B0E81E40E94790E80E044
:101EC00090E00E94820E82E40E94790E80E090E011
:101ED0000E94820E88E40E94790E80E090E00E94C9
:101EE000820E89E40E94790E8FE391E00E94820EB7
:101EF00084E40E94790E80E09FEE0E94820E85E4C9
:101F00000E94790E80E090E00E94820E86E40E949A
:101F1000790E8FE391E00E94820E84E190E00E94AE
:101F20006B0E80E30E94790E87E097E00E94820E9C
:101F300081E30E94790E84E097E00E94820E82E3A2
:101F40000E94790E84E092E00E94820E83E30E9458
:101F5000790E81E092E00E94820E84E30E94790E65
:101F600083E092E00E94820E85E30E94790E84E075
:101F700092E00E94820E86E30E94790E84E092E055
:101F80000E94820E87E30E94790E82E095E00E9413
:101F9000820E8AE30E94790E82E093E00E94820E14
:101FA0008BE30E94790E80E095E00E94820E84E12E
:101FB00090E00E946B0E08950F931F939C018B017C
:101FC0008EE4B9010E94890E8FE4B8010E94890E47
:101FD00082E20E94790E1F910F910895AF92BF92F5
:101FE000CF92DF92EF92FF921F937C016B01142F2F
:101FF000590184E40E94790E912F80E08E299F2957
:102000000E94820E85E40E94790EC6010E94820E13
:1020100086E40E94790EC5010E94820E81E090E064
:102020000E946B0EC701B6010E94DC0F1F91FF904A
:10203000EF90DF90CF90BF90AF9008950E94DC0F9B
:1020400080910501909106010E94820E0895AF9241
:10205000BF92CF92DF92EF92FF920F931F93CF9395
:10206000DF935C01F62EE72E6A01E9010E94EE0F74
:10207000C498C59A2F2D3E2DC901AC010BC015BBCC
:102080000BBBC698C69A2F5F3F4FC216D306B8F750
:102090004F5F5F4FC417D50710F09501F6CFC49A74
:1020A00080E090E060E070E04FEE50E02FE331E040
:1020B0000E94EE0FDF91CF911F910F91FF90EF9053
:1020C000DF90CF90BF90AF9008950F931F938C0136
:1020D00080E090E060E070E04FEE50E02FE331E010
:1020E0000E9427101F910F9108954F925F926F9257
:1020F0007F928F929F92AF92BF92CF92DF92EF9298
:10210000FF920F931F93CF93DF932A013901802E03
:10211000AC0141505040440D551D9B0121503040B1
:10212000260D371D0E94EE0F9924C0E0D0E0AA24AE
:10213000BB2432C0992019F597012F5F3F4FF7015B
:10214000949179010894E11CF11CF9012491F1E0CA
:102150008F1611F0822F0CC0822F806230E2932EF6
:10216000922225FF05C0F7010894E11CF11C949010
:10217000C82FD0E0192F00E0C02BD12B01C09A94BA
:10218000CE010E94820E0894C11CD11CC414D50437
:1021900088F20894A11CB11CA614B70418F4CC242E
:1021A000DD24F4CF80E090E060E070E04FEE50E09E
:1021B0002FE331E00E94EE0FDF91CF911F910F913D
:1021C000FF90EF90DF90CF90BF90AF909F908F9057
:1021D0007F906F905F904F900895EF92FF920F93D2
:1021E0001F93CF93DF939A014F5F5F4FF9010491E3
:1021F0009A012F5F3F4FFA01A4915A2F40E0E90165
:102200002196F901A4917E010894E11CF11CFE01C4
:102210001491312F20E0F7011491B0E04A2B5B2B91
:10222000E12FF0E02E2B3F2B0894E11CF11C0E94C3
:102230007510DF91CF911F910F91FF90EF9008954E
:10224000A1E21A2EAA1BBB1BFD010DC0AA1FBB1FBA
:10225000EE1FFF1FA217B307E407F50720F0A21B2C
:10226000B30BE40BF50B661F771F881F991F1A9499
:1022700069F760957095809590959B01AC01BD01C3
:10228000CF010895FB01DC014150504048F005901A
:102290000D920020C9F701C01D9241505040E0F757
:1022A0000895FC010590615070400110D8F78095A9
:0C22B00090958E0F9F1F0895F894FFCFAB
:0822BC00FFFF010101E0070032
:00000001FF
