:100000000C94AB000C94C8000C94C8000C94C8006D
:100010000C94C8000C94C8000C94C8000C94C80040
:100020000C94C8000C94C8000C94C8000C942903CC
:100030000C9452030C94C8000C94C8000C94C80093
:100040000C94C8000C94C8000C94C8000C94C80010
:100050000C94C8006E616E00696E660000407A10F4
:10006000F35A00A0724E18090010A5D4E80000E869
:100070007648170000E40B54020000CA9A3B0000C7
:1000800000E1F505000080969800000040420F0056
:100090000000A08601000000102700000000E80317
:1000A000000000006400000000000A0000000000E2
:1000B0000100000000002C76D888DC674F0823DFA1
:1000C000C1DFAE59E1B1B796E5E3E453C63AE65174
:1000D000997696E8E6C28426EB898C9B62ED407C9B
:1000E0006FFCEFBC9C9F40F2BAA56FA5F490055A37
:1000F0002AF75C936B6CF9676DC11BFCE0E40D475C
:10010000FEF520E6B500D0ED902E0300943577057E
:100110000080841E080000204E0A000000C80C3336
:100120003333330F986E12831141EF8D2114893BC5
:10013000E65516CFFEE6DB18D1844B381BF77C1D45
:10014000901DA4BBE424203284725E228100C9F198
:1001500024ECA1E53D2711241FBECFE5D4E0DEBF8E
:10016000CDBF10E0A0E6B0E0EAE2F6E102C0059003
:100170000D92A23BB107D9F720E0A2EBB0E001C09D
:100180001D92A13CB207E1F70E9483030C94130B6C
:100190000C94000011B880EC80B9089594EA96BFE1
:1001A00006B607FEFDCF91B1987F983011F09031DF
:1001B00079F483B984E886BF06B607FEFDCF91B116
:1001C000987F983139F081E0903429F480E00895E7
:1001D00081E0089580E0089524EA34E844E926BFE8
:1001E00006B607FEFDCF91B1987F983011F090319F
:1001F000B1F783B936BF06B607FEFDCF91B1987F40
:10020000903211F0983529F446BF06B604FCFDCFB4
:10021000E6CF08950E94CE00089584E986BF06B611
:1002200004FCFDCF089583B984E886BF06B607FEB7
:10023000FDCF91B1987F81E0983209F480E0089574
:1002400084E886BF06B607FEFDCF83B108950E94FD
:10025000CA0083E08A95F1F700008AE30E94EC006F
:1002600086E10E94130185E00E9413010E940D01A6
:1002700008958AE30E94EC008AE30E940A0189E063
:100280000E9413018BE30E940A010E94200180FF5B
:10029000F3CF08958F929F92AF92BF92CF92DF9249
:1002A000EF92FF920F931F93CF93DF937C018B010B
:1002B000EA010E9439018AE30E94EC0086E00E9474
:1002C00013018BE30E940A010E942001B82E8AE3E9
:1002D0000E940A0187E00E9413018BE30E940A0139
:1002E0000E942001C82E8AE30E940A0188E00E9431
:1002F00013018BE30E940A010E942001D82E0E9464
:100300000D016B2D772767FD7095872F972F0E9422
:10031000CB0420E030E04AE752E40E9461042DEC77
:100320003CEC4CE45DE30E94FC03F70160837183C5
:10033000828393836C2D772767FD7095872F972F86
:100340000E94CB0420E030E041E852E40E946104C6
:1003500029E23CE54FE85EE30E94FD03F80160837B
:100360007183828393836D2D772767FD7095872F27
:10037000972F0E94CB0420E030E04AE752E40E942D
:1003800061042AE037ED43E25DE30E94FC036883E9
:1003900079838A839B838091600081118FC020E0E4
:1003A00030E040E45FE36091BA007091BB0080915F
:1003B000BC009091BD000E9457054B015C0120E0FC
:1003C00030E040E85EE3F7016081718182819381D2
:1003D0000E9457059B01AC01C501B4010E94FD03B9
:1003E000F70160837183828393836093BA00709373
:1003F000BB008093BC009093BD0020E030E040E45F
:100400005FE36091B6007091B7008091B800909161
:10041000B9000E9457056B017C0120E030E040E804
:100420005EE3F80160817181828193810E945705AA
:100430009B01AC01C701B6010E94FD03F801608376
:100440007183828393836093B6007093B700809327
:10045000B8009093B90020E030E040E45FE36091A1
:10046000B2007091B3008091B4009091B5000E94E9
:1004700057056B017C0120E030E040E85EE36881D5
:1004800079818A819B810E9457059B01AC01C7013C
:10049000B6010E94FD03688379838A839B838881E8
:1004A0009981AA81BB818093B2009093B300A093FD
:1004B000B400B093B500109260001BC0F7018081BA
:1004C0009181A281B3818093BA009093BB00A093E5
:1004D000BC00B093BD00F80180819181A281B381FD
:1004E0008093B6009093B700A093B800B093B90082
:1004F000D6CFDF91CF911F910F91FF90EF90DF90BA
:10050000CF90BF90AF909F908F90089584B78068F0
:1005100084BF84B7806884BF84B7806884BF84B791
:10052000806884BF089510BC8CE089B9599A86E828
:1005300080BD88E98AB9089580916100882341F0DF
:10054000E2E6F0E081E090E0219121110AC002C0D2
:1005500080E090E0FC01EF59FF4F8AE08083118238
:1005600004C001968233910579F75D9BFECF10920E
:10057000C0001092BF00559A0895BC0181E690E03A
:100580000E944F0A0E949C02089583E886B987EC76
:1005900087B9D79808950F931F93CF93DF93CDB763
:1005A000DEB72A970FB6F894DEBF0FBECDBF198213
:1005B0001A821B821C82FE01359686E0DF011D92A5
:1005C0008A95E9F7369A349BFECF64B175B180E025
:1005D00090E00E94C9042FE832EC45E250E40E940A
:1005E000570520E030E040E85AE30E9457059B01A0
:1005F000AC010E94FD039F938F937F936F9383E9D8
:1006000090E09F938F938E010F5F1F4F1F930F9367
:100610000E94930AC8010E94BD02349A0FB6F89452
:10062000DEBF0FBECDBF2A960FB6F894DEBF0FBE59
:10063000CDBFDF91CF911F910F910895823319F0B3
:10064000863721F008958E9A969A08950E94CB02DB
:1006500008951F920F920FB60F9211242F933F937C
:100660004F935F936F937F938F939F93AF93BF93BA
:10067000EF93FF938CB18093BE008091BE000E94E7
:100680001E03FF91EF91BF91AF919F918F917F9149
:100690006F915F914F913F912F910F900FBE0F90EF
:1006A0001F9018951F920F920FB60F9211242F933F
:1006B0003F938F939F93EF93FF93E091BF00F0914F
:1006C000C000EF59FF4F8081882389F08091BF00DF
:1006D0009091C0009C012F5F3F4F3093C00020934A
:1006E000BF00FC01EF59FF4F80818CB901C05598C4
:1006F000FF91EF919F918F913F912F910F900FBE9E
:100700000F901F901895CF93DF93CDB7DEB76C97FE
:100710000FB6F894DEBF0FBECDBF0E9486020E94C6
:1007200093020E94C50278940E949C020E942701B5
:1007300019821A821B821C821D821E821F821886C9
:1007400019861A861B861C860F2EFAE7AF2EF02D0F
:100750000F2EF9E7BF2EF02D0F2EF8E7CF2EF02D3C
:100760000F2EFEE7DF2EF02D0F2EFAE9EF2EF0E030
:10077000FF2EF02D8E01035F1F4FAE01475F5F4FCD
:10078000BE016B5F7F4FCE0101960E944A018C85AE
:100790008F938B858F938A858F9389858F931F92F3
:1007A000AF9288858F938F818F938E818F938D8168
:1007B0008F931F92BF928C818F938B818F938A81AD
:1007C0008F9389818F931F92CF921F92DF92FF9216
:1007D000EF921F930F930E94930AC8010E94BD02DB
:1007E00087EA91E60197F1F700C000000FB6F89490
:1007F000DEBF0FBECDBFC1CF5058BB27AA270ED03A
:100800001CC10DD130F012D120F031F49F3F11F412
:100810001EF402C10EF4E095E7FBF8C0E92F1ED1EB
:1008200080F3BA17620773078407950718F071F40D
:100830009EF536C10EF4E0950B2EBA2FA02D0B01BC
:10084000B90190010C01CA01A0011124FF27591B15
:1008500099F0593F50F4503E68F11A16F040A22F1B
:10086000232F342F4427585FF3CF4695379527958C
:10087000A795F0405395C9F77EF41F16BA0B620B8B
:10088000730B840BBAF09150A1F0FF0FBB1F661FD2
:10089000771F881FC2F70EC0BA0F621F731F841F15
:1008A00048F4879577956795B795F7959E3F08F03B
:1008B000B3CF9395880F08F09927EE0F97958795FA
:1008C00008950CD0BAC0B2D040F0A9D030F021F4D5
:1008D0005F3F19F09BC05111E4C09EC0BFD098F398
:1008E0009923C9F35523B1F3951B550BBB27AA27B1
:1008F00062177307840738F09F5F5F4F220F331F23
:10090000441FAA1FA9F333D00E2E3AF0E0E830D0EE
:1009100091505040E695001CCAF729D0FE2F27D0F1
:10092000660F771F881FBB1F261737074807AB07BF
:10093000B0E809F0BB0B802DBF01FF2793585F4F34
:100940002AF09E3F510568F061C0ABC05F3FECF3F9
:10095000983EDCF3869577956795B795F7959F5FF9
:10096000C9F7880F911D9695879597F90895E1E04D
:10097000660F771F881FBB1F621773078407BA07AC
:1009800020F0621B730B840BBA0BEE1F88F7E09507
:100990000895E89409C097FB3EF490958095709572
:1009A00061957F4F8F4F9F4F9923A9F0F92F96E9BB
:1009B000BB279395F695879577956795B795F11130
:1009C000F8CFFAF4BB0F11F460FF1BC06F5F7F4FCD
:1009D0008F4F9F4F16C0882311F096E911C07723DF
:1009E00021F09EE8872F762F05C0662371F096E8E8
:1009F000862F70E060E02AF09A95660F771F881FB7
:100A0000DAF7880F9695879597F9089597F99F6774
:100A100080E870E060E008959FEF80EC0895002486
:100A20000A941616170618060906089500240A9453
:100A300012161306140605060895092E0394000CD9
:100A400011F4882352F0BB0F40F4BF2B11F460FF68
:100A500004C06F5F7F4F8F4F9F4F089557FD905891
:100A6000440F551F59F05F3F71F04795880F97FB72
:100A7000991F61F09F3F79F087950895121613062C
:100A80001406551FF2CF4695F1DF08C0161617065B
:100A90001806991FF1CF8695710561050894089590
:100AA000E894BB2766277727CB0197F908950BD0E9
:100AB000C4CFB5DF28F0BADF18F0952309F0A6CF30
:100AC000ABCF1124EECFCADFA0F3959FD1F3950FE2
:100AD00050E0551F629FF001729FBB27F00DB11DC2
:100AE000639FAA27F00DB11DAA1F649F6627B00D52
:100AF000A11D661F829F2227B00DA11D621F739F3B
:100B0000B00DA11D621F839FA00D611D221F749F48
:100B10003327A00D611D231F849F600D211D822F8F
:100B2000762F6A2F11249F5750408AF0E1F08823D6
:100B30004AF0EE0FFF1FBB1F661F771F881F9150E3
:100B40005040A9F79E3F510570F060CFAACF5F3F9C
:100B5000ECF3983EDCF3869577956795B795F79516
:100B6000E7959F5FC1F7FE2B880F911D969587959E
:100B700097F90895A3E1B0E0E0ECF5E00C943509B5
:100B80007C011B016A01FC0117821682838181FFAF
:100B900066C3BE016F5F7F4F4B01F7019381F10187
:100BA00093FD859193FF81911F01882309F453C31D
:100BB000853239F493FD859193FF81911F01853230
:100BC00039F4B70190E00E94610A56016501E5CF52
:100BD00010E0512C20E02032A0F48B3269F030F488
:100BE000803259F0833269F420612CC08D3239F0A3
:100BF000803339F4216026C02260246023C028603D
:100C000021C027FD27C030ED380F3A3078F426FF99
:100C100006C0FAE01F9F300D1124132F13C06AE0A5
:100C2000569E300D1124532E20620CC08E3221F4BA
:100C300026FD11C3206406C08C3611F4206802C062
:100C4000883641F4F10193FD859193FF81911F0155
:100C50008111C1CF9BEB980F933018F42061805E17
:100C600006C09BE9980F933008F0AAC12F7E26FF9B
:100C700016E02F73722E853621F4F22FF0647F2E4A
:100C800008C0863621F4622F6068762E02C01111EA
:100C9000115077FE07C01C3348F444244394410E9E
:100CA00027E00BC0183030F4212F06C027E04CE3BA
:100CB000442E03C027E017E0412C560174E0A70E34
:100CC000B11CF6016081718182819381042DA401A0
:100CD0000E946C096C01098100FF02C003FF06C07D
:100CE00071FC07C072FC08C0612C08C03DE2632E95
:100CF00005C02BE2622E02C090E2692E802F8C701C
:100D000099F1662011F084E001C083E0851510F0B0
:100D1000512C0BC0581A73FC08C0B70180E290E058
:100D20000E94610A5A94C9F7F3CF662029F0B701EF
:100D3000862D90E00E94610A03FD03C008E510E0E3
:100D400002C004E510E0F72DF0717F2EF8018491C8
:100D5000882309F476C271108052B70190E00E9496
:100D6000610A0F5F1F4FF2CF77FE0FC04C0C04FFDC
:100D700004C08A81813309F44A94141474F5F8E0AC
:100D8000F41578F588E0482E2CC076FC2AC0812F17
:100D900090E08C159D059CF06CEFC6166FEFD606A3
:100DA00074F0772D7068772E0AC0E2E0F0E0EC0F67
:100DB000FD1FE10FF11D8081803319F411501111D5
:100DC000F4CF77FE0EC044244394410E812F90E06F
:100DD000C816D9062CF41C1904C04424439401C03D
:100DE00010E077FE07C01C141D043CF496012F5F31
:100DF0003F4F05C025E030E002C021E030E0662032
:100E000011F02F5F3F4F112331F0412F50E04F5F22
:100E10005F4F240F351F452D50E02417350714F47C
:100E2000521A01C0512C872D897049F4552039F090
:100E3000B70180E290E00E94610A5A94F7CF6620E1
:100E400029F0B701862D90E00E94610A73FC09C069
:100E5000552039F0B70180E390E00E94610A5A946E
:100E6000F7CF77FE5FC09C2D8D2DD7FE02C090E09E
:100E700080E0692E782E40E050E0C6018419910987
:100E80009D878C87960126193709280D391D812FDA
:100E900090E0EE27FF27E81BF90BFF87EE87FFEFB7
:100EA0006F167F0669F4B7018EE290E02B8B3A8BC8
:100EB000488B598B0E94610A598948893A892B8944
:100EC000C614D70454F06C857D85661577052CF41F
:100ED000F901E40FF51F818101C080E371E0671A19
:100EE00071084F5F5F4FEE85FF856E167F066CF0D1
:100EF000B70190E02B8B3A8B488B598B0E94610A8B
:100F00002B893A8948895989CACF6C147D0439F4F0
:100F10009A81963318F4953311F404FF81E3B701F5
:100F200090E04BC08A81813309F00F7EB70190E0D9
:100F30000E94610A111105C074FE18C085E490E09A
:100F400017C0B7018EE290E00E94610A82E0662439
:100F50006394680EF401E80FF11D8081B70190E001
:100F60000E94610A115041F3862DF1CF85E690E091
:100F7000B7010E94610AD7FC05C0C114D10439F43D
:100F800004FF05C0D194C194D1088DE201C08BE269
:100F9000B70190E00E94610A80E36AE0C616D104BE
:100FA0002CF08F5FFAE0CF1AD108F7CFB70190E0AD
:100FB0000E94610AB701C601C0960E94610A41C140
:100FC000833631F0833779F0833509F058C021C07A
:100FD000560172E0A70EB11CF6018081898301E001
:100FE00010E0640114C05601F2E0AF0EB11CF6012E
:100FF000C080D18026FF03C0612F70E002C06FEF78
:101000007FEFC6012B8B0E94560A8C012B892F770C
:1010100015C05601F2E0AF0EB11CF601C080D180C0
:1010200026FF03C0612F70E002C06FEF7FEFC601A3
:101030002B8B0E94440A8C012B892068722E23FD81
:101040001AC0852D90E008171907A8F4B70180E2AF
:1010500090E00E94610A5A94F4CFF60177FC8591E2
:1010600077FE81916F01B70190E00E94610A5110F3
:101070005A94015011090115110579F7E2C084361F
:1010800011F0893651F5560127FF09C0F4E0AF0E83
:10109000B11CF60160817181828193810AC0F2E006
:1010A000AF0EB11CF60160817181882777FD8095B4
:1010B000982F022F0F7697FF08C090958095709516
:1010C00061957F4F8F4F9F4F00682AE030E0A40169
:1010D0000E94B50AC82EC8183EC0022F853721F4D9
:1010E0000F7E2AE030E01DC0097F8F3691F018F4A2
:1010F000883559F0B0C0803719F0883711F0ABC08F
:10110000006104FF09C0046007C024FF08C0066036
:1011100006C028E030E005C020E130E002C020E158
:1011200032E0560107FF09C0F4E0AF0EB11CF60132
:10113000608171818281938108C0F2E0AF0EB11CA1
:10114000F6016081718180E090E0A4010E94B50AFF
:10115000C82EC8180F7706FF0BC0202F2E7FC11690
:1011600050F404FF0AC002FD08C0202F2E7E05C0E7
:10117000DC2C202F03C0DC2C01C0D12E24FF0DC09D
:10118000FE01EC0DF11D8081803311F4297E09C030
:1011900022FF06C0D394D39404C0822F867809F02E
:1011A000D39423FD13C020FF06C01C2DD51418F4C2
:1011B000150D1D19D52CD51468F4B70180E290E007
:1011C0002B8B0E94610AD3942B89F5CFD51410F490
:1011D0005D1801C0512C24FF12C0B70180E390E0DC
:1011E0002B8B0E94610A2B8922FF17C021FF03C0AD
:1011F00088E590E002C088E790E0B7010CC0822F3C
:10120000867859F021FD02C080E201C08BE227FD03
:101210008DE2B70190E00E94610AC11638F4B7016F
:1012200080E390E00E94610A1150F7CFCA94F40164
:10123000EC0DF11D8081B70190E00E94610AC110A0
:10124000F5CF552009F4C2CCB70180E290E00E94AE
:10125000610A5A94F6CFF7018681978102C08FEF19
:101260009FEF6396E2E10C9451092F923F924F92C7
:101270005F926F927F928F929F92AF92BF92CF9226
:10128000DF92EF92FF920F931F93CF93DF93CDB72F
:10129000DEB7CA1BDB0B0FB6F894DEBF0FBECDBFA7
:1012A00009942A88398848885F846E847D848C8478
:1012B0009B84AA84B984C884DF80EE80FD800C8181
:1012C0001B81AA81B981CE0FD11D0FB6F894DEBF64
:1012D0000FBECDBFED010895283008F027E0332779
:1012E000DA01990F311D87FD916000966105710546
:1012F00039F432602E5F3D9330E32A95E1F708958B
:101300009F3F30F080387105610509F03C5F3C5F1C
:101310003D93913008F08068911DDF93CF931F9328
:101320000F93FF92EF92192F987F9695E92F96953C
:101330009695E90FFF27EA54FF4F99273327EE24AC
:10134000FF24A701E70105900894079428F4360FBD
:10135000E71EF81E491F511D660F771F881F991F32
:101360000694A1F70590079428F4E70EF81E491F8C
:10137000561FC11D770F881F991F661F0694A1F77E
:101380000590079428F4F80E491F561FC71FD11D5A
:10139000880F991F661F771F0694A1F70590079481
:1013A00020F4490F561FC71FD81F990F661F771FBC
:1013B000881F0694A9F784911095177041F0D6956F
:1013C000C79557954795F794E7941A95C1F7ECE5BB
:1013D000F0E068941590159135916591959105907F
:1013E0007FE27395E118F10A430B560BC90BD00944
:1013F000C0F7E10CF11E431F561FC91FD01D7EF41C
:10140000703311F48A95E6CFE894015030F0080F5C
:101410000AF40027021708F4202F2395022F7A33AD
:1014200028F079E37D932A95E9F710C07D932A95FA
:1014300089F6069497956795379517951794E1184F
:10144000F10A430B560BC90BD00998F023957E91F6
:1014500073957A3308F070E37C932013B8F77E918C
:1014600070617D9330F0839571E37D9370E32A95ED
:10147000E1F71124EF90FF900F911F91CF91DF9131
:10148000992787FD90950895FC0105906150704063
:101490000110D8F7809590958E0F9F1F0895FB013E
:1014A000DC0101900D920020E1F70895FC016150EC
:1014B000704001900110D8F7809590958E0F9F1F76
:1014C00008950F931F93CF93DF93182F092FEB01EC
:1014D0008B8181FD03C08FEF9FEF20C082FF10C082
:1014E0004E815F812C813D81421753077CF4E88156
:1014F000F9819F012F5F3F4F39832883108306C0F6
:10150000E885F985812F0995892B29F72E813F815F
:101510002F5F3F4F3F832E83812F902FDF91CF91FD
:101520001F910F910895AEE0B0E0E9E9FAE00C9464
:1015300043090D891E8986E08C831A8309838FEF06
:101540009FE79E838D83AE01475E5F4F6F89788DE5
:10155000CE0101960E94BA05EF81F885E00FF11FD8
:1015600010822E96E4E00C945F09FA01AA27283035
:1015700051F1203181F1E8946F936E7F6E5F7F4F60
:101580008F4F9F4FAF4FB1E03ED0B4E03CD0670FDC
:10159000781F891F9A1FA11D680F791F8A1F911D2F
:1015A000A11D6A0F711D811D911DA11D20D009F47F
:1015B00068943F912AE0269F11243019305D3193C1
:1015C000DEF6CF010895462F4770405D4193B3E0AA
:1015D0000FD0C9F7F6CF462F4F70405D4A3318F051
:1015E000495D31FD4052419302D0A9F7EACFB4E002
:1015F000A6959795879577956795BA95C9F70097BA
:101600006105710508959B01AC010A2E069457955A
:10161000479537952795BA95C9F7620F731F841FB1
:0A162000951FA01D0895F894FFCF58
:10162A000123436F6E6E65637465640000000000F9
:10163A0000000000000000000000000000000000A0
:10164A000000000000000000000000000000000090
:10165A000000005E25312E336600256325632530A0
:10166A002E3266256325302E3266256325302E32CA
:02167A00660008
:00000001FF
