S00C00006D61696E2E7372656373
S11300000C942A000C943F000C943F000C943F0085
S11300100C943F000C943F000C943F000C943F0060
S11300200C943F000C943F000C943F000C943F0050
S11300300C943F000C943F000C943F000C943F0040
S11300400C943F000C943F000C943F000C943F0030
S11300500C943F0011241FBECFE5D4E0DEBFCDBF1A
S113006010E0A0E6B0E0E0E9F2E002C005900D92F5
S1130070A036B107D9F70E9441000C9446010C94B4
S1130080000084B7806884BF84B7806884BF0E94FE
S1130090A70080E090E00E943601FFCF56E646E0DC
S11300A006C000002150310921153105D1F701970F
S11300B018F0252F342FF5CF0895DF98DC9888BBEE
S11300C015BADD98DD9ADF9A0895DF98DC9A88BB2B
S11300D095BBDD98DD9ADF9A0895CF93DF93EB010A
S11300E00E945D00CE010E946500DF91CF910895CA
S11300F0DF98DC9888BB15BADD98DD9A17BA14BA74
S1130100DE98000083B390E0982F882736B3DE9AF8
S1130110DF9A2FEF27BB24BB832B08958FEF85BB7A
S113012088BB87BB84BBDF9ADC9ADD9ADE9ADB98B6
S1130130D79AD49AD59AD69AD39A84E190E00E9419
S11301404E00DB9A84E190E00E944E0008950E94E4
S11301508E0080E00E9478002FEF27BB24BB88BB71
S113016095BBFFCFCF93DF93EB01BC018EE40E94DC
S11301706D00BE018FE40E946D0082E20E945D006A
S1130180DF91CF910895DF92EF92FF920F931F9327
S1130190CF93DF93EC018B01D42E790184E40E9488
S11301A05D0080E090E09D2D8C2B9D2B0E946500CE
S11301B085E40E945D00C8010E94650086E40E94F7
S11301C05D00C7010E946500B801CE010E94B20023
S11301D0DF91CF911F910F91FF90EF90DF900895E1
S11301E06F927F928F929F92AF92BF92CF92DF9243
S11301F0EF92FF920F931F93CF93DF935C016B01F8
S11302007A0149010E94C3008C149D04B0F06A2C49
S11302107B2C0DC0C8010E9465002196EC16FD06DA
S1130220C8F78FEFC81AD80A8C149D0430F0EA146A
S1130230FB04B8F3C62DD72DEDCF2FE331E04FEEFD
S113024050E060E070E080E090E00E94C300DF9145
S1130250CF911F910F91FF90EF90DF90CF90BF90BF
S1130260AF909F908F907F906F9008950F931F93FE
S11302708C012FE331E04FEE50E060E070E080E06D
S113028090E00E94F0001F910F910895F894FFCF21
S9030000FC
