:10000000D4EF09F00000000000EF00F00000000055
:0A0010000000000000000000F3D71C
:10001C0089848988B0C000F0016A00C08CFFAFC031
:08002C008AFF8992898212000B
:1000340089848998B0C000F0016A00C08CFFAFC009
:080044008AFF899289821200F3
:10004C00ABC0AFF0ACC0B0F0EFDFADC0AFF0AEC046
:06005C00B0F0DEDF12002F
:10006200440E0001AB6F000EAC6FA7C0AEF0AD6BDB
:10007200A351AD27A451AE23E8DF450EAB6F000EAE
:10008200AC6FA5C0ADF0A6C0AEF0DFDF460EAB6F21
:10009200000EAC6FA9C0ADF0AAC0AEF0D6DF4E0E16
:1000A200AB6F000EAC6FA3C0ADF0A4C0AEF0CDDF5D
:1000B2004F0EAB6F000EAC6FA5C0ADF0A6C0AEF098
:0E00C200C4DF220EAF6F000EB06FB3DF12006E
:1000D0000B840BAE73EF00F0010E036E026A016A2F
:0A00E000006A0A360232FF0E120019
:0E00EA00026A016A006A086A036A000E1200C8
:0800F8000AAE029E000E120088
:100100000A6A0350D8A40A800750D8A40A820A5069
:10011000D8B4E3EF00F0030AD8B49CEF00F00AB0C3
:1001200097EF00F006AEE1EF00F0DFEF00F002AE77
:10013000DFEF00F0E1EF00F00250800B0A6E029E4C
:100140000650800B069E0A18D8B4ADEF00F00A5096
:10015000D8B4DFEF00F0E1EF00F00750035CD8B453
:10016000B7EF00F0D8A0D3EF00F0D9EF00F00650C1
:10017000025CD8B4C1EF00F0D8A0D3EF00F0D9EF03
:1001800000F00550015CD8B4CBEF00F0D8A0D3EF5D
:1001900000F0D9EF00F00450005CD8B4E3EF00F0B9
:1001A000D8B0D9EF00F00A52D8B4E1EF00F0DFEF99
:1001B00000F00A52D8B4DFEF00F0E1EF00F0D88091
:0E01C0001200D8901200D880D88412001200CD
:1001CE000B800BAEF3EF00F0026A0AAEFF0E026E6A
:0C01DE00016E006E0A360232FF0E1200A5
:1001EA00899695C0A3F096C0A4F097C0A5F098C0D0
:1001FA00A6F099C0A7F09AC0A8F09BC0A9F09CC02D
:10020A00AAF02ADF9DC0AFF09EC0B0F002DF97C00F
:10021A009FF098C0A0F0A0519C5D02E19F519B5DA8
:10022A0012E395C0A1F096C0A2F0A2519A5D02E134
:10023A00A151995D05E389928982A14BA22BF5D739
:0A024A009F4BA02BE8D78986120015
:100254000C6A0E6A0250D8A443EF01F001C002F008
:1002640000C001F0006A0E860250D8A443EF01F0EA
:1002740001C002F0016A0E960E880250D8B455EF00
:1002840001F00E50035ED8A4D8A05AEF01F0D89024
:1002940002BE5FEF01F0003601360236032E4AEF4C
:1002A40001F05AEF01F0010E0C6E1DDF62EF01F058
:1002B400020E0C6E0BDF62EF01F0040E0C6E1ADFFF
:0202C400120026
:1002C600899656C0A3F057C0A4F058C0A5F059C0EF
:1002D600A6F056C0A7F057C0A8F058C0A9F059C05C
:1002E600AAF0BCDE5AC0AFF05BC0B0F094DE8986DF
:0202F6001200F4
:1002F80056C095F0000E0001966F58C097F059C08F
:1003080098F057C099F0000E9A6F010E58249B6F11
:10031800000E59209C6F5AC09DF05BC09EF061DFB3
:020328001200C1
:10032A005AC095F0000E0001966F56C097F057C05C
:10033A0098F05A50010F996F9A6B000E9A2358C081
:10034A009BF059C09CF05BC09DF05CC09EF048DFFA
:02035A0012008F
:10035C00046A056A066A076A56C000F057C001F0C5
:10036C0058C002F059C003F0C5DE010ED8B0000E23
:10037C00006E00520DE0000E5618006E000E57185D
:10038C00016E800E5818026E000E5918036E08D0BC
:10039C0056C000F057C001F058C002F059C003F02D
:0203AC0012003D
:1003AE000050086E0150006E016A026A036A0B6A01
:1003BE000C6A960E036E0A6A00C001F008C000F0C7
:0803CE00086A026A40DF120018
:1003D60056C002F057C003F002C000F003C001F09F
:1003E600024A032A00C0E9FF01C0EAFFEE5201E01B
:1003F600F3D75650025C006E57500358016E010E3B
:08040600005E000E015A120015
:10040E000B6A0350D8B44DEF02F002500A6E028E02
:10041E008E0E035E03AE51EF02F0036C080E035C0A
:10042E00D8A02CEF02F0036E013602C001F0026A72
:10043E00080E035CD8A02CEF02F0036E0136016AA1
:10044E000350D8A4D89036EF02F00350D8B436EF4C
:10045E0002F0D89002320132032E30EF02F00BBCC4
:10046E0001A043EF02F0D8A043EF02F0012AD8B466
:10047E00022A02BE60EF02F00AAE65EF02F0021E23
:10048E00011E012AD8B4022A65EF02F0026A016A3F
:10049E0065EF02F00B800BAE69EF02F0026A0AAE56
:1004AE0069EF02F0FF0E026E016E0A36023269EF3C
:1004BE0002F0010E0C6E84DE6BEF02F0000E0C6E7D
:1004CE006BEF02F0FF0E0C6E0150006E0250016ECB
:0204DE0012000A
:1004E0005B50080AD8A4B6D0A00E0001616F3D0E83
:1004F000626F000E636F200E565C036E046A000E7E
:10050000045A030E026E03C000F004C001F0025052
:1005100005E0003600900136FF0FFAD700010050C9
:10052000612701506223000E6323606B605107084E
:1005300021E360C000F0000E016E0036009001362D
:10054000640E0024E16E000E0120E26E61C0F6FF31
:1005500062C0F7FF63C0F8FF0900F5CF00F000C0EC
:10056000E6FF000EE66E010E6127000E6223632394
:10057000602BDCD7899657C0A3F058C0A4F059C0AF
:10058000A5F05AC0A6F0070E5724A76F000E5820FA
:10059000A86F070E5924A96F000E5A20AA6F61DDBB
:1005A000946B9451070854E3606B605107084EE365
:1005B00094C000F0000E016E003600900136640E0B
:1005C0000024E96E000E0120EA6E800EEE14026E29
:1005D000070E006E02C001F0005004E00132019EDF
:1005E000FF0FFBD70150010A06E15CC0AFF05DC010
:1005F000B0F014DD05D05EC0AFF05FC0B0F00EDD2E
:1006000094C000F0000E016E003600900136640EBA
:100610000024056E000E0120066E05C0E9FF06C02D
:10062000EAFFEECF03F0EECF04F003C000F004C009
:1006300001F000360090013605C0E1FF06C0E2FF80
:1006400000C0E6FF01C0E6FF602BAFD7942BA9D70F
:10065000898614D15B50100AD8A410D10001C00EB5
:10066000616F310E626F000E636F200E565C036E79
:10067000046A000E045A050E026E03C000F004C0A6
:1006800001F0025005E0003600900136FF0FFAD766
:1006900000010050612701506223000E6323606B4C
:1006A00060510F0872E360C000F0000E016E00366A
:1006B00000900136740E0024E16E000E0120E26EFF
:1006C00061C0F6FF62C0F7FF63C0F8FF0900F5CF15
:1006D00000F000C0E6FF000EE66E010E6127000E7E
:1006E0006223632360C000F0000E016E00360090AC
:1006F0000136740E0024056E000E0120066E05C042
:10070000E9FF06C0EAFFEECF03F0EECF04F003C02E
:1007100001F0006A05C0E1FF06C0E2FF00C0E6FF8D
:1007200001C0E6FF60C000F0000E016E00360090D0
:100730000136740E0024046E000E0120056E04C004
:10074000E9FF05C0EAFFEECF02F0EECF03F061C093
:10075000F6FF62C0F7FF63C0F8FF0900F5CF00F0B5
:10076000000E016E025000260350012204C0E1FF7A
:1007700005C0E2FF00C0E6FF01C0E6FF010E6127F1
:10078000000E62236323602B8BD7899657C0A3F09A
:1007900058C0A4F059C0A5F05AC0A6F00F0E5724B7
:1007A000A76F000E5820A86F0F0E5924A96F000ED6
:1007B0005A20AA6F56DC946B94510F085EE3606B6D
:1007C00060510F0858E394C000F0000E016E00362F
:1007D00000900136740E0024E96E000E0120EA6ECE
:1007E000000EEE14036EEE50800B046E0F0E006EC2
:1007F00003C001F004C002F0005005E002320132F3
:10080000029EFF0FFAD7000E021802E1010E011836
:1008100006E15CC0AFF05DC0B0F000DC06D05EC0A9
:10082000AFF05FC0B0F00EEC00F094C000F0000E2E
:10083000016E003600900136740E0024056E000E25
:100840000120066E05C0E9FF06C0EAFFEECF03F007
:10085000EECF04F003C000F004C001F000360090B9
:10086000013605C0E1FF06C0E2FF00C0E6FF01C09F
:0E087000E6FF602BA5D7942B9FD78986120038
:10087E0089960001A36BA46BA56BA66BEF0EA76FF9
:10088E00000EA86F3F0EA96F010EAA6F31EC00F09B
:10089E002FC0AFF030C0B0F00EEC00F0316A326A0B
:1008AE003250010802E131503F0812E3336A346AD4
:1008BE00000E006E3450005C02E13350EF0805E389
:1008CE0089928982334A342AF3D7314A322AE8D7B9
:0408DE0089861200F5
:1008E2002FC056F030C057F075DD00C03AF001C09D
:1008F2003BF03C6A3D6A010E3A5C016E000E3B58C9
:10090200026E800E0218006E800E3D18005C02E13D
:100912003C50015C11E33E0E3C24E16E000E3D2092
:10092200E26E3C502F24E96E3D503020EA6EEECF4D
:10093200E6FF3C4A3D2ADFD73550080A35E13C6ADA
:100942003D6A010E3A5C016E000E3B58026E800E4B
:100952000218006E800E3D18005C02E13C50015C02
:1009620022E33E0E3C24E96E000E3D20EA6EEECFFD
:1009720056F031C057F032C058F033C059F034C08D
:100982005AF035C05BF036C05CF037C05DF038C05D
:100992005EF039C05FF0A3DD080E3126000E322270
:1009A2003C4A3D2ACED737D03550100A34E13C6A52
:1009B2003D6A010E3A5C016E000E3B58026E800EDB
:1009C2000218006E800E3D18005C02E13C50015C92
:1009D20022E33E0E3C24E96E000E3D20EA6EEECF8D
:1009E20056F031C057F032C058F033C059F034C01D
:1009F2005AF035C05BF036C05CF037C05DF038C0ED
:100A02005EF039C05FF06BDD100E3126000E32222F
:080A12003C4A3D2ACED7120038
:100A1A000900F5CFE6FF0006FBE10106F9E1120045
:100A2A008984898A0D0E0C6EFB0E0D6E0D2EFED773
:100A3A000C2EFCD700000000899A270E0C6EF50ECA
:100A4A000D6E0D2EFED70C2EFCD7898A270E0C6E42
:100A5A00F50E0D6E0D2EFED70C2EFCD789960001D1
:100A6A00AB6BAC6B010EAD6F000EAE6F26EC00F0F7
:100A7A00030EAB6F000EAC6FA40EAD6FA80EAE6F77
:100A8A0026EC00F00C0EAB6F000EAC6FAD6BAE6BCC
:100A9A0026EC00F00D0EAB6F000EAC6F0C0EAD6FB6
:100AAA00800EAE6F26EC00F00E0EAB6F000EAC6F30
:100ABA00000EAD6F2B0EAE6F26EC00F01E0EAB6F64
:100ACA00000EAC6FB70EAD6F000EAE6F26EC00F0E5
:100ADA00010EAB6F000EAC6F3F0EAD6F2B0EAE6FFB
:100AEA0026EC00F0020EAB6F000EAC6F000EAD6F7D
:100AFA00060EAE6F26EC00F0100EAB6F000EAC6F58
:100B0A00AD6BAE6B26EC00F0110EAB6F000EAC6F46
:100B1A00700EAD6F600EAE6F26EC00F0050EAB6F77
:100B2A00000EAC6FAD6BAE6B26EC00F0060EAB6F31
:100B3A00000EAC6FAD6BAE6B26EC00F0160EAB6F11
:100B4A00000EAC6F1C0EAD6FEF0EAE6F26EC00F010
:100B5A00170EAB6F000EAC6F030EAD6F000EAE6FCB
:100B6A0026EC00F0070EAB6F000EAC6F330EAD6FC4
:100B7A00020EAE6F26EC00F00B0EAB6F000EAC6FE0
:100B8A00AD6BAE6B26EC00F00F0EAB6F000EAC6FC8
:100B9A00AD6BAE6B26EC00F0410EAB6F000EAC6F86
:100BAA00AD6BAE6B26EC00F0420EAB6F000EAC6F75
:100BBA00AD6BAE6B26EC00F0480EAB6F000EAC6F5F
:100BCA00AD6BAE6B26EC00F0490EAB6F000EAC6F4E
:100BDA003F0EAD6F010EAE6F26EC00F04A0EAB6F02
:100BEA00000EAC6FAD6BAE6B26EC00F04B0EAB6F2C
:100BFA00000EAC6FAD6BAE6B26EC00F0440EAB6F23
:100C0A00000EAC6F950EAD6FEF0EAE6F26EC00F0D6
:100C1A00450EAB6F000EAC6FAD6BAE6B26EC00F001
:100C2A00460EAB6F000EAC6F3F0EAD6F010EAE6F8E
:100C3A0026EC00F0300EAB6F000EAC6F070EAD6FF6
:100C4A00070EAE6F26EC00F0310EAB6F000EAC6FE4
:100C5A00040EAD6F020EAE6F26EC00F0320EAB6FD3
:100C6A00000EAC6F040EAD6F020EAE6F26EC00F0F4
:100C7A00330EAB6F000EAC6F020EAD6F050EAE6F8A
:100C8A0026EC00F0340EAB6F000EAC6F070EAD6FA2
:100C9A00050EAE6F26EC00F0350EAB6F000EAC6F92
:100CAA00040EAD6F020EAE6F26EC00F0360EAB6F7F
:100CBA00000EAC6F040EAD6F020EAE6F26EC00F0A4
:100CCA00370EAB6F000EAC6F020EAD6F050EAE6F36
:100CDA0026EC00F03A0EAB6F000EAC6F020EAD6F51
:100CEA00030EAE6F26EC00F03B0EAB6F000EAC6F3E
:100CFA00020EAD6F030EAE6F26EC00F0230EAB6F43
:100D0A00000EAC6FAD6BAE6B26EC00F0240EAB6F31
:100D1A00000EAC6FAD6BAE6B26EC00F0250EAB6F20
:100D2A00000EAC6F000EAD6F800EAE6F26EC00F0B9
:100D3A004F0EAB6F000EAC6FAD6BAE6B26EC00F0D6
:100D4A004E0EAB6F000EAC6FAD6BAE6B26EC00F0C7
:100D5A00220EAF6F000EB06F1AEC00F089861200F7
:100D6A002F50335C006E30503458016ED7EC01F0CE
:100D7A0000C056F001C057F002C058F003C059F045
:100D8A00AEEC01F007EC02F000C041F001C042F005
:100D9A003150355C006E32503658016ED7EC01F096
:100DAA0000C056F001C057F002C058F003C059F015
:100DBA00AEEC01F007EC02F000C043F001C044F0D1
:100DCA002FC039F030C03AF031C03BF032C03CF0AD
:100DDA003050345C02E12F50335C05E2FF0E3D6E69
:100DEA00FF0E3E6E04D0010E3D6E000E3E6E325076
:100DFA00365C02E13150355C05E2FF0E3F6EFF0EB4
:100E0A00406E04D0010E3F6E000E406E800E4218F6
:100E1A00006E800E4418005C02E14350415CD8A089
:100E2A0083D043C045F044C046F045364590463627
:100E3A00000E46BEFF0E476E486E4150455E425058
:100E4A00465A000E46BEFF0E476E486E010E496EA8
:100E5A00000E4A6E010E4124016E000E4220026EFF
:100E6A004A50025C02E14950015C5DE339C056F028
:100E7A003AC057F03BC058F03CC059F037C05AF05E
:100E8A0038C05BF063EC01F0800E4818006E800EEB
:100E9A00005C08E1000E475C05E1000E465C02E1D9
:100EAA00000E455C15E243C000F044C001F0003674
:100EBA00009001360050452601504622000E01BE20
:100ECA00FF0E472248223D5039263E503A2228D06A
:100EDA0043C000F044C001F00036009001360050D3
:100EEA00452601504622000E01BEFF0E4722482227
:100EFA0041C000F042C001F00036009001360050B7
:100F0A00455E0150465A000E01BEFF0E475A485A26
:100F1A003D5039263E503A223F503B2640503C2213
:100F2A00494A4A2A97D782D041C045F042C046F082
:100F3A00453645904636000E46BEFF0E476E486E51
:100F4A004350455E4450465A000E46BEFF0E476E59
:100F5A00486E010E496E000E4A6E010E4324016E60
:100F6A00000E4420026E4A50025C02E14950015CC4
:100F7A005DE339C056F03AC057F03BC058F03CC068
:100F8A0059F037C05AF038C05BF063EC01F0800EBC
:100F9A004818006E800E005C08E1000E475C05E10F
:100FAA00000E465C02E1000E455C15E241C000F00D
:100FBA0042C001F00036009001360050452601502B
:100FCA004622000E01BEFF0E472248223F503B2612
:100FDA0040503C2228D041C000F042C001F0003607
:100FEA00009001360050452601504622000E01BEEF
:100FFA00FF0E4722482243C000F044C001F00036E9
:10100A00009001360050455E0150465A000E01BE5E
:10101A00FF0E475A485A3D5039263E503A223F5011
:0E102A003B2640503C22494A4A2A97D71200E2
:101038002FC056F033C057F031C058F032C059F0C5
:1010480037C05AF038C05BF07CEC01F02FC056F086
:1010580033C057F035C058F036C059F037C05AF091
:1010680038C05BF07CEC01F031C056F032C057F06C
:1010780035C058F036C059F02FC05AF037C05BF071
:1010880038C05CF095EC01F031C056F032C057F032
:1010980035C058F036C059F033C05AF037C05BF04D
:0A10A80038C05CF095EC01F0120076
:1010B20089962FC0A3F030C0A4F031C0A5F032C091
:1010C200A6F033502F240001A76F34503020A86FB0
:1010D200010EA75F000EA85B35503124A96F365070
:1010E2003220AA6F010EA95F000EAA5B31EC00F05C
:1010F20031C03CF032C03DF035503124016E3650E3
:101102003220026E02503D5C02E101503C5C29E259
:101112002FC03AF030C03BF033502F24016E3450D0
:101122003020026E02503B5C02E101503A5C16E252
:1011320037C0F6FF38C0F7FF39C0F8FF0900F5CF16
:10114200AFF00900F5CFB0F00EEC00F0020E37263A
:10115200000E382239223A4A3B2ADED73C4A3D2A3F
:06116200CBD789861200C4
:10116800376A386A33C039F0000E3A6E33500108D6
:101178003B6E3C6A000E3C5A800E3A18006E800E98
:101188003818005C02E13750395CD8A008D13450D7
:10119800010A3EE137502F5C0001956F38503058F6
:1011A800966F3950315C976F3A503258986F375074
:1011B8002F24996F385030209A6F395031249B6F03
:1011C8003A5032209C6F35C09DF036C09EF0F5EC49
:1011D80000F039502F5C956F3A503058966F375061
:1011E800315C976F38503258986F39502F24996F67
:1011F8003A5030209A6F375031249B6F3850322044
:101208009C6F35C09DF036C09EF0F5EC00F090D094
:101218002F503724566E30503820576E31503924AD
:10122800586E32503A20596E35C05AF036C05BF0CD
:1012380063EC01F02F503924566E30503A20576E27
:1012480031503724586E32503820596E35C05AF014
:1012580036C05BF063EC01F037502F5C566E3850A7
:101268003058576E31503924586E32503A20596EE2
:1012780035C05AF036C05BF063EC01F039502F5C92
:10128800566E3A503058576E31503724586E325097
:101298003820596E35C05AF036C05BF063EC01F067
:1012A8002F503924566E30503A20576E3750315CE3
:1012B800586E38503258596E35C05AF036C05BF007
:1012C80063EC01F02F503724566E30503820576E9B
:1012D8003950315C586E3A503258596E35C05AF010
:1012E80036C05BF063EC01F037502F5C566E385017
:1012F8003058576E3950315C586E3A503258596EE2
:1013080035C05AF036C05BF063EC01F039502F5C01
:10131800566E3A503058576E3750315C586E3850C8
:101328003258596E35C05AF036C05BF063EC01F0A4
:10133800800E3C18006E800E005C02E1000E3B5CE3
:1013480012E2030E3B26000E3C2237C000F038C0E4
:1013580001F000360090013600503B2601503C2237
:10136800374A382A1BD0050E3B26000E3C2239503E
:10137800375C036E3A503858046E03C000F004C05E
:1013880001F000360090013600503B2601503C2207
:10139800374A382A010E395E000E3A5AEDD6120045
:1013A80065EC20F00F0EC26E0F0EC16E070EB41260
:1013B800926A936A956A966A896A8A6A8C6A8D6A59
:1013C80015EC05F02F6A306A3FEC04F0220E2F6E00
:1013D800000E306E316A326A336A346A080E356E2E
:1013E800366A376AFF0E386EFF0E396E71EC04F0FC
:1013F8000B0E0B6E260E0C6E5D0E0D6E0D2EFED7AF
:101408000C2EFCD70B2EFAD700000000150E2F6EFD
:10141800000E306E316A326A140E336E000E346E6E
:10142800100E356E366A376AFF0E386EFF0E396E4B
:1014380071EC04F00B0E0B6E260E0C6E5D0E0D6E2D
:101448000D2EFED70C2EFCD70B2EFAD7000000006D
:10145800060E0B6E130E0C6EAD0E0D6E0D2EFED716
:101468000C2EFCD70B2EFAD7000000001F0E2F6E93
:10147800000E306E3FEC04F0060E0B6E130E0C6E71
:10148800AD0E0D6E0D2EFED70C2EFCD70B2EFAD7F7
:10149800000000002F6A306A3FEC04F0060E0B6E65
:1014A800130E0C6EAD0E0D6E0D2EFED70C2EFCD746
:1014B8000B2EFAD700000000E00E2F6E070E306EDC
:1014C8003FEC04F0060E0B6E130E0C6EAD0E0D6E97
:1014D8000D2EFED70C2EFCD70B2EFAD700000000DD
:1014E800EF0E2F6E7B0E306E3FEC04F0060E0B6E87
:1014F800130E0C6EAD0E0D6E0D2EFED70C2EFCD7F6
:101508000B2EFAD7000000008A0E2F6E520E306E96
:101518003FEC04F0060E0B6E130E0C6EAD0E0D6E46
:101528000D2EFED70C2EFCD70B2EFAD7000000008C
:10153800FF0E2F6E070E306E3FEC04F0060E0B6E9A
:10154800130E0C6EAD0E0D6E0D2EFED70C2EFCD7A5
:101558000B2EFAD700000000000E2F6EF80E306E2A
:101568003FEC04F0060E0B6E130E0C6EAD0E0D6EF6
:101578000D2EFED70C2EFCD70B2EFAD7000000003C
:10158800E00E2F6EFF0E306E3FEC04F00B0E0B6E6C
:10159800260E0C6E5D0E0D6E0D2EFED70C2EFCD792
:1015A8000B2EFAD7000000000A0E956F000E966FFA
:1015B8000A0E976F000E986F3C0E996F000E9A6F87
:1015C800500E9B6F000E9C6F1F0E9D6F000E9E6F3E
:1015D800F5EC00F00B0E0B6E260E0C6E5D0E0D6E0C
:1015E8000D2EFED70C2EFCD70B2EFAD700000000CC
:1015F800640E566E000E576E320E586E000E596EFF
:101608005A6A5B6A63EC01F00B0E0B6E260E0C6EC9
:101618005D0E0D6E0D2EFED70C2EFCD70B2EFAD7B5
:10162800000000000A0E2F6E000E306E0A0E316E9A
:10163800000E326EC80E336E000E346EC80E356E54
:10164800000E366E1F0E376EF10E386EB5EC06F0D2
:101658000B0E0B6E260E0C6E5D0E0D6E0D2EFED74C
:101668000C2EFCD70B2EFAD700000000640E566E25
:10167800960E576E640E586E000E596EEF0E5A6E27
:101688007B0E5B6E7CEC01F00B0E0B6E260E0C6E67
:101698005D0E0D6E0D2EFED70C2EFCD70B2EFAD735
:1016A80000000000640E566E000E576E960E586EBF
:1016B800000E596E640E5A6EEF0E5B6E7B0E5C6EFA
:1016C80095EC01F00B0E0B6E260E0C6E5D0E0D6E7A
:1016D8000D2EFED70C2EFCD70B2EFAD700000000DB
:1016E8000A0E2F6E000E306E0A0E316E000E326E2C
:1016F800C80E336E000E346EC80E356E000E366E90
:101708008A0E376E520E386E93DC0B0E0B6E260E59
:101718000C6E5D0E0D6E0D2EFED70C2EFCD70B2E0B
:10172800FAD700000000500E2F6E000E306E500EDB
:10173800316E000E326E140E336E010E346E356A41
:10174800366A0EDD0B0E0B6E260E0C6E5D0E0D6EE0
:101758000D2EFED70C2EFCD70B2EFAD7000000005A
:10176800500E2F6E000E306E500E316E000E326E1F
:10177800140E336E346A1F0E356EF10E366EF0DCC1
:101788000B0E0B6E260E0C6E5D0E0D6E0D2EFED71B
:101798000C2EFCD70B2EFAD7000000002F6A306AF7
:1017A800F00E316E000E326E280E336E000E346E5F
:1017B800530E356E000E366ED00E376E170E386E1D
:0817C800000E396E72DCFFD740
:1040CA0010EE15F01A0E006E010E016EB00EF66EAD
:0E40DA00400EF76E000EF86E0DEC05F01200B1
:1017D000EB5A452945298952B3AD13B6D2AD35BE72
:1017E0009BEFBCF7DEF7FFFFFFFFFFFF75ADCD738B
:1017F0002A5BA95207422742E63907420842073AC4
:10180000E739E739E739E739E739073A0742C639AF
:10181000C6390742E739C63908422842C639284244
:10182000484AC3188210E320AB6B33BEB1ADD6CEAD
:1018300079E7FDF7DEFFFFFFFFFFFFFF3CE7EE73F9
:10184000C9524742063A47424429442185318531ED
:10185000C6318529652965296529642944294429D2
:101860006529A531A5314421442965292421C631A2
:10187000E73924216108C218274292ADD5D6F6D6A1
:10188000B7CE3BE7FFFFFFFFFFFFFFFFFFFFF6BD08
:10189000AC6B0A5BA952063AA5318531C639C63907
:1018A0002742A531A531E639C63985316429642935
:1018B0006429E639884AC639A531C639A531274297
:1018C0000421C318C318C318E318908C35BE71A542
:1018D000CF940E7CFFFFFFFFFFFFFFFFFFFF9DF791
:1018E00094AD4E7CAC6B674A0642A531A531C5313B
:1018F000063A063AE6392742474206420642C531D1
:10190000C531E6392742063AC639C631A5312742E4
:1019100004210421A210E3188210484A74AD8E8479
:101920006D84C952FADEFFFFFFFFFFFFFFFFFFFFDD
:101930007DEF73A51095AC73674AE5392742684A75
:101940004742684AA952A84A684A4742884A06421A
:10195000674A884A4742C639C639C531C639894AB5
:10196000E318E3184108A6312000C6395BE755BEED
:10197000CF8C684AF29CFFFFFFFFFFFFFFFFFFFFD6
:10198000FFFF98CE319D2D7C095B6742A84A095B19
:10199000C9526742A852884A874A674A684AA95288
:1019A000E95AA84A47420642063A2742884AA952BB
:1019B000E42082100000C739A318610852A5D7CED1
:1019C000EB6BC952E6395CEFFFFFFFFFFFFFFFFF44
:1019D000FFFF5CE793A5F0944E7CED734D7C8B6329
:1019E0006A63E8524B63E95A47424742474A884A8A
:1019F0002A63E95A674A884A884A26422742A952F6
:101A0000E420A2100000A631074200000B639AEF09
:101A10008D8CA952A210D194DEF7FFFFFFFFFFFFCC
:101A2000FFFFDFFF98CE519D51A58F8CAF8CCC73FB
:101A3000AB6B0C7C6E844A63A84A884AE952C9524F
:101A4000E95AE95AC852095B884A4742684AC9526A
:101A50006529621000008210C73920004429F9DE90
:101A6000D7D6A5318210A431D9D6FFFFFFFFFFFFE3
:101A7000DEF71ADF5BE776C654BEF3B571A5309D7D
:101A80001095309DF0940D7C2A5BE952E952095B78
:101A9000E952C8528B6B4A63674A884A2742C95247
:101AA000A63161080000000028424108E318F5BD96
:101AB000BBEFA852610861084C63FFFFFEFFFFFF08
:101AC000FFFFB3AD16B6D8D69AE7B7CECC7364296C
:101AD0004E84F8D651A56E840D7C6A63AC6B8B6B1B
:101AE0004A632A5B8B6B2A5BE95AC95A474A2A63C5
:101AF00024210000000000000842C7392000AD7317
:101B000059E7CD73A2108108242153A5BCF79CEF9F
:101B1000F9D615B60D748F844E7C67424421A952C4
:101B2000C63154A576C672A5EF94EC73CC738B6B5B
:101B30006A634B636B634A634A636B6B2A63ED7B37
:101B4000C318000000000000A2104D6B00008210BE
:101B500052A5AD73C31860088110C218909439DF84
:101B6000319D31952D6C0953674247422E7CFBF71E
:101B700073A5AA525BE7D3AD309D0C746D842C7CA9
:101B80006A632A634A634A63095BED732D7CAC6B1D
:101B9000C3180000000000000000AA5A61100000F5
:101BA0002B6332A5452941086108A3104421119DEA
:101BB0007AE7D3ADCF8CAB63E84A4A5B35BEFCF71E
:101BC000529DA531B8CEF4B5309D8E84309D519D87
:101BD000AB6BE952095B4A63AB6BAF8CD4B5CC738A
:101BE000A3180000000000000000E7398631000063
:101BF0008210D094B2ADE95A03218210E318442137
:101C0000508419DF96CED3AD2D746A5B92A5D4AD06
:101C10008842A42916BE55C671A58F8C2C7C6E8473
:101C2000AB6B2A63095B095B8B6B0C7C1095F094A2
:101C3000A318000000000000000085310B630000C5
:101C40000000A210AE8C55C671A5674A2000E318AB
:101C50006429AC6B5BE7FDF73ADF729D695BC84AAC
:101C600067426742B3AD34BE719D519DAE8C4D7CD1
:101C7000AB6BC852EC730C740C7CEC73F0948E84D8
:101C8000E31800000000000000004108CD73A2101E
:101C900000000000A2104B63F4B5D4B5D29C4C6395
:101CA000A5318429CD739CEFBCF7DDF7F5B5AB63A7
:101CB000A8426A5B54BE75C634B672A54D7C4E848C
:101CC000EC73295B2C7CCF8CF094109592AD319DF8
:101CD000C73900000000200000000000AA52853132
:101CE0000000000001000000A2104E84BBEF57C6A8
:101CF000329DED73E95294ADFEFFFFFFFFFF5CE7FD
:101D000053A5CF8CD7D639DFD7D692AD8E842D7C14
:101D10008B6B2A5B2C7C6D84EF94B2AD309DF3B558
:101D2000C73921080000000000000000C318A631D8
:101D30000000000000008210032147426F8CAC734A
:101D4000CD736C6B4C63894AEA522B5B4B5B6C63C3
:101D5000508413A55CE7BDF7F8D6B2AD10956E843C
:101D60000D742D7CEF941095109571A5EF9492A5AC
:101D7000C318000000000000000000004108E4203B
:101D800041086210E420242103212421C3186108A2
:101D9000410841086108A210A210A210C210E21866
:101DA00003192321684A78CE7AE714B651A571A5A4
:101DB000CE8C8E84AE8C1095109591A5D2AD92A547
:101DC000C3180000000000006210821041084108A2
:101DD0004108210841080000000000000000200028
:101DE00041084108610861086108610861086108EB
:101DF000A210C218C210073A77C6D7CED3AD72A5CB
:101E000072A5309D91A551A5509D91A5B2AD14BE6E
:101E1000C31820004108A318E31862100000000056
:101E200000000000000000000000000000000000B2
:101E30000000000020002108410841084108610815
:101E400061108210A210242136BEB7CEB3ADB3AD5F
:101E5000B3ADB1AD54BE509D509D92ADF3B534BEFF
:101E60000421610841082108000000000000000072
:101E700000000000200041088210A21082106108BA
:101E800020000000210021082108610861082000CD
:101E9000000000008208652993AD17D7F3B5B7D6C7
:101EA000F8D696CE54BED2AD71A5F3B575C696C61A
:101EB000C3182000210800000000000000000000FE
:101EC00081106C6BC7398210A210610804210421B3
:101ED000621020004208410861106108A2108A4A7D
:101EE0004C6BEE7B33A5F5B5B7CED6D6F3B539DF5F
:101EF00018DF39DF18DFF3B534BEF7D695C675C6DF
:101F0000E318210821082000000020000000000044
:101F1000E21834BECA5A2100000000000000000090
:101F2000000020002100620882102421A6313084A4
:101F30005BE7FDFFDCF77AEF59E79BEF97CE9BEF6E
:101F400039DFF8D639DF75C654BE75C671A592A5BE
:101F5000042161086108410841084108410841081D
:101F6000821007422421821020000000000000009F
:101F70000000000000000000200082102429E3205F
:101F8000ED7BD7D6DBF77AE72F846C6B918CD6B5D7
:101F90001ADF7AE739DF18DF18D795C671A5519D8A
:101FA000652982106110611061084108410821080B
:101FB000E420C95A674AAE73C318A631A952484AE9
:101FC0008852A631C3180000000000002008410814
:101FD000264275CEBCF7D5B5C3184008A1100B5BDF
:101FE000B9D67CEF7BEF59E7D7CE96C634BED2ADDB
:101FF000A631A21082108210610861086108611088
:1020000062106431E739EF7BE3182429884A684A73
:10201000C95A6C6B6C6BC7390000000000000000EF
:10202000400852A555C6129D652940088108A5297A
:1020300095AD9CEFBCEF7AE7F7D634BE13B675C604
:10204000C639E318A210611061106108E320C210C4
:1020500082106B730A6344298210821041082108A0
:10206000000021082742CD7B4C6B07422842853176
:102070000421884A095BCA5AA6312000A210E63919
:1020800098CEDEFF7BEFBBEF18D7B6CEB6CE95C6A7
:10209000C739E3200321D29C90948952CE7B894A90
:1020A000C318A852F09C0B63A31882108310410838
:1020B000C2182E84B2AD51A551A551A5AD73684A81
:1020C000484A0742C63982100C638631E318A84A91
:1020D00098CE5CE77BEF5AE7B6CEB6CE95C675C60E
:1020E000A739A3186429B9D6F9DE74AD4C6B919465
:1020F0000B63C53957C69DF789524742E31807421B
:10210000F19C6B6B4742E95A2A63484244292421D7
:10211000E73989526529210804216529A631EC7B1C
:1021200077CE7BEFDCF77BE7F8D6F7D618DF17D74B
:102130008531C318A218A631A631E31803218529D9
:10214000908C8C73AC736F8CB4B535C68531A95245
:102150000A5B0742C739CA5A4842E318E31800002D
:102160002108E3184108C318EB6281102421F09C78
:10217000F9D69DEFDDF7BDF79BEF7AE77AE7F8D662
:102180006529A318A21041084208A210E320C21832
:102190002742484AE739119DF4B571A5273AC3187B
:1021A0004429A6314529442941088A52C7390000EB
:1021B000621082100000C739684A2F84AA5292AD7B
:1021C0003AE79DF7DEF7BDF7BCEF9BEF9BEF5AE7D1
:1021D0004529821062106210821062108210E32082
:1021E0000321853128422B632B632A636529210053
:1021F000A639C318C318A2180421863100000000B4
:1022000082102421494A652982100B63CA5A8F8C97
:10221000D6CEBBEFDDF7DEF7DEF7DEF7DDF7BCF796
:1022200045298210621082106210610861086210F4
:10223000A210C218032124218531232181106110AD
:10224000E73962102108E3200C6320080000000039
:10225000E3180421AA524C6B0000E3188631095B95
:10226000309DB6D69BEFBDF7BEF7FFFFDEFFDDF773
:102270002421621061084108410821080000000083
:10228000200882102421484AC95A6C6B884A0321CD
:1022900024212421200804210421000000004108F9
:1022A000452966314529CA5A2B638A5282100A5B36
:1022B00034BE95CE74C6D8D6BEF7FFFFFFFFDEF75B
:1022C000E4204108410821080000000000008210BD
:1022D0004429A531C639684A8F8C73AD53A5AD73B7
:1022E0002421A21804210421410800000000210833
:1022F000C739C73924214429F29C284221080319EF
:10230000A84A2D84D2B5F7DEDDF7FEFFDEF7FFFF2A
:1023100004214108200041086110A21844296529C0
:10232000CA5A894A4429E639A9522A63D5B574ADF7
:102330004008200062108631E318000020002000D1
:102340000421A6310421C218F29CE3186108C318C5
:102350008631E639CC7334BEBBEFFEFFFFFFFFFFD3
:10236000042161084108C318E3182C63B1946C6B15
:10237000EA5AEA5A2421A631484A0B63B4B552A559
:10238000684A8531410845298631000041084108E5
:102390002108210061080742B19482104529684A4A
:1023A0008C6BCC732D8413BEF7D67CEF9DEF9DEF25
:1023B000A318410861082108210082105084708C04
:1023C0004C6B2742E318E31865296529A53185314F
:1023D000E639CA5ACA5A821044296108610841087C
:1023E00021080421A95232A5CA5AE3184C63D1949A
:1023F0008E842D7C129D14BE13BE56C6D9D6D9DE4E
:10240000C318410820082100A3108210652973AD6C
:10241000EA5A0421042124210421E320A218A2184D
:1024200081100321A9528110442981104108A21072
:102430004429C6390742AA5204212000A631652941
:10244000A5312742D19412B6F6D679E7BBF7FEFF45
:10245000C318210820008210A73186310421D094AE
:1024600064292100C3182421821082108210821056
:1024700082108110E320A210652961102000042140
:1024800007422842895230840842E31844296531C2
:10249000C639E83973AD73C6F6D679EFBAEFDDF712
:1024A000C318410820004108C639C6394108EA5A14
:1024B00082100000000000000000200021084108F8
:1024C00061084108200061106210210821084108BC
:1024D000821061104108A218E318C318E318042100
:1024E00024214529F19C12B654C678E779EFDDF72F
:1024F000C318210800006210A6314529C3184429D9
:102500002008200820004108621020002000210837
:10251000210841084108000020000000210841086E
:102520004108621061080000000000000000000087
:1025300000000000908C32BE33BE37DF9AEFDCF72C
:10254000A318210800002000E318C318E420A210FB
:1025500082104108E3180421E318A2108210A2108F
:102560002108E318A3180000000000004108C31868
:102570008210C3186208410800000000000000003B
:1025800021080000AD7375CE16DFB6CE59E7DCF733
:10259000A318210861082000410862106529E42081
:1025A0006210A210C739A210410841080000821031
:1025B000A318452962100000000000000000410837
:1025C00061084108210800004108A2106529A318EC
:1025D000000000000421908C74ADD5B5B8D6F9D6B2
:1025E000A3180000410862108210E3180421821031
:1025F00082100421C3186529E318C3188210000053
:1026000041084108410820000000000000002000AF
:102610000421C318A3188210A2108531CA5A95B597
:10262000CE7B21086108A318A6314B5B0D7472A5FF
:10263000A318000000000000200061086210821052
:102640002421A2106210A631A631A210A21000000F
:10265000000000002000000000000000000000005A
:1026600024216529821082108E8CAC7344290B635F
:10267000BDF789528210E42048422B5B8B63AF8CFC
:10268000A318000000000000000020008210C31802
:10269000A2102108000082100421E318A2100000FB
:1026A00000004108210800000000000000000000B8
:1026B00041086529C318242150A5E95A863185317E
:1026C00056C66F8C200004212742CA52CA520E7C83
:1026D000A3180000000000000000000000004108F6
:1026E000410861084108200020002000000000008F
:1026F00000000000210800000000000000000000B1
:102700000000A6312521C3186E8CAB6B0B63C5315D
:102710004E84684A40080421242104196529B4AD77
:10272000A31800000000000000002108C318A63113
:10273000C7394529A2104108000000000000200010
:102740000000A2106108200000000000000000004E
:1027500000008210452900006B6BF094A952E31829
:1027600085316210821062100100A31874AD7AE7FF
:10277000A318000000000000000021080421863199
:10278000A631C318410841082000000000000000E5
:10279000000082104108000000000000000000005E
:1027A0002000C3182421E318C318A639E320A31876
:1027B00041082000410886318D6B78CEBBEFD6CE24
:1027C000A318000000000000000000004108E3180A
:1027D000A218610820002000200000000000000076
:1027E0000000200000000000200000002108410837
:1027F000821062102000A2100C636208A21061080F
:102800000000E73916BE5AE79BEF9AE795C6D6CE89
:10281000A318000000000000000000008210242126
:102820000421042162102000000000000000410883
:10283000A318821021082000210820004108000070
:10284000000041086210E739494A0000000000001A
:10285000000016BEDCF79AEF38DF18DF17D717D75E
:10286000A31800002108410800000000000000003B
:102870000000000020002000000000002000821066
:1028800061080000210821082000000041082421DF
:1028900025292421E318A2102008200000000000B0
:1028A000CA5238DFD6CE18DF18DF17D758DF34B654
:1028B000A318000000004108410800000000410882
:1028C00041080000000000000000000000000000BF
:1028D000000000000000000020000000200061084F
:1028E000621082100000000020002000000004217F
:1028F00072A595C6F2B513B695C675BE75C6F3B585
:10290000A31800000000000041084108000000007A
:1029100000000000000000000000000000000000B7
:1029200000000000000000000000000000000000A7
:1029300061082521E420210021080000C21873ADA0
:1029400075C6B2AD91A5D2ADD2ADD2ADD2AD34BEC9
:10295000A318000000000000000041080000200053
:1029600020004108000000000000000000000000FE
:102970000000000000000000000000000000200037
:10298000C3184108708C8D73E73907424742CF94D2
:1029900013B6D2AD33BE74C6D2AD91A5D2ADD3AD10
:1029A000A31800000000000000000000000020004C
:1029B00020002000000000000000000000000000D7
:1029C000000000000000000000000000410861104D
:1029D00000006C6B38DFF8D6F7D6F7D6F3B591A5C3
:1029E000B2AD519D92A513B6D6CE17D795C614B6E3
:1029F000A3180000000000000000000000002000FC
:102A0000000041080000000000000000000000007D
:102A10000000000000004108410841084208000091
:102A2000C63973ADB6CEF7D638DF34BEB2ADB1AD70
:102A3000D2AD71A5309D0F9513B6B6CED2AD34BED2
:102A4000A318000000000000000000004108610819
:102A50000000200020000000000000000000000036
:102A600000000000410841082108410862084D6B40
:102A700056C6D7CEB7CE18DF75C691A5B1AD91A514
:102A8000B2AD91A53095109571A5F3B50F9592ADA6
:102A9000A318000000000000000000002000210832
:102AA0000000000000000000000000000000000026
:102AB000000000000000000000002842CD7BDBF792
:102AC000F7D6F7D639DF18DFD6CEF2B5309D509D58
:102AD00070A591A5309D71A53095CE8C0F95519D17
:102AE000C31800000000000000000000000000000B
:102AF00000000000000000000000000000000000D6
:102B000000000000000000002000452988526A6B88
:102B1000509D34B638DF9BEFF3B533B671A513B6CD
:102B2000D2AD91A591A571A5309D509D71A5519DE6
:102B3000C318200021084108200000000000000008
:102B40000000000000000000000000000000200065
:102B50000000000000000000000041080421C63110
:102B6000884ACB6BB1AD17DFD3ADF3AD71A534BEE1
:102B7000B2AD509D91A591A571A591A571A5D3ADBB
:102B8000A318000020004108621041080000000066
:102B900000000000000000000000000000004108EC
:102BA00000000000000000000000821066290842BA
:102BB000894A4A5B8A6BF3BD92AD71A5309D34BEE4
:102BC00013B6D2AD91A571A571A571A571A592ADF0
:102BD000A3180000000000000000000041084108A8
:102BE00020002108821041082000000061088210A6
:102BF00000000000000000002108A3182529A739C3
:102C0000694AE952AE8C72ADCD73AE8CAE8C13B600
:102C100013B654BEF3B50F95B2ADD2AD509D51A5CC
:102C2000C31800000000000000000000C31882105C
:102C30000000000041084529E318410862106210B5
:102C40006108410841082108821004218529474272
:102C5000E95A0D7C2D7C095B2D7CEF940F95F3B523
:102C600013B613B691A5CF8C309D70A5CE8C109D58
:102C7000C3180000000000000000210045292108C1
:102C800000000000821086310421C318E318C31825
:102C90000421C318C318C739C6398A526C6B4B63F9
:102CA000884A2A63EC73D3AD71A571A5F3B5F3B56A
:102CB00013B613B6F3B5B2AD92AD91A54D846E8443
:102CC000C3180000000000000000E420C739000025
:102CD00000008210494A28420421E4206210410881
:102CE00041080000A218894A4108A2108210210858
:102CF00000008D73F7D6EF94309DCE8CEF94F3B532
:102D000092A5509D509D309DCE8CCF94CB6B6E8400
:102D1000C31821080000000000002421A2100000B8
:102D20002000C739CB5AA631A210210800000000AC
:102D30000000A31882100000000000000000000046
:102D40006210C639F8D650A5CE8CAE8CEE94B2ADDA
:102D5000B2AD519DCF94EF948E8CAE8CAB6B6E84E4
:102D6000C3180000000000000000C6396108000020
:102D7000A218694A652961080000000000000000EF
:102D8000A318C3182000000000002000C318C6319B
:102D90002421252152A5B2AD509DCF8CEF94509D9A
:102DA00091A5519DCF8C8E8CAE8CEF940C7C6F8452
:102DB000C3180000000000006108A63100002000D8
:102DC000C739242100000000000000002108C318BA
:102DD000A210000000000000200000002B63B6CE0F
:102DE000E95A25210A63D2AD719D0F950F95CE8CBE
:102DF000EF94EF94CE8C6D844D7C2D7C6A634E8471
:102E0000E420000000000000A210E3180000A31856
:102E1000652920000000000000000000E318821077
:102E200000000000000000000000A310CD7313B6E6
:102E3000ED73C418EA5AB2AD71A510954C7C8D841F
:102E40006D844D846D844D7CEC734A63095B8C6B9F
:102E500045290000000000002421610820006529A8
:102E6000E3180000000000002108E31882100000B1
:102E7000000000000000A218C31845214E84AE8C4B
:102E800047420419AC6B309DCE8C8E84CB6B6D8425
:102E90000C74CB73CB73AB6B8B6B2A63C9522B63F4
:102EA000894A41080000210824210000C318284253
:102EB000C318000000000000A318821000000000EA
:102EC000000000002108E31853A54E84A95285296B
:102ED0000421CA528E8C8E848E84CB73CB6BEC73A0
:102EE0008B6BCC73AB6B4A63E95AE95A674ACA5A8F
:102EF000EB5AC3180000C318452900004429C739FC
:102F00002108000000006108E4200000000000002B
:102F10000000000041084742B5CE13B66E842A6314
:102F20006B630C7C8E8CAE8CCB6B0D7C0D7CCC6B78
:102F30004A634A63095B095BC852884A4742A952FF
:102F40002842032100004529A210000045294529F7
:102F5000000000000000E31841080000000000002D
:102F60002000C3188629AF8C50A5EF940D7CCC733C
:102F7000CC73CC738B6B6B63095B2A5B6B636A638B
:102F8000E952A8522742474247422742063AC952CD
:102F9000A6310421200065292000410886318210D5
:102FA00000000000A210E318000000000000000074
:102FB000A31065290A5B4D84CB738C6B8B6B8B6B79
:102FC0006A63095BC952A852C952C852E952E95210
:102FD000A84A2742E6392642063A27422742A95202
:102FE000652924212000A2100000A210A63161084A
:102FF0000000200025294108000000002000821068
:103000004629484AAB6BAB6B2A5BC952A8520A5B94
:10301000E952C952674A06422742884A884A6742AB
:103020004742884A4742274247422742063A884A4F
:1030300065294529A218A2100000A2102421210808
:1030400000006108A210000041086108A31865296A
:10305000C6390A5BE95AE952874A874A2742884AB1
:10306000674A684A2742E639E6392742063A063A6D
:10307000E639064227422642C531E639C531474284
:10308000452904210421A2102000E3186108000052
:1030900000002108000020006210A2102521C63186
:1030A000884AE95A884A684A4742474AE639A53178
:1030B000063A063A073AC631A531E639E639063A04
:1030C000C639C531E639E639842985298531274253
:1030D000E739E318000000006210042141080000F5
:1030E00000000000200061088210C3188631073AF2
:1030F000A952884A684A684A063AE639E639C6312A
:10310000C531C6390742073AC639C6318531C6319D
:10311000A531642985318531642985296529E739F7
:10312000694A821000000000A218821020002000CE
:103130000000000021086108821024218631274206
:103140004742063AC639A531A531A531A631C63167
:10315000A531A531A531C631A531A531852965290E
:103160004429442944212421442124212421A63115
:10317000AA52C318C31804216529E318E318E318F9
:10318000C318C318E31804214529C739484AA9526E
:10319000684A4842073AE739E739E739E7392842C8
:1031A000073A073A0742074227420742073A073AD7
:1031B000E639C639E739C739C639A6318631284AD2
:1031C00000000000000000000000000000000000FF
:1031D00000000000000000000000000000000000EF
:1031E0000000000007000F800F800F800F800F800D
:1031F00007000700000000000700070007000000AC
:1032000000000E380E380E380E3806300000000070
:1032100000000000000000000000000000000000AE
:1032200000000C300C300C307FFE7FFE0C300C3078
:103230000C300C307FFE7FFE0C300C300C30000068
:103240000000024002400FF81FF81A401A401FF019
:103250000FF8025802581FF81FF002400240000009
:103260000000000000000E100E300E7000E001C0E3
:10327000038007000E700C70087000000000000052
:10328000000000000F001980198019800F000F083E
:103290000F9819F818F018E019F00F9800000000C6
:1032A000000000000700070007000E0000000000FB
:1032B000000000000000000000000000000000000E
:1032C0000000000000F001C0038007000E000E00A7
:1032D0000E000E000700038001C000F00000000097
:1032E000000000000F00038001C000E000700070CB
:1032F0000070007000E001C003800F0000000000BB
:103300000000000001801188099007E007E03FFC01
:103310003FFC07E007E009901188018000000000F1
:1033200000000000000000000180018001800FF01B
:103330000FF001800180018000000000000000000B
:10334000000000000000000000000000000000007D
:103350000000000000000700070007000E0000004A
:1033600000000000000000000000000000001FF846
:103370001FF8000000000000000000000000000036
:10338000000000000000000000000000000000003D
:103390000000000000000700070007000000000018
:1033A0000000000000020006000E001C0038007043
:1033B00000E001C0038007000E001C0000000000B8
:1033C000000000000FF01C381C781CF81CF81DB819
:1033D0001DB81F381F381E381C380FF000000000C1
:1033E000000000000180018003801F801F80038097
:1033F000038003800380038003801FF0000000002F
:10340000000000000FE01C701C380038007000E065
:1034100001C0038007000E381C381FF800000000B0
:10342000000000000FE01C701C380038007003C062
:1034300003C0007000381C381C700FE00000000052
:103440000000000000E001E003E006E00CE018E00E
:103450001FF81FF800E000E000E003F800000000A3
:10346000000000001FF81C001C001C001C001FE0D6
:103470001FF0007800381C381C700FE000000000BE
:103480000000000003E007000E001C001C001FF0FD
:103490001FF81C381C381C381C380FF000000000C6
:1034A000000000001FFC1C1C1C1C1C1C001C003805
:1034B000007000E001C00380038003800000000072
:1034C000000000000FF01C381C381C381F3807E0C3
:1034D00007E01CF81C381C381C380FF000000000F6
:1034E000000000000FF01C381C381C381C381FF876
:1034F0000FF800380038007000E007C0000000003E
:103500000000000000000000038003800380000032
:103510000000038003800380000000000000000022
:103520000000000000000000038003800380000012
:1035300000000380038003800700000000000000FB
:103540000000007000E001C0038007000E001C00B6
:103550001C000E000700038001C000E000700000A6
:10356000000000000000000000003FFC3FFC0000E5
:1035700000003FFC3FFC00000000000000000000D5
:1035800000001C000E000700038001C000E0007076
:10359000007000E001C0038007000E001C00000066
:1035A000000003C00FF01E7818380038007000E0EB
:1035B00001C001C00000000001C001C001C0000046
:1035C00000000FF81C1C1C1C1C1C1C1C1CFC1CFCE4
:1035D0001CFC1CFC1C001C001C001FF007F8000059
:1035E0000000000003C007E00E701C381C381C38B7
:1035F0001C381FF81C381C381C381C380000000010
:10360000000000001FF00E380E380E380E380FF094
:103610000FF00E380E380E380E381FF00000000084
:103620000000000007F00E381C381C001C001C00B5
:103630001C001C001C001C380E3807F000000000A5
:10364000000000001FE00E700E380E380E380E38E5
:103650000E380E380E380E380E701FE000000000D5
:10366000000000001FF80E180E080E000E300FF0BC
:103670000FF00E300E000E080E181FF800000000AC
:10368000000000001FF80E180E080E000E300FF09C
:103690000FF00E300E000E000E001F0000000000A4
:1036A0000000000007F00E381C381C381C001C00FD
:1036B0001C001CF81C381C380E3807F800000000ED
:1036C000000000001C701C701C701C701C701FF02F
:1036D0001FF01C701C701C701C701C70000000001F
:1036E000000000000FE0038003800380038003805C
:1036F000038003800380038003800FE0000000004C
:103700000000000001FC007000700070007000708C
:10371000007038703870387038700FE000000000AA
:10372000000000001E380E380E700EE00FC00F8033
:103730000F800FC00EE00E700E381E380000000023
:10374000000000001F000E000E000E000E000E0014
:103750000E000E000E080E180E381FF800000000B4
:10376000000000001C1C1E3C1F7C1FFC1FFC1DDCFD
:103770001C9C1C1C1C1C1C1C1C1C1C1C0000000079
:10378000000000001C1C1C1C1E1C1F1C1F9C1DDCA0
:103790001CFC1C7C1C3C1C1C1C1C1C1C0000000079
:1037A0000000000003E007F00E381C1C1C1C1C1C51
:1037B0001C1C1C1C1C1C0E3807F003E00000000041
:1037C000000000001FF00E380E380E380E380FF0D3
:1037D0000FF00E000E000E000E001F000000000093
:1037E0000000000003E00F780E381C1C1C1C1C1C81
:1037F0001C1C1C7C1CFC0FF80FF8003800FC00009F
:10380000000000001FF00E380E380E380E380FF092
:103810000FF00E700E380E380E381E380000000003
:10382000000000000FF01C381C381C381C000FE092
:1038300007F000381C381C381C380FF0000000005E
:10384000000000001FFC19CC11C401C001C001C060
:1038500001C001C001C001C001C007F000000000AC
:10386000000000001C701C701C701C701C701C7010
:103870001C701C701C701C701C700FE0000000009D
:10388000000000001C701C701C701C701C701C70F0
:103890001C701C701C700EE007C00380000000004C
:1038A000000000001C1C1C1C1C1C1C1C1C1C1C9C48
:1038B0001C9C1C9C0FF80FF807700770000000009C
:1038C000000000001C701C701C700EE007C003801C
:1038D000038007C00EE01C701C701C70000000000C
:1038E000000000001C701C701C701C701C700EE02E
:1038F00007C003800380038003800FE00000000006
:10390000000000001FF81C381838107000E001C0DB
:10391000038007000E081C181C381FF80000000068
:103920000000000007F0070007000700070007007D
:103930000700070007000700070007F0000000006D
:1039400000000000100018001C000E00070003809B
:1039500001C000E000700038001C000700000000FB
:103960000000000007F00070007000700070007030
:103970000070007000700070007007F00000000020
:103980000000018003C007E00E701C38000000003A
:103990000000000000000000000000000000000027
:1039A0000000000000000000000000000000000017
:1039B0000000000000000000000000007FFF7FFF0B
:1039C000000000001C001C000700070000000000B1
:1039D00000000000000000000000000000000000E7
:1039E0000000000000000000000000000FE0007078
:1039F00000700FF01C701C701C700FD800000000CD
:103A0000000000001E000E000E000E000FF00E3829
:103A10000E380E380E380E380E381BF0000000003D
:103A20000000000000000000000000000FE01C701B
:103A30001C701C001C001C701C700FE000000000BB
:103A40000000000000F80070007000700FF01C70A3
:103A50001C701C701C701C701C700FD800000000C3
:103A60000000000000000000000000000FE01C70DB
:103A70001C701FF01C001C701C700FE00000000088
:103A80000000000003E007700770070007001FE058
:103A90001FE007000700070007001FC0000000002C
:103AA0000000000000000000000000000FD81C70A3
:103AB0001C701C701C700FF007F000701C700FE081
:103AC000000000001E000E000E000E000EF00F3869
:103AD0000F380E380E380E380E381E380000000031
:103AE0000000000001C001C001C000000FC001C003
:103AF00001C001C001C001C001C00FF800000000FA
:103B000000000000007000700070000003F0007002
:103B1000007000700070007000701C700CF007E006
:103B2000000000001E000E000E000E000E380E7089
:103B30000EE00FC00EE00E700E381E3800000000C0
:103B4000000000000FC001C001C001C001C001C0E1
:103B500001C001C001C001C001C00FF80000000099
:103B60000000000000000000000000001FF81C9C86
:103B70001C9C1C9C1C9C1C9C1C9C1C9C00000000F5
:103B80000000000000000000000000001FE01C70AA
:103B90001C701C701C701C701C701C7000000000DD
:103BA0000000000000000000000000000FE01C709A
:103BB0001C701C701C701C701C700FE0000000005A
:103BC0000000000000000000000000001BF00E38A4
:103BD0000E380E380E380E380FF00E000E001F0093
:103BE0000000000000000000000000001FB038E0EE
:103BF00038E038E038E038E01FE000E000E001F0B5
:103C00000000000000000000000000001EF00FF89F
:103C10000F380E000E000E000E001F000000000006
:103C20000000000000000000000000000FE01C3059
:103C30001C300F8003E0187018700FE000000000C7
:103C40000000000000000100030007001FF0070053
:103C50000700070007000770077003E0000000007E
:103C60000000000000000000000000001C701C703C
:103C70001C701C701C701C701C700FD800000000A1
:103C80000000000000000000000000001C701C701C
:103C90001C701C701C700EE007C003800000000048
:103CA0000000000000000000000000001C1C1C1CA4
:103CB0001C1C1C9C1C9C0FF8077007700000000067
:103CC0000000000000000000000000001CE01CE0FC
:103CD0000FC0078007800FC01CE01CE00000000040
:103CE0000000000000000000000000000E380E3848
:103CF0000E380E380E3807F003E000E001C01F80D8
:103D00000000000000000000000000001FE018E0BC
:103D100011C0038007000E201C601FE0000000009F
:103D20000000000001F803800380038007001C00EE
:103D30001C00070003800380038001F800000000DE
:103D4000000001C001C001C001C001C001C001C02C
:103D500001C001C001C001C001C001C001C000001C
:103D6000000000001F8001C001C001C000E0003859
:103D7000003800E001C001C001C01F800000000049
:103D8000000000001F1C3B9C39DC38F800000000DC
:103D90000000000000000000000000000000000023
:103DA0000000000000000000307878303000300063
:103DB0006C6C6C00000000006C6CFE6CFE6C6C00A7
:103DC000183E603C067C18000063660C18336300E4
:103DD0001C361C3B6E663B0030306000000000006B
:103DE0000C18303030180C0030180C0C0C18300047
:103DF00000663CFF3C660000003030FC30300000C4
:103E000000000000001818300000007E00000000D4
:103E1000000000000018180003060C183060400075
:103E20003E63636B63633E001838581818187E00B1
:103E30003C66061C30667E003C66061C06663C003E
:103E40000E1E36667F060F007E607C0606663C000E
:103E50001C30607C66663C007E66060C18181800F4
:103E60003C66663C66663C003C66663E060C380076
:103E70000018180000181800001818000018183052
:103E80000C18306030180C0000007E00007E00002E
:103E900030180C060C1830003C66060C1800180090
:103EA0003E636F696F603E00183C66667E66660022
:103EB0007E33333E33337E001E33606060331E003A
:103EC0007C36333333367C007F31343C34317F00F1
:103ED0007F31343C343078001E33606067331F001C
:103EE0006666667E666666003C18181818183C0000
:103EF0000F06060666663C007333363C36337300A5
:103F00007830303031337F0063777F7F6B636300BD
:103F100063737B6F676363003E63636363633E0049
:103F20007E33333E303078003C6666666E3C0E0071
:103F30007E33333E363373003C6630180C663C00EB
:103F40007E5A181818183C006666666666667E001B
:103F500066666666663C18006363636B7F77630022
:103F60006363361C1C3663006666663C18183C00AA
:103F70007F63460C19337F003C30303030303C00DA
:103F80006030180C060301003C0C0C0C0C0C3C00BF
:103F9000081C36630000000000000000000000FF65
:103FA00018180C000000000000003C063E663B00B4
:103FB00070303E3333336E0000003C6660663C0078
:103FC0000E063E6666663B0000003C667E603C0076
:103FD0001C3630783030780000003B66663E067C48
:103FE0007030363B333373001800381818183C0013
:103FF000060006060666663C703033363C367300B3
:104000003818181818183C000000667F7F6B630092
:1040100000007C666666660000003C6666663C00E2
:1040200000006E33333E307800003B66663E060F7C
:1040300000006E3B3330780000003E603C067C00A0
:1040400008183E18181A0C000000666666663B00E9
:1040500000006666663C18000000636B7F7F3600D8
:10406000000063361C36630000006666663E067C10
:1040700000007E4C18327E000E18187018180E00C2
:104080000C0C0C000C0C0C007018180E181870009A
:104090003B6E0000000000001C36361C00000000D3
:1040A000609090600000000022777F7F3E1C080037
:0D40B00041206C61726765207465787400B2
:0D40BD004120736D616C6C20746578740097
:020000040030CA
:0E000000000C1F1EFF8381FF0FC00FE00F409A
:00000001FF
