:1000000014EF05F00000000000EF00F00000000019
:0A0010000000000000000000F3D71C
:10001C00898489888AC300F0016A00C08CFF89C377
:08002C008AFF8992898212000B
:10003400898489988AC300F0016A00C08CFF89C34F
:080044008AFF899289821200F3
:10004C0085C389F386C38AF3EFDF87C389F388C33B
:06005C008AF3DEDF120052
:10006200440E0301856F000E866F81C388F3876B90
:100072007D5187277E518823E8DF450E856F000E6C
:10008200866F7FC387F380C388F3DFDF460E856FF9
:10009200000E866F83C387F384C388F3D6DF4E0EC8
:1000A200856F000E866F7DC387F37EC388F3CDDF35
:1000B2004F0E856F000E866F7FC387F380C388F370
:0E00C200C4DF220E896F000E8A6FB3DF1200BA
:1000D0003EC302F03FC303F002C000F003C001F0D2
:1000E000024A032A00C0E9FF01C0EAFFEE5201E024
:1000F000F3D703013E51025C006E3F510358016E7D
:0A010000010E005E000E015A12000D
:10010A0003014351080AD8A4B4D0200E486F200E28
:10011A00496F000E4A6F200E3E5D036E046A000EA0
:10012A00045A030E026E03C000F004C001F002502C
:10013A0005E0003600900136FF0FFAD70050482735
:10014A0001504923000E4A237B6B7B51070821E3A8
:10015A007BC300F0000E016E0036009001364B0E94
:10016A000024E16E030E0120E26E48C3F6FF49C384
:10017A00F7FF4AC3F8FF0900F5CF00F000C0E6FF19
:10018A00000EE66E010E4827000E49234A237B2BF8
:10019A00DCD789963FC37DF340C37EF341C37FF327
:1001AA0042C380F3070E3F25816F000E4021826F04
:1001BA00070E4125836F000E4221846F4DDF7C6B51
:1001CA007C51070854E37B6B7B5107084EE37CC3E1
:1001DA0000F0000E016E0036009001364B0E00242E
:1001EA00E96E030E0120EA6E800EEE14026E070E0F
:1001FA00006E02C001F0005004E00132019EFF0FC0
:10020A00FBD70150010A06E144C389F345C38AF3C7
:10021A0000DF05D046C389F347C38AF3FADE7CC3FD
:10022A0000F0000E016E0036009001364B0E0024DD
:10023A00056E030E0120066E05C0E9FF06C0EAFF3F
:10024A00EECF03F0EECF04F003C000F004C001F0DB
:10025A0000360090013605C0E1FF06C0E2FF00C08B
:10026A00E6FF01C0E6FF7B2BAFD77C2BA9D7898697
:10027A0011D14351100AD8A40DD1400E486F140E63
:10028A00496F000E4A6F200E3E5D036E046A000E2F
:10029A00045A050E026E03C000F004C001F00250B9
:1002AA0005E0003600900136FF0FFAD700504827C4
:1002BA0001504923000E4A237B6B7B510F0872E3DE
:1002CA007BC300F0000E016E0036009001365B0E13
:1002DA000024E16E030E0120E26E48C3F6FF49C313
:1002EA00F7FF4AC3F8FF0900F5CF00F000C0E6FFA8
:1002FA00000EE66E010E4827000E49234A237BC3EF
:10030A0000F0000E016E0036009001365B0E0024EC
:10031A00056E030E0120066E05C0E9FF06C0EAFF5E
:10032A00EECF03F0EECF04F003C001F0006A05C07F
:10033A00E1FF06C0E2FF00C0E6FF01C0E6FF7BC3A3
:10034A0000F0000E016E0036009001365B0E0024AC
:10035A00046E030E0120056E04C0E9FF05C0EAFF22
:10036A00EECF02F0EECF03F048C3F6FF49C3F7FF22
:10037A004AC3F8FF0900F5CF00F0000E016E0250E3
:10038A0000260350012204C0E1FF05C0E2FF00C0BD
:10039A00E6FF01C0E6FF010E4827000E49234A2363
:1003AA007B2B8BD789963FC37DF340C37EF341C332
:1003BA007FF342C380F30F0E3F25816F000E402169
:1003CA00826F0F0E4125836F000E4221846F44DE37
:1003DA007C6B7C510F085DE37B6B7B510F0857E305
:1003EA007CC300F0000E016E0036009001365B0EF1
:1003FA000024E96E030E0120EA6E000EEE14036E6D
:10040A00EE50800B046E0F0E006E03C001F004C0A4
:10041A0002F0005005E002320132029EFF0FFAD7C5
:10042A00000E021802E1010E011806E144C389F325
:10043A0045C38AF3EEDD05D046C389F347C38AF381
:10044A00E8DD7CC300F0000E016E00360090013634
:10045A005B0E0024056E030E0120066E05C0E9FF3F
:10046A0006C0EAFFEECF03F0EECF04F003C000F0BF
:10047A0004C001F000360090013605C0E1FF06C055
:10048A00E2FF00C0E6FF01C0E6FF7B2BA6D77C2B6C
:06049A00A0D789861200C4
:1004A00089963EC37DF33FC37EF340C37FF341C3D0
:1004B00080F342C381F343C382F344C383F345C350
:1004C00084F3CFDD46C389F347C38AF3A7DD40C376
:1004D00048F341C349F34951455D02E14851445D48
:1004E00012E33EC34AF33FC34BF34B51435D02E17A
:1004F0004A51425D05E3899289824A4B4B2BF5D7DD
:0A050000484B492BE8D7898612000A
:10050A00899603017D6B7E6B7F6B806BEF0E816F2B
:10051A00000E826F3F0E836F010E846F9DDD17C33D
:10052A0089F318C38AF375DD196B1A6B1A5101081E
:10053A0002E119513F0812E31B6B1C6B000E006E9F
:10054A001C51005C02E11B51EF0805E38992898284
:10055A001B4B1C2BF3D7194B1A2BE8D78986120091
:10056A008984898A0D0E0C6EFB0E0D6E0D2EFED738
:10057A000C2EFCD700000000899A270E0C6EF50E8F
:10058A000D6E0D2EFED70C2EFCD7898A270E0C6E07
:10059A00F50E0D6E0D2EFED70C2EFCD78996030193
:1005AA00856B866B010E876F000E886F4ADD030E1E
:1005BA00856F000E866FA40E876FA80E886F41DDC7
:1005CA000C0E856F000E866F876B886B3ADD0D0EF9
:1005DA00856F000E866F0C0E876F800E886F31DD77
:1005EA000E0E856F000E866F000E876F2B0E886FBA
:1005FA0028DD1E0E856F000E866FB70E876F000E00
:10060A00886F1FDD010E856F000E866F3F0E876FA4
:10061A002B0E886F16DD020E856F000E866F000E98
:10062A00876F060E886F0DDD100E856F000E866FC0
:10063A00876B886B06DD110E856F000E866F700E54
:10064A00876F600E886FFDDC050E856F000E866F62
:10065A00876B886BF6DC060E856F000E866F876BDC
:10066A00886BEFDC160E856F000E866F1C0E876F87
:10067A00EF0E886FE6DC170E856F000E866F030E8D
:10068A00876F000E886FDDDC070E856F000E866FA0
:10069A00330E876F020E886FD4DC0B0E856F000E47
:1006AA00866F876B886BCDDC0F0E856F000E866FA9
:1006BA00876B886BC6DC410E856F000E866F876B71
:1006CA00886BBFDC420E856F000E866F876B886B66
:1006DA00B8DC480E856F000E866F876B886BB1DCBD
:1006EA00490E856F000E866F3F0E876F010E886F69
:1006FA00A8DC4A0E856F000E866F876B886BA1DCBB
:10070A004B0E856F000E866F876B886B9ADC440EE2
:10071A00856F000E866F950E876FEF0E886F91DCDE
:10072A00450E856F000E866F876B886B8ADC460ED6
:10073A00856F000E866F3F0E876F010E886F81DC12
:10074A00300E856F000E866F070E876F070E886F53
:10075A0078DC310E856F000E866F040E876F020EED
:10076A00886F6FDC320E856F000E866F040E876FFE
:10077A00020E886F66DC330E856F000E866F020EDE
:10078A00876F050E886F5DDC340E856F000E866FED
:10079A00070E876F050E886F54DC350E856F000EC5
:1007AA00866F040E876F020E886F4BDC360E856FDC
:1007BA00000E866F040E876F020E886F42DC370EBA
:1007CA00856F000E866F020E876F050E886F39DC03
:1007DA003A0E856F000E866F020E876F030E886FC2
:1007EA0030DC3B0E856F000E866F020E876F030E9C
:1007FA00886F27DC230E856F000E866F876B886BE8
:10080A0020DC240E856F000E866F876B886B19DCDF
:10081A00250E856F000E866F000E876F800E886F1B
:10082A0010DC4F0E856F000E866F876B886B09DCB4
:10083A004E0E856F000E866F876B886B02DC220E68
:0E084A00896F000E8A6F1AEC00F0898612008A
:100858000900F5CFE6FF0006FBE10106F9E1120009
:1008680017C33EF3000E03013F6F19C340F31AC3C9
:1008780041F318C342F3000E436F010E1925446F6C
:10088800000E1A21456F1BC346F31CC347F304DE51
:0208980012004C
:10089A000B6A0A6A096A00500402F4CF09F0F3CF1E
:1008AA0008F001500502F4CF0BF0F3CF0AF0005024
:1008BA000502F3500926F4500A22E86A0B22015075
:1008CA000402F3500926F4500A22E86A0B2208C0EF
:1008DA0000F009C001F00AC002F00BC003F01200D8
:1008EA0017C33EF318C33FF368EC00F000C022F3CD
:1008FA0001C023F3246B256B010E225D016E000EED
:10090A002359026E800E0218006E800E2519005CB3
:10091A0002E12451015C11E3260E2425E16E030E47
:10092A002521E26E24511725E96E25511821EA6E18
:10093A00EECFE6FF244B252BDFD71D51080A36E1FF
:10094A00246B256B010E225D016E000E2359026E87
:10095A00800E0218006E800E2519005C02E12451F7
:10096A00015C23E3260E2425E96E030E2521EA6E97
:10097A00EECF3EF319C33FF31AC340F31BC341F34F
:10098A001CC342F31DC343F31EC344F31FC345F301
:10099A0020C346F321C347F385EC00F0080E19275C
:1009AA00000E1A23244B252BCDD738D01D51100AFF
:1009BA0035E1246B256B010E225D016E000E235971
:1009CA00026E800E0218006E800E2519005C02E18C
:1009DA002451015C23E3260E2425E96E030E25210A
:1009EA00EA6EEECF3EF319C33FF31AC340F31BC3BB
:1009FA0041F31CC342F31DC343F31EC344F31FC395
:100A0A0045F320C346F321C347F385EC00F0100EEB
:0E0A1A001927000E1A23244B252BCDD71200CE
:100A280015EC13F00F0EC26E0F0EC16E070EB41246
:100A3800926A936A956A966A896A8A6A8C6A8D6AE2
:100A480090DD176B186B5DDD350E176F000E186F94
:100A5800320E196F000E1A6F140E1B6F000E1C6FEA
:100A6800100E1D6F1E6B1F6BFF0E206FFF0E216F88
:100A780038DF3E0E176F000E186F140E196F000E38
:100A88001A6F280E1B6F000E1C6F100E1D6F1E6B49
:100A98001F6BFF0E206FFF0E216F23DF4B0E176FAA
:100AA800000E186F190E196F000E1A6F500E1B6F7B
:100AB800000E1C6F100E1D6F1E6B1F6BFF0E206F3C
:100AC800FF0E216F0EDF250E176F000E186F3C0EFC
:100AD800196F000E1A6FCD0E1B6F000E1C6F080EDB
:100AE8001D6F1E6B1F6BFF0E206FFF0E216FF9DE4F
:100AF800520E0B6E2B0E0C6E000E0D6E0D2EFED7C9
:100B08000C2EFCD70B2EFAD700008A0E176F520E48
:100B1800186FF7DC3E6B3F6B220E406F010E416F82
:100B2800EF0E426F000E436F3F0E446F010E456F8C
:100B38008A0E466F520E476FAFDC150E176F000E08
:100B4800186F196B1A6B270E1B6F010E1C6F100E96
:100B58001D6FFF0E1E6FFF0E1F6F8A0E206F520E45
:100B6800216FBFDE176BEF0E186F220E196F010E83
:100B78001A6FEF0E1B6F7B0E1C6F72DE0F6B106B04
:100B8800000E105D02E1180E0F5DD8B091D0116B08
:100B9800126B000E125D02E11D0E115DD8B085D0FA
:100BA800180E006E000E016E11C304F012C305F09A
:100BB80070DE570E0026000E01220F510024E96E48
:100BC80010510120EA6EEE50010A2FE10FC300F028
:100BD80010C301F00A0E046E000E056E5ADE00C046
:100BE80015F301C016F315C33EF316C33FF311C343
:100BF80000F012C301F00A0E046E000E056E49DE05
:100C080000C040F301C041F3090E1525426F000EE4
:100C18001621436F090E0024446F000E0120456F12
:100C2800E00E466FFF0E476F37DC0FC300F010C3AE
:100C380001F00A0E046E000E056E2BDE00C03EF3B6
:100C480001C03FF3406B416B010E0024426F000E60
:100C58000120436F210E446F010E456FEF0E466F62
:100C68007B0E476F19DC3E6B3F6B11C300F012C35C
:100C780001F00A0E046E000E056E0BDE00C040F394
:100C880001C041F3EF0E426F000E436F010E0024C6
:100C9800446F000E0120456FEF0E466F7B0E476FC5
:100CA80050EC02F0114B122B74D70F4B102B68D756
:100CB8000F6B106B000E105D02E1180E0F5DD8B0BF
:100CC8008ED2116B126B000E125D02E11D0E115DCA
:100CD800D8B082D2136B146B000E101902E1000E0B
:100CE8000F1901E106D2000E101902E1170E0F19B3
:100CF80001E1FFD1000E121902E1000E111901E104
:100D0800F8D1000E121902E11C0E111901E1F1D1FE
:100D1800010E1125006E000E1221016E180E046ED0
:100D2800000E056EB6DD570E0026000E01220F518B
:100D38000024E96E10510120EA6EEE50010A19E014
:100D4800010E1125006E000E1221016E180E046EA0
:100D5800000E056E9EDD570E0026000E01220F5173
:100D68000024E96E10510120EA6EEE50030A01E0FA
:100D780002D0134B142B010E1125006E000E122108
:100D8800016E180E046E000E056E83DD570E0024EA
:100D9800026E000E0120036E010E0F25006E000E7C
:100DA8001021016E00500224E96E01500320EA6E02
:100DB800EE50010A21E0010E1125006E000E1221ED
:100DC800016E180E046E000E056E63DD570E0024CA
:100DD800026E000E0120036E010E0F25006E000E3C
:100DE8001021016E00500224E96E01500320EA6EC2
:100DF800EE50030A01E002D0134B142B010E11250B
:100E0800006E000E1221016E180E046E000E056EA3
:100E180040DD570E0024026E000E0120036E010E05
:100E28000F5D006E000E1059016E00500224E96E2D
:100E380001500320EA6EEE50010A21E0010E11254F
:100E4800006E000E1221016E180E046E000E056E63
:100E580020DD570E0024026E000E0120036E010EE5
:100E68000F5D006E000E1059016E00500224E96EED
:100E780001500320EA6EEE50030A01E002D0134B42
:100E8800142B180E006E000E016E11C304F012C36D
:100E980005F0FFDC570E0024026E000E0120036EE1
:100EA800010E0F25006E000E1021016E0050022465
:100EB800E96E01500320EA6EEE50010A1FE0180E99
:100EC800006E000E016E11C304F012C305F0E1DCE0
:100ED800570E0024026E000E0120036E010E0F252E
:100EE800006E000E1021016E00500224E96E0150C0
:100EF8000320EA6EEE50030A01E002D0134B142BD4
:100F0800180E006E000E016E11C304F012C305F036
:100F1800C0DC570E0024026E000E0120036E010E85
:100F28000F5D006E000E1059016E00500224E96E2C
:100F380001500320EA6EEE50010A1FE0180E006E01
:100F4800000E016E11C304F012C305F0A2DC570EA7
:100F58000024026E000E0120036E010E0F5D006E6C
:100F6800000E1059016E00500224E96E0150032052
:100F7800EA6EEE50030A01E002D0134B142B010E67
:100F8800115D006E000E1259016E180E046E000EEF
:100F9800056E7FDC570E0026000E01220F5100243B
:100FA800E96E10510120EA6EEE50010A19E0010EB7
:100FB800115D006E000E1259016E180E046E000EBF
:100FC800056E67DC570E0026000E01220F51002423
:100FD800E96E10510120EA6EEE50030A01E002D0DA
:100FE800134B142B010E115D006E000E1259016E89
:100FF800180E046E000E056E4CDC570E0024026EAF
:10100800000E0120036E010E0F25006E000E102148
:10101800016E00500224E96E01500320EA6EEE5082
:10102800010A21E0010E115D006E000E1259016ED9
:10103800180E046E000E056E2CDC570E0024026E8E
:10104800000E0120036E010E0F25006E000E102108
:10105800016E00500224E96E01500320EA6EEE5042
:10106800030A01E002D0134B142B010E115D006E30
:10107800000E1259016E180E046E000E056E09DC82
:10108800570E0024026E000E0120036E010E0F5D44
:10109800006E000E1059016E00500224E96E0150D6
:1010A8000320EA6EEE50010A22E0010E115D006E87
:1010B800000E1259016E180E046E000E056E4DECEE
:1010C80004F0570E0024026E000E0120036E010E7C
:1010D8000F5D006E000E1059016E00500224E96E7B
:1010E80001500320EA6EEE50030A01E002D0134BD0
:1010F800142B000E141902E1030E13192EE1180E19
:10110800006E000E016E11C304F012C305F04DEC21
:1011180004F0570E0026000E01220F510024E96E3C
:1011280010510120EA6EEE50000A17E1180E006E09
:10113800000E016E11C304F012C305F04DEC04F06B
:10114800570E0026000E01220F510024E16E1051A7
:101158000120E26E020EE66E3CD0000E006E1451C5
:10116800005C02E11351030807E3000E145D02E17D
:10117800020E135D01E32DD0180E006E000E016EF5
:1011880011C304F012C305F04DEC04F0570E00260D
:10119800000E01220F510024E96E10510120EA6E61
:1011A800EE50010A16E1180E006E000E016E11C312
:1011B80004F012C305F04DEC04F0570E0026000EA3
:1011C80001220F510024E16E10510120E26E030E3E
:1011D800E66E114B122B77D50F4B102B6BD50F6B7F
:1011E800106B000E105D02E1180E0F5DD8B022D111
:1011F800116B126B000E125D02E11D0E115DD8B06D
:1012080016D1180E006E000E016E11C304F012C341
:1012180005F04DEC04F0570E0026000E01220F5188
:101228000024E96E10510120EA6EEE50020A4DE1E9
:10123800180E006E000E016E11C304F012C305F003
:101248004DEC04F0570E0026000E01220F51002429
:10125800E16E10510120E26E010EE66E0FC300F040
:1012680010C301F00A0E046E000E056E4DEC04F07A
:1012780000C015F301C016F3020E15253E6F000ECF
:1012880016213F6F11C300F012C301F00A0E046E5D
:10129800000E056E4DEC04F0020E0024406F000EA7
:1012A8000120416F090E1525426F000E1621436F6C
:1012B800090E0024446F000E0120456FFF0E466F93
:1012C800070E476F50EC02F0AFD0180E006E000EFC
:1012D800016E11C304F012C305F04DEC04F0570E73
:1012E8000026000E01220F510024E96E1051012042
:1012F800EA6EEE50030A4AE1180E006E000E016E07
:1013080011C304F012C305F04DEC04F0570E00268B
:10131800000E01220F510024E16E10510120E26EEF
:10132800E66A0FC300F010C301F00A0E046E000E47
:10133800056E4DEC04F000C015F301C016F3020E63
:1013480015253E6F000E16213F6F11C300F012C322
:1013580001F00A0E046E000E056E4DEC04F0020E4C
:101368000024406F000E0120416F090E1525426FC1
:10137800000E1621436F090E0024446F000E012051
:10138800456F466B476B50EC02F04ED0180E006E5E
:10139800000E016E11C304F012C305F04DEC04F009
:1013A800570E0026000E01220F510024E96E10513D
:1013B8000120EA6EEE50010A37E10FC300F010C3B6
:1013C80001F00A0E046E000E056E4DEC04F000C02C
:1013D80015F301C016F3020E15253E6F000E1621F7
:1013E8003F6F11C300F012C301F00A0E046E000E25
:1013F800056E4DEC04F0020E0024406F000E012033
:10140800416F090E1525426F000E1621436F090E14
:101418000024446F000E0120456FE00E466FFF0E5A
:10142800476F50EC02F000D0114B122BE3D60F4B54
:08143800102BD7D63DD4FFD7DD
:10262A0010EE15F0FA0E006E030E016E300EF66E05
:0E263A00230EF76E000EF86E2CEC04F012006A
:10144000000000000000000000000000000000009C
:10145000000000000000000000000000000000008C
:101460000000000007000F800F800F800F800F80AA
:101470000700070000000000070007000700000049
:1014800000000E380E380E380E380630000000000E
:10149000000000000000000000000000000000004C
:1014A00000000C300C300C307FFE7FFE0C300C3016
:1014B0000C300C307FFE7FFE0C300C300C30000006
:1014C0000000024002400FF81FF81A401A401FF0B7
:1014D0000FF8025802581FF81FF0024002400000A7
:1014E0000000000000000E100E300E7000E001C081
:1014F000038007000E700C700870000000000000F0
:10150000000000000F001980198019800F000F08DB
:101510000F9819F818F018E019F00F980000000063
:10152000000000000700070007000E000000000098
:1015300000000000000000000000000000000000AB
:101540000000000000F001C0038007000E000E0044
:101550000E000E000700038001C000F00000000034
:10156000000000000F00038001C000E00070007068
:101570000070007000E001C003800F000000000058
:101580000000000001801188099007E007E03FFC9F
:101590003FFC07E007E0099011880180000000008F
:1015A00000000000000000000180018001800FF0B9
:1015B0000FF00180018001800000000000000000A9
:1015C000000000000000000000000000000000001B
:1015D0000000000000000700070007000E000000E8
:1015E00000000000000000000000000000001FF8E4
:1015F0001FF80000000000000000000000000000D4
:1016000000000000000000000000000000000000DA
:1016100000000000000007000700070000000000B5
:101620000000000000020006000E001C00380070E0
:1016300000E001C0038007000E001C000000000055
:10164000000000000FF01C381C781CF81CF81DB8B6
:101650001DB81F381F381E381C380FF0000000005E
:10166000000000000180018003801F801F80038034
:10167000038003800380038003801FF000000000CC
:10168000000000000FE01C701C380038007000E003
:1016900001C0038007000E381C381FF8000000004E
:1016A000000000000FE01C701C380038007003C000
:1016B00003C0007000381C381C700FE000000000F0
:1016C0000000000000E001E003E006E00CE018E0AC
:1016D0001FF81FF800E000E000E003F80000000041
:1016E000000000001FF81C001C001C001C001FE074
:1016F0001FF0007800381C381C700FE0000000005C
:101700000000000003E007000E001C001C001FF09A
:101710001FF81C381C381C381C380FF00000000063
:10172000000000001FFC1C1C1C1C1C1C001C0038A2
:10173000007000E001C0038003800380000000000F
:10174000000000000FF01C381C381C381F3807E060
:1017500007E01CF81C381C381C380FF00000000093
:10176000000000000FF01C381C381C381C381FF813
:101770000FF800380038007000E007C000000000DB
:1017800000000000000000000380038003800000D0
:1017900000000380038003800000000000000000C0
:1017A00000000000000000000380038003800000B0
:1017B0000000038003800380070000000000000099
:1017C0000000007000E001C0038007000E001C0054
:1017D0001C000E000700038001C000E00070000044
:1017E000000000000000000000003FFC3FFC000083
:1017F00000003FFC3FFC0000000000000000000073
:1018000000001C000E000700038001C000E0007013
:10181000007000E001C0038007000E001C00000003
:10182000000003C00FF01E7818380038007000E088
:1018300001C001C00000000001C001C001C00000E3
:1018400000000FF81C1C1C1C1C1C1C1C1CFC1CFC81
:101850001CFC1CFC1C001C001C001FF007F80000F6
:101860000000000003C007E00E701C381C381C3854
:101870001C381FF81C381C381C381C3800000000AD
:10188000000000001FF00E380E380E380E380FF032
:101890000FF00E380E380E380E381FF00000000022
:1018A0000000000007F00E381C381C001C001C0053
:1018B0001C001C001C001C380E3807F00000000043
:1018C000000000001FE00E700E380E380E380E3883
:1018D0000E380E380E380E380E701FE00000000073
:1018E000000000001FF80E180E080E000E300FF05A
:1018F0000FF00E300E000E080E181FF8000000004A
:10190000000000001FF80E180E080E000E300FF039
:101910000FF00E300E000E000E001F000000000041
:101920000000000007F00E381C381C381C001C009A
:101930001C001CF81C381C380E3807F8000000008A
:10194000000000001C701C701C701C701C701FF0CC
:101950001FF01C701C701C701C701C7000000000BC
:10196000000000000FE003800380038003800380F9
:10197000038003800380038003800FE000000000E9
:101980000000000001FC007000700070007000702A
:10199000007038703870387038700FE00000000048
:1019A000000000001E380E380E700EE00FC00F80D1
:1019B0000F800FC00EE00E700E381E3800000000C1
:1019C000000000001F000E000E000E000E000E00B2
:1019D0000E000E000E080E180E381FF80000000052
:1019E000000000001C1C1E3C1F7C1FFC1FFC1DDC9B
:1019F0001C9C1C1C1C1C1C1C1C1C1C1C0000000017
:101A0000000000001C1C1C1C1E1C1F1C1F9C1DDC3D
:101A10001CFC1C7C1C3C1C1C1C1C1C1C0000000016
:101A20000000000003E007F00E381C1C1C1C1C1CEE
:101A30001C1C1C1C1C1C0E3807F003E000000000DE
:101A4000000000001FF00E380E380E380E380FF070
:101A50000FF00E000E000E000E001F000000000030
:101A60000000000003E00F780E381C1C1C1C1C1C1E
:101A70001C1C1C7C1CFC0FF80FF8003800FC00003C
:101A8000000000001FF00E380E380E380E380FF030
:101A90000FF00E700E380E380E381E3800000000A1
:101AA000000000000FF01C381C381C381C000FE030
:101AB00007F000381C381C381C380FF000000000FC
:101AC000000000001FFC19CC11C401C001C001C0FE
:101AD00001C001C001C001C001C007F0000000004A
:101AE000000000001C701C701C701C701C701C70AE
:101AF0001C701C701C701C701C700FE0000000003B
:101B0000000000001C701C701C701C701C701C708D
:101B10001C701C701C700EE007C0038000000000E9
:101B2000000000001C1C1C1C1C1C1C1C1C1C1C9CE5
:101B30001C9C1C9C0FF80FF8077007700000000039
:101B4000000000001C701C701C700EE007C00380B9
:101B5000038007C00EE01C701C701C7000000000A9
:101B6000000000001C701C701C701C701C700EE0CB
:101B700007C003800380038003800FE000000000A3
:101B8000000000001FF81C381838107000E001C079
:101B9000038007000E081C181C381FF80000000006
:101BA0000000000007F0070007000700070007001B
:101BB0000700070007000700070007F0000000000B
:101BC00000000000100018001C000E000700038039
:101BD00001C000E000700038001C00070000000099
:101BE0000000000007F000700070007000700070CE
:101BF0000070007000700070007007F000000000BE
:101C00000000018003C007E00E701C3800000000D7
:101C100000000000000000000000000000000000C4
:101C200000000000000000000000000000000000B4
:101C30000000000000000000000000007FFF7FFFA8
:101C4000000000001C001C0007000700000000004E
:101C50000000000000000000000000000000000084
:101C60000000000000000000000000000FE0007015
:101C700000700FF01C701C701C700FD8000000006A
:101C8000000000001E000E000E000E000FF00E38C7
:101C90000E380E380E380E380E381BF000000000DB
:101CA0000000000000000000000000000FE01C70B9
:101CB0001C701C001C001C701C700FE00000000059
:101CC0000000000000F80070007000700FF01C7041
:101CD0001C701C701C701C701C700FD80000000061
:101CE0000000000000000000000000000FE01C7079
:101CF0001C701FF01C001C701C700FE00000000026
:101D00000000000003E007700770070007001FE0F5
:101D10001FE007000700070007001FC000000000C9
:101D20000000000000000000000000000FD81C7040
:101D30001C701C701C700FF007F000701C700FE01E
:101D4000000000001E000E000E000E000EF00F3806
:101D50000F380E380E380E380E381E3800000000CE
:101D60000000000001C001C001C000000FC001C0A0
:101D700001C001C001C001C001C00FF80000000097
:101D800000000000007000700070000003F00070A0
:101D9000007000700070007000701C700CF007E0A4
:101DA000000000001E000E000E000E000E380E7027
:101DB0000EE00FC00EE00E700E381E38000000005E
:101DC000000000000FC001C001C001C001C001C07F
:101DD00001C001C001C001C001C00FF80000000037
:101DE0000000000000000000000000001FF81C9C24
:101DF0001C9C1C9C1C9C1C9C1C9C1C9C0000000093
:101E00000000000000000000000000001FE01C7047
:101E10001C701C701C701C701C701C70000000007A
:101E20000000000000000000000000000FE01C7037
:101E30001C701C701C701C701C700FE000000000F7
:101E40000000000000000000000000001BF00E3841
:101E50000E380E380E380E380FF00E000E001F0030
:101E60000000000000000000000000001FB038E08B
:101E700038E038E038E038E01FE000E000E001F052
:101E80000000000000000000000000001EF00FF83D
:101E90000F380E000E000E000E001F0000000000A4
:101EA0000000000000000000000000000FE01C30F7
:101EB0001C300F8003E0187018700FE00000000065
:101EC0000000000000000100030007001FF00700F1
:101ED0000700070007000770077003E0000000001C
:101EE0000000000000000000000000001C701C70DA
:101EF0001C701C701C701C701C700FD8000000003F
:101F00000000000000000000000000001C701C70B9
:101F10001C701C701C700EE007C0038000000000E5
:101F20000000000000000000000000001C1C1C1C41
:101F30001C1C1C9C1C9C0FF8077007700000000004
:101F40000000000000000000000000001CE01CE099
:101F50000FC0078007800FC01CE01CE000000000DD
:101F60000000000000000000000000000E380E38E5
:101F70000E380E380E3807F003E000E001C01F8075
:101F80000000000000000000000000001FE018E05A
:101F900011C0038007000E201C601FE0000000003D
:101FA0000000000001F803800380038007001C008C
:101FB0001C00070003800380038001F8000000007C
:101FC000000001C001C001C001C001C001C001C0CA
:101FD00001C001C001C001C001C001C001C00000BA
:101FE000000000001F8001C001C001C000E00038F7
:101FF000003800E001C001C001C01F8000000000E7
:10200000000000001F1C3B9C39DC38F80000000079
:1020100000000000000000000000000000000000C0
:102020000000000000000000307878303000300000
:102030006C6C6C00000000006C6CFE6CFE6C6C0044
:10204000183E603C067C18000063660C1833630081
:102050001C361C3B6E663B00303060000000000008
:102060000C18303030180C0030180C0C0C183000E4
:1020700000663CFF3C660000003030FC3030000061
:1020800000000000001818300000007E0000000072
:10209000000000000018180003060C183060400013
:1020A0003E63636B63633E001838581818187E004F
:1020B0003C66061C30667E003C66061C06663C00DC
:1020C0000E1E36667F060F007E607C0606663C00AC
:1020D0001C30607C66663C007E66060C1818180092
:1020E0003C66663C66663C003C66663E060C380014
:1020F00000181800001818000018180000181830F0
:102100000C18306030180C0000007E00007E0000CB
:1021100030180C060C1830003C66060C180018002D
:102120003E636F696F603E00183C66667E666600BF
:102130007E33333E33337E001E33606060331E00D7
:102140007C36333333367C007F31343C34317F008E
:102150007F31343C343078001E33606067331F00B9
:102160006666667E666666003C18181818183C009D
:102170000F06060666663C007333363C3633730042
:102180007830303031337F0063777F7F6B6363005B
:1021900063737B6F676363003E63636363633E00E7
:1021A0007E33333E303078003C6666666E3C0E000F
:1021B0007E33333E363373003C6630180C663C0089
:1021C0007E5A181818183C006666666666667E00B9
:1021D00066666666663C18006363636B7F776300C0
:1021E0006363361C1C3663006666663C18183C0048
:1021F0007F63460C19337F003C30303030303C0078
:102200006030180C060301003C0C0C0C0C0C3C005C
:10221000081C36630000000000000000000000FF02
:1022200018180C000000000000003C063E663B0051
:1022300070303E3333336E0000003C6660663C0015
:102240000E063E6666663B0000003C667E603C0013
:102250001C3630783030780000003B66663E067CE5
:102260007030363B333373001800381818183C00B0
:10227000060006060666663C703033363C36730050
:102280003818181818183C000000667F7F6B630030
:1022900000007C666666660000003C6666663C0080
:1022A00000006E33333E307800003B66663E060F1A
:1022B00000006E3B3330780000003E603C067C003E
:1022C00008183E18181A0C000000666666663B0087
:1022D00000006666663C18000000636B7F7F360076
:1022E000000063361C36630000006666663E067CAE
:1022F00000007E4C18327E000E18187018180E0060
:102300000C0C0C000C0C0C007018180E1818700037
:102310003B6E0000000000001C36361C0000000070
:10232000609090600000000022777F7F3E1C0800D4
:10233000484D5350726F6A656374732E636F6D00FE
:10234000484D5350726F6A656374732E636F6D00EE
:09235000436F6E77617927730079
:0D23590047616D65206F66204C6966650068
:0C236600482E20536D656974696E6B0091
:10237200000000000000000000000000000000005B
:10238200000000000000000000000000000000004B
:10239200000000000000000000000000000100003A
:1023A200000000000000000000000000000000002B
:1023B200000000000001000000000000000000001A
:1023C200000000000000000000000000000100000A
:1023D20000000000000000000000000000000000FB
:1023E20000000000000000000000000000000000EB
:1023F20000000000000000000000000000000000DB
:1024020000000000000000000001000100010000C7
:1024120000000000000000000000000000000000BA
:1024220000010000000100000000000000000000A8
:102432000000000000000000000100000001000098
:10244200000000000000000000000000000000008A
:102452000001000000010000000000000000000078
:102462000000000000000000000100010001000067
:10247200000000000000000000000000000000005A
:10248200000000000000000000000000000000004A
:10249200000000000000000000000000000000003A
:1024A200000000000000000000000000000000002A
:1024B200000000000000000000000000000000001A
:1024C2000001010000000000000000000000000008
:1024D20000000000000000000001010000000000F8
:1024E20000000000000000000000000000000000EA
:1024F20000000000000000000000000000000000DA
:1025020000000000000000000000000000000000C9
:1025120000000000000000000000000000000000B9
:1025220000000000000000000000000000000000A9
:102532000000000000010000000000000000000098
:102542000000000000000000000000000100000088
:102552000000000000000000000000000000000079
:102562000000000001010100000000000101010162
:102572000101010101010000000000000000000053
:102582000000000000000000000000000000000049
:102592000000000000000000000000000000000039
:1025A2000000000000000000000000000000000029
:1025B2000000000000000000000000000000000019
:1025C2000000000000000000000000000000000009
:1025D20000000000000000000000000000000000F9
:1025E20000000000000000000000000000000000E9
:1025F20000000000000000000000000000000000D9
:1026020000000000000000000000000000000000C8
:1026120000000000000000000000000000000000B8
:082622000000000000000000B0
:020000040030CA
:0E000000210C1F1EFF8381FF0FC00FE00F4079
:00000001FF
