S01700006176725F6C69625F6D6D61373435352E73726563BF
S11300000C942A000C9447000C9447000C9447006D
S11300100C9447000C9447000C9447000C94470040
S11300200C9447000C9447000C9447000C94470030
S11300300C9447000C9447000C9447000C94470020
S11300400C9447000C9447000C9447000C94470010
S11300500C94470011241FBECFE5D4E0DEBFCDBF12
S113006010E0A0E6B0E0E2E7F8E002C005900D92EF
S1130070A236B107D9F720E0A2E6B0E001C01D9294
S1130080A239B207E1F70E94A6000C9437040C943D
S1130090000011B880EC80B9089594EA96BF06B6C2
S11300A007FEFDCF91B1987F983011F0903179F42B
S11300B083B984E886BF06B607FEFDCF91B1987F69
S11300C0983139F081E0903429F480E0089581E09A
S11300D0089580E0089524EA34E844E926BF06B68A
S11300E007FEFDCF91B1987F983011F09031B1F7B0
S11300F083B936BF06B607FEFDCF91B1987F903223
S113010011F0983529F446BF06B604FCFDCFE6CFBE
S113011008950E944D00089584E986BF06B604FC44
S1130120FDCF089583B984E886BF06B607FEFDCFE8
S113013091B1987F81E0983209F480E0089584E8D1
S113014086BF06B607FEFDCF83B10895CF93DF9334
S1130150CDB7DEB72C970FB6F894DEBF0FBECDBF78
S113016019821A821B821C821D821E821F8218869B
S113017019861A861B861C8685E090E00E9454022C
S113018078940E94F500AE01475F5F4FBE016B5F3C
S11301907F4FCE0101960E94180189810E94680256
S11301A08A810E9468028B810E9468028C810E946D
S11301B068028D810E9468028E810E9468028F818C
S11301C00E94680288850E94680289850E946802EC
S11301D08A850E9468028B850E9468028C850E9431
S11301E068028AE00E946802CECF0E94490083E040
S11301F08A95F1F700008AE30E946B0086E10E9471
S1130200920085E00E9492000E948C0008958AE387
S11302100E946B008AE30E94890089E00E94920098
S11302208BE30E9489000E949F0080FFF3CF089512
S11302308F929F92AF92BF92CF92DF92EF92FF92F2
S11302400F931F93CF93DF937C018B01EA010E94EC
S113025007018AE30E946B0086E00E9492008BE310
S11302600E9489000E949F00B82E8AE30E948900A0
S113027087E00E9492008BE30E9489000E949F0005
S1130280C82E8AE30E94890088E00E9492008BE3D2
S11302900E9489000E949F00D82E0E948C006B2D22
S11302A0772767FD7095872F972F0E94480320E0DA
S11302B030E04AE752E40E94DE022FE832EC45EFD8
S11302C05DE30E947A02F7016083718382839383E2
S11302D06C2D772767FD7095872F972F0E94480311
S11302E020E030E041E852E40E94DE0221E73DE3F1
S11302F04AE85EE30E947A02F80160837183828394
S113030093836D2D772767FD7095872F972F0E9414
S1130310480320E030E04AE752E40E94DE022AE08B
S113032037ED43E25DE30E947902688379838A832F
S11303309B838091600081118FC020E030E040E415
S11303405FE360916A0070916B0080916C00909102
S11303506D000E94D4034B015C0120E030E040E8D2
S11303605EE3F70160817181828193810E94D403ED
S11303709B01AC01C501B4010E947A02F7016083BC
S113038071838283938360936A0070936B0080937C
S11303906C0090936D0020E030E040E45FE36091F6
S11303A066007091670080916800909169000E94D6
S11303B0D4036B017C0120E030E040E85EE3F80107
S11303C060817181828193810E94D4039B01AC017D
S11303D0C701B6010E947A02F801608371838283A7
S11303E09383609366007093670080936800909392
S11303F0690020E030E040E45FE3609162007091C6
S1130400630080916400909165000E94D4036B01A5
S11304107C0120E030E040E85EE3688179818A81F4
S11304209B810E94D4039B01AC01C701B6010E94C9
S11304307A02688379838A839B8388819981AA81DC
S1130440BB818093620090936300A0936400B09397
S11304506500109260001BC0F70180819181A28128
S1130460B38180936A0090936B00A0936C00B09367
S11304706D00F80180819181A281B381809366002F
S113048090936700A0936800B0936900D6CFDF9182
S1130490CF911F910F91FF90EF90DF90CF90BF907D
S11304A0AF909F908F9008951092710010927000F9
S11304B010926F0010926E0099231CF422E02BB965
S11304C09F7790BD89B988E98AB986E880BD089587
S11304D0209171002F5F2F71909170002917E1F323
S11304E0E22FF0E0EE58FF4F808320937100559A7D
S11304F008955058BB27AA270ED01CC10DD130F047
S113050012D120F031F49F3F11F41EF402C10EF415
S1130510E095E7FBF8C0E92F1ED180F3BA17620714
S113052073078407950718F071F49EF536C10EF42D
S1130530E0950B2EBA2FA02D0B01B90190010C01EF
S1130540CA01A0011124FF27591B99F0593F50F407
S1130550503E68F11A16F040A22F232F342F44275F
S1130560585FF3CF469537952795A795F040539557
S1130570C9F77EF41F16BA0B620B730B840BBAF027
S11305809150A1F0FF0FBB1F661F771F881FC2F792
S11305900EC0BA0F621F731F841F48F487957795A6
S11305A06795B795F7959E3F08F0B3CF9395880F5D
S11305B008F09927EE0F9795879508950CD0BAC047
S11305C0B2D040F0A9D030F021F45F3F19F09BC0C5
S11305D05111E4C09EC0BFD098F39923C9F35523A9
S11305E0B1F3951B550BBB27AA2762177307840722
S11305F038F09F5F5F4F220F331F441FAA1FA9F3D8
S113060033D00E2E3AF0E0E830D091505040E695C9
S1130610001CCAF729D0FE2F27D0660F771F881F2A
S1130620BB1F261737074807AB07B0E809F0BB0B19
S1130630802DBF01FF2793585F4F2AF09E3F51053D
S113064068F061C0ABC05F3FECF3983EDCF3869585
S113065077956795B795F7959F5FC9F7880F911DB3
S11306609695879597F90895E1E0660F771F881F9F
S1130670BB1F621773078407BA0720F0621B730B52
S1130680840BBA0BEE1F88F7E0950895E89409C02F
S113069097FB3EF490958095709561957F4F8F4FB1
S11306A09F4F9923A9F0F92F96E9BB279395F695C7
S11306B0879577956795B795F111F8CFFAF4BB0F45
S11306C011F460FF1BC06F5F7F4F8F4F9F4F16C0A9
S11306D0882311F096E911C0772321F09EE8872F33
S11306E0762F05C0662371F096E8862F70E060E0EF
S11306F02AF09A95660F771F881FDAF7880F969568
S1130700879597F9089597F99F6780E870E060E00E
S113071008959FEF80EC089500240A941616170696
S113072018060906089500240A94121613061406DE
S113073005060895092E0394000C11F4882352F041
S1130740BB0F40F4BF2B11F460FF04C06F5F7F4FF9
S11307508F4F9F4F089557FD9058440F551F59F0E0
S11307605F3F71F04795880F97FB991F61F09F3F9A
S113077079F087950895121613061406551FF2CFC3
S11307804695F1DF08C0161617061806991FF1CF13
S113079086957105610508940895E894BB2766273A
S11307A07727CB0197F908950BD0C4CFB5DF28F094
S11307B0BADF18F0952309F0A6CFABCF1124EECF02
S11307C0CADFA0F3959FD1F3950F50E0551F629FA8
S11307D0F001729FBB27F00DB11D639FAA27F00D96
S11307E0B11DAA1F649F6627B00DA11D661F829FBD
S11307F02227B00DA11D621F739FB00DA11D621FA2
S1130800839FA00D611D221F749F3327A00D611DBE
S1130810231F849F600D211D822F762F6A2F1124A0
S11308209F5750408AF0E1F088234AF0EE0FFF1FF3
S1130830BB1F661F771F881F91505040A9F79E3F2A
S1130840510570F060CFAACF5F3FECF3983EDCF324
S1130850869577956795B795F795E7959F5FC1F767
S1130860FE2B880F911D9695879597F90895F89416
S1050870FFCFB4
S105087201007F
S9030000FC
