S00F00006C6364207466742E7372656374
S11300000C941A060C9437060C9437060C94370695
S11300100C9437060C9437060C9437060C94370668
S11300200C9437060C9437060C9437060C94370658
S11300300C9437060C9437060C9437060C94370648
S11300400C9437060C9437060C9437060C94370638
S11300500C943706000000000000000000000000BF
S1130060000000000000000000000000000000008C
S1130070000000000000000007000F800F800F80C8
S11300800F800F8007000700000000000700070032
S11300900700000000000E380E380E380E38063007
S11300A0000000000000000000000000000000004C
S11300B00000000000000C300C300C307FFE7FFE8E
S11300C00C300C300C300C307FFE7FFE0C300C30CA
S11300D00C3000000000024002400FF81FF81A40E4
S11300E01A401FF00FF8025802581FF81FF0024080
S11300F0024000000000000000000E100E300E70E0
S113010000E001C0038007000E700C70087000004E
S113011000000000000000000F0019801980198001
S11301200F000F080F9819F818F018E019F00F983D
S113013000000000000000000700070007000E0098
S113014000000000000000000000000000000000AB
S1130150000000000000000000F001C00380070060
S11301600E000E000E000E000700038001C000F018
S113017000000000000000000F00038001C000E048
S1130180007000700070007000E001C003800F0078
S1130190000000000000000001801188099007E0C1
S11301A007E03FFC3FFC07E007E00990118801806D
S11301B00000000000000000000000000180018039
S11301C001800FF00FF00180018001800000000029
S11301D0000000000000000000000000000000001B
S11301E000000000000000000000070007000700F6
S11301F00E000000000000000000000000000000ED
S113020000001FF81FF800000000000000000000BC
S113021000000000000000000000000000000000DA
S113022000000000000000000000070007000700B5
S1130230000000000000000000020006000E001C88
S11302400038007000E001C0038007000E001C00AD
S113025000000000000000000FF01C381C781CF89F
S11302601CF81DB81DB81F381F381E381C380FF075
S113027000000000000000000180018003801F8056
S11302801F800380038003800380038003801FF0AA
S113029000000000000000000FE01C701C38003853
S11302A0007000E001C0038007000E381C381FF8FE
S11302B000000000000000000FE01C701C38003833
S11302C0007003C003C0007000381C381C700FE0BD
S11302D0000000000000000000E001E003E006E090
S11302E00CE018E01FF81FF800E000E000E003F85D
S11302F000000000000000001FF81C001C001C008F
S11303001C001FE01FF0007800381C381C700FE040
S1130310000000000000000003E007000E001C00C5
S11303201C001FF01FF81C381C381C381C380FF038
S113033000000000000000001FFC1C1C1C1C1C1CF6
S1130340001C0038007000E001C0038003800380BB
S113035000000000000000000FF01C381C381C389E
S11303601F3807E007E01CF81C381C381C380FF055
S113037000000000000000000FF01C381C381C387E
S11303801C381FF80FF800380038007000E007C070
S11303900000000000000000000000000380038053
S11303A0038000000000038003800380000000003D
S11303B00000000000000000000000000380038033
S11303C00380000000000380038003800700000016
S11303D0000000000000007000E001C0038007007E
S11303E00E001C001C000E000700038001C000E08A
S11303F000700000000000000000000000003FFC4E
S11304003FFC000000003FFC3FFC00000000000037
S11304100000000000001C000E000700038001C063
S113042000E00070007000E001C0038007000E00CF
S11304301C000000000003C00FF01E7818380038BC
S1130440007000E001C001C00000000001C001C054
S113045001C0000000000FF81C1C1C1C1C1C1C1CF0
S11304601CFC1CFC1CFC1CFC1C001C001C001FF0C5
S113047007F800000000000003C007E00E701C38FD
S11304801C381C381C381FF81C381C381C381C3805
S113049000000000000000001FF00E380E380E3877
S11304A00E380FF00FF00E380E380E380E381FF0DD
S11304B0000000000000000007F00E381C381C008B
S11304C01C001C001C001C001C001C380E3807F00B
S11304D000000000000000001FE00E700E380E380F
S11304E00E380E380E380E380E380E380E701FE0E7
S11304F000000000000000001FF80E180E080E0097
S11305000E300FF00FF00E300E000E080E181FF80C
S113051000000000000000001FF80E180E080E0076
S11305200E300FF00FF00E300E000E000E001F0004
S1130530000000000000000007F00E381C381C38D2
S11305401C001C001C001CF81C381C380E3807F852
S113055000000000000000001C701C701C701C7067
S11305601C701FF01FF01C701C701C701C701C7021
S113057000000000000000000FE0038003800380FF
S113058003800380038003800380038003800FE0E3
S1130590000000000000000001FC0070007000700A
S11305A000700070007038703870387038700FE068
S11305B000000000000000001E380E380E700EE02F
S11305C00FC00F800F800FC00EE00E700E381E3863
S11305D000000000000000001F000E000E000E00CE
S11305E00E000E000E000E000E080E180E381FF836
S11305F000000000000000001C1C1E3C1F7C1FFCAF
S11306001FFC1DDC1C9C1C1C1C1C1C1C1C1C1C1C02
S113061000000000000000001C1C1C1C1E1C1F1CF1
S11306201F9C1DDC1CFC1C7C1C3C1C1C1C1C1C1C62
S1130630000000000000000003E007F00E381C1C5E
S11306401C1C1C1C1C1C1C1C1C1C0E3807F003E06E
S113065000000000000000001FF00E380E380E38B5
S11306600E380FF00FF00E000E000E000E001F00EB
S1130670000000000000000003E00F780E381C1C8E
S11306801C1C1C1C1C1C1C7C1CFC0FF80FF80038C8
S113069000FC0000000000001FF00E380E380E3879
S11306A00E380FF00FF00E700E380E380E381E385C
S11306B000000000000000000FF01C381C381C383B
S11306C01C000FE007F000381C381C381C380FF0F1
S11306D000000000000000001FFC19CC11C401C080
S11306E001C001C001C001C001C001C001C007F0C8
S11306F000000000000000001C701C701C701C70C6
S11307001C701C701C701C701C701C701C700FE022
S113071000000000000000001C701C701C701C70A5
S11307201C701C701C701C701C700EE007C00380D1
S113073000000000000000001C1C1C1C1C1C1C1CD5
S11307401C1C1C9C1C9C1C9C0FF80FF80770077049
S113075000000000000000001C701C701C700EE003
S113076007C00380038007C00EE01C701C701C705F
S113077000000000000000001C701C701C701C7045
S11307801C700EE007C003800380038003800FE029
S113079000000000000000001FF81C38183810701A
S11307A000E001C0038007000E081C181C381FF865
S11307B0000000000000000007F007000700070029
S11307C0070007000700070007000700070007F0FD
S11307D00000000000000000100018001C000E00C3
S11307E00700038001C000E000700038001C00070F
S11307F0000000000000000007F0007000700070AE
S1130800007000700070007000700070007007F0DD
S1130810000000000000018003C007E00E701C38D7
S113082000000000000000000000000000000000C4
S113083000000000000000000000000000000000B4
S113084000000000000000000000000000000000A4
S11308507FFF7FFF000000001C001C000700070052
S11308600000000000000000000000000000000084
S11308700000000000000000000000000000000074
S11308800FE0007000700FF01C701C701C700FD80B
S113089000000000000000001E000E000E000E000C
S11308A00FF00E380E380E380E380E380E381BF096
S11308B00000000000000000000000000000000034
S11308C00FE01C701C701C001C001C701C700FE0DE
S11308D0000000000000000000F8007000700070CC
S11308E00FF01C701C701C701C701C701C700FD8D6
S11308F000000000000000000000000000000000F4
S11309000FE01C701C701FF01C001C701C700FE0AA
S1130910000000000000000003E0077007700700FB
S113092007001FE01FE007000700070007001FC0C3
S113093000000000000000000000000000000000B3
S11309400FD81C701C701C701C700FF007F0007026
S11309501C700FE0000000001E000E000E000E00D0
S11309600EF00F380F380E380E380E380E381E3889
S1130970000000000000000001C001C001C0000030
S11309800FC001C001C001C001C001C001C00FF807
S11309900000000000000000007000700070000003
S11309A003F00070007000700070007000701C7024
S11309B00CF007E0000000001E000E000E000E0008
S11309C00E380E700EE00FC00EE00E700E381E389A
S11309D000000000000000000FC001C001C001C001
S11309E001C001C001C001C001C001C001C00FF8B5
S11309F000000000000000000000000000000000F3
S1130A001FF81C9C1C9C1C9C1C9C1C9C1C9C1C9CC3
S1130A1000000000000000000000000000000000D2
S1130A201FE01C701C701C701C701C701C701C70EF
S1130A3000000000000000000000000000000000B2
S1130A400FE01C701C701C701C701C701C700FE07C
S1130A500000000000000000000000000000000092
S1130A601BF00E380E380E380E380E380FF00E000C
S1130A700E001F0000000000000000000000000045
S1130A801FB038E038E038E038E038E01FE000E03C
S1130A9000E001F000000000000000000000000081
S1130AA01EF00FF80F380E000E000E000E001F008F
S1130AB00000000000000000000000000000000032
S1130AC00FE01C301C300F8003E0187018700FE02A
S1130AD00000000000000000000001000300070007
S1130AE01FF007000700070007000770077003E006
S1130AF000000000000000000000000000000000F2
S1130B001C701C701C701C701C701C701C700FD826
S1130B1000000000000000000000000000000000D1
S1130B201C701C701C701C701C700EE007C00380CD
S1130B3000000000000000000000000000000000B1
S1130B401C1C1C1C1C1C1C9C1C9C0FF80770077094
S1130B500000000000000000000000000000000091
S1130B601CE01CE00FC0078007800FC01CE01CE0E5
S1130B700000000000000000000000000000000071
S1130B800E380E380E380E380E3807F003E000E049
S1130B9001C01F80000000000000000000000000F1
S1130BA01FE018E011C0038007000E201C601FE046
S1130BB0000000000000000001F8038003800380AF
S1130BC007001C001C00070003800380038001F859
S1130BD000000000000001C001C001C001C001C04C
S1130BE001C001C001C001C001C001C001C001C0F9
S1130BF001C00000000000001F8001C001C001C04E
S1130C0000E00038003800E001C001C001C01F80CE
S1130C1000000000000000001F1C3B9C39DC38F879
S1130C2000000000000000000000000000000000C0
S1130C300000000011241FBECFE5D4E0DEBFCDBF0D
S1130C4010E0A0E6B0E0E4E4F5E102C005900D9206
S1130C50A836B107D9F720E0A8E6B0E001C01D929C
S1130C60A836B207E1F70E947B060C94A00A0C9404
S1130C7000007F928F929F92AF92BF92CF92DF92A9
S1130C80EF92FF920F931F93CF93DF934B01EC01ED
S1130C902196FC016081662301F10F2EF5E07F2E81
S1130CA0F02D472D50E06894AA24A4F8B12C689440
S1130CB0CC24C4F8D12C0F2EF0EEEF2EFF24FA949E
S1130CC0F02D00E010E0940184E590E00E94080A11
S1130CD0F0E17F0E69916111E4CFDF91CF911F9113
S1130CE00F91FF90EF90DF90CF90BF90AF909F90C7
S1130CF08F907F90089584B7806884BF84B780689C
S1130D0084BF84B7806884BF84B7806884BF0E942E
S1130D100E0880EE9FEF0E9470072FEB87E299E0A8
S1130D20215080409040E1F700C000006CE271E087
S1130D3080E690E00E943906E12CF12C02E010E0FC
S1130D4028E130E04CE550E062E070E082E090E0C1
S1130D500E94C50728E130E04AEA50E062E070E012
S1130D6084E690E00E94C5076894AA24A4F8B12CF4
S1130D706894CC24C4F8D12CEE24EA94FE2C00E030
S1130D8010E025E030E046E650E06BE484E590E0D6
S1130D900E94080A25E030E046E750E06CE684E56E
S1130DA090E00E94080A25E030E046E850E069E659
S1130DB084E590E00E94080A25E030E046E950E02E
S1130DC06BE684E590E00E94080A25E030E045E007
S1130DD050E063E484E590E00E94080A25E030E0F6
S1130DE046E150E06AE784E590E00E94080A25E0C5
S1130DF030E047E250E069E784E590E00E94080AA9
S1130E0025E030E048E350E063E784E590E00E94A9
S1130E10080A25E030E049E450E063E684E590E028
S1130E200E94080A2FEF84E39CE021508040904008
S1130E30E1F700C00000FFCFAC9898BB8BBBAD9826
S1130E40AD9A0895AC9A98BB8BBBAD98AD9A0895B2
S1130E50CF93DF93EB010E941C07CE010E9422076F
S1130E60DF91CF910895CF93DF93EB010E941C078C
S1130E70CE010E942207DF91CF910895EF92FF9255
S1130E800F931F93CF93DF938C01EB017901E0E083
S1130E90F0E0F42FBF01680F791F84E490E00E9412
S1130EA02807BE0185E490E00E942807B70186E484
S1130EB090E00E942807B8018EE490E00E94280781
S1130EC0BE018FE490E00E94280782E290E00E9435
S1130ED01C07DF91CF911F910F91FF90EF90089520
S1130EE0CF93DF93EC01AF982FE331E04FEE50E066
S1130EF060E070E080E090E00E943E07CE010E9436
S1130F00220780E090E0AD98AD9AAD98AD9A019635
S1130F10813026E99207B9F7AF9ADF91CF9108950E
S1130F20CF92DF92EF92FF920F931F93CF93DF93B1
S1130F30EB0179016A01C81AD90AAF980E943E07E9
S1130F40C8010E94220797012E5F3F4F2C1B3D0BC7
S1130F50A6014F5F5F4F05C0AD98AD9A019700970A
S1130F60D9F7215031092115310529F0CA0141155C
S1130F70510591F7F6CFAF9ADF91CF911F910F9161
S1130F80FF90EF90DF90CF9008954F925F926F9211
S1130F907F928F929F92AF92BF92CF92DF92EF9205
S1130FA0FF920F931F93CF93DF93EC016A01290102
S1130FB0380181E0681A71084301860E971E870183
S1130FC09401CE010E9490075201A618B708A3010C
S1130FD04C0F5D1F9501B401CE010E94900795014D
S1130FE0A601B401C601861997090E9490079201CF
S1130FF0A601B501CE010E949007DF91CF911F9108
S11310000F91FF90EF90DF90CF90BF90AF909F90A3
S11310108F907F906F905F904F9008958FEF8ABB71
S113102087BB8BBB88BB84B3886F84BB85B3886F55
S113103085BB87EA91E60197F1F700C00000AF98FD
S1131040AB9883EC99E00197F1F700C00000AB9AEC
S113105083EC99E00197F1F700C0000061E070E0D3
S113106080E090E00E94330781EE94E00197F1F76D
S113107000C0000064EA78EA83E090E00E9433074D
S113108081EE94E00197F1F700C0000060E070E0A9
S11310908CE090E00E94330781EE94E00197F1F731
S11310A000C000006CE078E08DE090E00E9433071F
S11310B081EE94E00197F1F700C0000060E07BE26C
S11310C08EE090E00E94330781EE94E00197F1F7FF
S11310D000C0000060EB70E08EE190E00E943307F6
S11310E081EE94E00197F1F700C000006FE37BE22A
S11310F081E090E00E94330781EE94E00197F1F7DC
S113110000C0000060E076E082E090E00E943307D7
S113111081EE94E00197F1F700C0000060E070E018
S113112080E190E00E9433078BE49DE10197F1F7A1
S113113000C0000060E770E681E190E00E943307A0
S113114081EE94E00197F1F700C0000063E379E1D8
S113115087E090E00E94330781EE94E00197F1F775
S113116000C0000060E070E085E090E00E9433077A
S113117081EE94E00197F1F700C0000060E070E0B8
S113118086E090E00E94330781EE94E00197F1F746
S113119000C000006CE17FEE86E190E00E9433071E
S11311A081EE94E00197F1F700C0000063E070E085
S11311B087E190E00E94330781EE94E00197F1F714
S11311C000C0000060E070E08BE090E00E94330714
S11311D081EE94E00197F1F700C0000060E070E058
S11311E08FE090E00E94330781EE94E00197F1F7DD
S11311F000C0000060E070E081E490E00E943307EA
S113120081EE94E00197F1F700C0000060E070E027
S113121082E490E00E94330781EE94E00197F1F7B5
S113122000C0000060E070E088E490E00E943307B2
S113123081EE94E00197F1F700C000006FE371E0E4
S113124089E490E00E94330781EE94E00197F1F77E
S113125000C0000060E070E08BE490E00E9433077F
S113126081EE94E00197F1F700C0000060E07FEEAA
S113127084E490E00E94330781EE94E00197F1F753
S113128000C0000060E070E085E490E00E94330755
S113129081EE94E00197F1F700C000006FE371E084
S11312A086E490E00E94330781EE94E00197F1F721
S11312B000C0000067E077E080E390E00E9433071D
S11312C081EE94E00197F1F700C0000064E072E061
S11312D081E390E00E94330781EE94E00197F1F7F7
S11312E000C0000064E072E082E390E00E943307F3
S11312F081EE94E00197F1F700C0000062E075E030
S113130083E390E00E94330781EE94E00197F1F7C4
S113131000C0000067E075E084E390E00E943307BA
S113132081EE94E00197F1F700C0000064E072E000
S113133085E390E00E94330781EE94E00197F1F792
S113134000C0000064E072E086E390E00E9433078E
S113135081EE94E00197F1F700C0000062E075E0CF
S113136087E390E00E94330781EE94E00197F1F760
S113137000C0000062E073E08AE390E00E9433075B
S113138081EE94E00197F1F700C0000062E073E0A1
S11313908BE390E00E94330781EE94E00197F1F72C
S11313A000C0000060E070E083E290E00E94330738
S11313B081EE94E00197F1F700C0000060E070E076
S11313C084E290E00E94330781EE94E00197F1F704
S11313D000C0000060E070E885E290E00E943307FE
S11313E081EE94E00197F1F700C0000060E070E046
S11313F08FE490E00E94330760E070E08EE490E0B8
S11314000E94330782E290E00E941C07AF9A08957D
S11314102F923F924F925F926F927F928F929F9200
S1131420AF92BF92CF92DF92EF92FF920F931F93EE
S1131430CF93DF9300D000D0CDB7DEB7A62FFA014B
S1131440B9019601369527953695279536952795B2
S11314502A9DA0012B9D500D3A9D500D11242A2F39
S113146030E020523109429F4001439F900C529F2B
S1131470900C1124880E991EAF989B0121503109BC
S11314802A0D3B1DAF01415051094C0D5D1DCF018B
S11314900E943E0735016894332437F8212C412CEF
S11314A0512CC982DA8228C0C50187709927892BFB
S11314B041F4F4012490FFEF8F1A9F0A68943324B7
S11314C037F8832D822136949FEFA91AB90A88230D
S11314D021F0C8010E94220703C0C7010E9422070D
S11314E0EB81FC813197FC83EB83EF2BE9F64C0C09
S11314F05D1CF1E06F1A71086114710449F0C114A4
S1131500D104B9F3520189818B839A819C83CCCF16
S1131510AF9A0F900F900F900F90DF91CF911F9182
S11315200F91FF90EF90DF90CF90BF90AF909F907E
S11315308F907F906F905F904F903F902F90089581
S1071540F894FFCF49
S10B15445353443132383900DD
S9030000FC
