S00C00006C6364322E73726563B3
S11300000C942A000C9447000C9447000C9447006D
S11300100C9447000C9447000C9447000C94470040
S11300200C9447000C9447000C9447000C94470030
S11300300C9447000C9447000C9447000C94470020
S11300400C9447000C9447000C9447000C94470010
S11300500C94470011241FBECFE5D4E0DEBFCDBF12
S113006010E0A0E6B0E0E4EDF3E002C005900D92EC
S1130070A036B107D9F720E0A0E6B0E001C01D9298
S1130080A036B207E1F70E9449000C94E8010C94F1
S1130090000078940E94C00060E080E00E94BF01EC
S11300A02FEF84E39CE0215080409040E1F700C0B2
S11300B00000FFCFA798A49888BB6BBBA598A59A0E
S11300C0A49AA79A0895A798A49A88BB6BBBA598ED
S11300D0A59AA79A0895CF93DF93C42FD22F0E9495
S11300E05A006D2F8C2F0E946300DF91CF910895E9
S11300F0FF920F931F93CF93DF93CDB7DEB728976B
S11301000FB6F894DEBF0FBECDBF9A8389837C837C
S11301106B835E834D8338872F83FA802F2D4E8126
S113012064E480E00E946B000C811B811170202F1D
S1130130412F65E480E00E946B004F814170288567
S113014066E480E00E946B002F2D49816EE480E01C
S11301500E946B00202F412F6FE480E00E946B000F
S113016062E280E00E945A0028960FB6F894DEBF3F
S11301700FBECDBFDF91CF911F910F91FF900895D6
S1130180A498A49AA79821E240E067E080E00E9446
S11301906B0021E040E060E080E00E946B0023E21D
S11301A040E067E080E00E946B002CEA4EEA63E0E6
S11301B080E00E946B0027E040E06CE080E00E9459
S11301C06B002FE040E06DE080E00E946B0020E0D7
S11301D049E26EE080E00E946B0023EB40E06EE1B8
S11301E080E00E946B002FE34BE261E080E00E941C
S11301F06B0020E046E062E080E00E946B0020E0BB
S113020040E060E180E00E946B0020EB40E661E1A9
S113021080E00E946B0020E040E065E080E00E9406
S11302206B0020E040E066E080E00E946B002CE17F
S11302304FEE66E180E00E946B0023E040E067E15E
S113024080E00E946B0023E342E067E080E00E94CC
S11302506B0022E143E56BE080E00E946B0020E04C
S113026040E06FE080E00E946B0020E040E061E449
S113027080E00E946B0020E040E062E480E00E94A5
S11302806B0020E040E068E480E00E946B002FE314
S113029041E069E480E00E946B0020E04FEE64E4FA
S11302A080E00E946B0020E040E065E480E00E9472
S11302B06B002FE341E066E480E00E946B0020E0E5
S11302C040E06AE480E00E946B0020E040E06BE4E0
S11302D080E00E946B0027E047E060E380E00E943A
S11302E06B0024E047E061E380E00E946B0024E0BF
S11302F042E062E380E00E946B0021E042E063E3BD
S113030080E00E946B0023E042E064E380E00E940E
S11303106B0024E042E065E380E00E946B0024E08F
S113032042E066E380E00E946B0022E045E067E380
S113033080E00E946B0022E043E06AE380E00E94D8
S11303406B0020E045E06BE380E00E946B0020E05E
S113035040E063E280E00E946B0020E040E064E261
S113036080E00E946B0020E040E865E280E00E94AB
S11303706B0062E280E00E945A00A79A0895CF932E
S1130380DF93C82FD62F2FE331E04FEE50E060E02B
S113039070E080E090E00E9478006D2F8C2F0E9426
S11303A0630020E431E050EF40E00CC0A798A5982A
S11303B0A59AA79A01970097C9F7215031092115E9
S11303C0310519F0852F942FF1CFDF91CF91089546
S10703D0F894FFCFCB
S9030000FC
